:020000040800F2
:10000000806E00202503000803650008235F0008B8
:1000100001650008EB1F0008D96D00080000000012
:100020000000000000000000000000000B65000858
:10003000F91F000800000000096500080D650008B0
:100040003F0300083F0300083F0300083F03000888
:100050003F0300083F0300083F0300083F03000878
:100060003F0300083F0300083F030008ED1F00089E
:100070003F0300083F0300083F0300083F03000858
:100080003F03000800000000AD1E00083F03000809
:100090003F0300083F0300083F0300083F03000838
:1000A000CD6500083F0300083F0300083F03000838
:1000B0003F0300083F0300083F0300083F03000818
:1000C0003F0300083F0300083F0300083F03000808
:1000D0003F0300083F030008CD6D00083F03000800
:1000E0003F0300083F0300083F0300083F030008E8
:1000F0003F0300083F0300083F0300080000000022
:10010000000000003F030008000000003F0300085B
:100110003F030008000000003F0300083F03000801
:100120003F0300083F0300083F0300083F030008A7
:100130003F03000800000000000000003F0300082B
:100140003F0300083F03000800000000000000001B
:10015000000000000000000000000000000000009F
:100160000000000000000000000000003F03000845
:100170003F03000800000000000000000000000035
:10018000000000003F030008000000000000000025
:10019000000000000000000000000000000000005F
:1001A00000000000000000003F0300083F030008BB
:1001B0003F0300083F0300083F0300080000000061
:1001C000000000003F0300080000000000000000E5
:1001D0003F0300083F03000800F002F800F092F827
:1001E0000AA090E8000C82448344AAF10107DA4592
:1001F00001D100F087F8AFF2090EBAE80F0013F052
:10020000010F18BFFB1A43F00103184744CE00004A
:1002100064CE0000103A24BF78C878C1FAD85207DB
:1002200024BF30C830C144BF04680C607047000070
:100230000023002400250026103A28BF78C1FBD8EF
:10024000520728BF30C148BF0B6070476E2900F0CD
:100250001F84702900F0F98166290CF0B0826529AD
:100260000CF0AD8267290CF0AA8261290CF0A982FA
:1002700003681B0A28BF41F08001692900F06A81E8
:10028000642900F06781752900F064816F2900F00E
:100290001C87782900F0C581E92900F0B786E42998
:1002A00000F0B486F52900F0B186EF2900F0198737
:1002B000F82900F0C4810368DB0928BF41F0800100
:1002C000632900F03886732900F03D86E32901F0A8
:1002D0004B81F32901F05081002070471FB50CF0CD
:1002E00064FA00F02BFF0400002000210BF032FD27
:1002F000401C6060002000210BF016FDE0601FBD77
:1003000010B510BD01F0D2F91146FFF7E7FF09F073
:10031000A3FA01F0F9F903B4FFF7F2FF03BC06F00A
:10032000A1FD00000948804709480047FEE7FEE7B5
:10033000FEE7FEE7FEE7FEE7FEE7FEE7FEE7FEE795
:1003400004480549054A064B70470000B16500089E
:10035000D901000880680020806E0020806A00209B
:10036000806A0020704753EA020C00F069802DE992
:10037000F04B4FF00006002B1FBFB3FA83F503FAD2
:1003800005F424FA05F65E4012BF1643B2FA82F570
:1003900002FA05F4C5F120051EBF22FA05FC44EA65
:1003A0000C04203556EA044C4FEA144418BF641C70
:1003B0004FF000084FF00009904271EB030C39D365
:1003C000002919BFB1FA81F701FA07F6B0FA80F7F0
:1003D00000FA07F6C7F120071EBF20FA07FC46EA1D
:1003E0000C062037B6FBF4FCA7EB0507103F07F01F
:1003F0001F0BCBF120060CFA0BFB2CFA06F644BFC0
:10040000B3460026202FA4BF5E464FF0000B5BEAE8
:10041000060C08BF4FF0010B19EB0B09ABFB027C7C
:1004200048EB0608C01B06FB02CC0BFB03CC71EBB0
:100430000C01C1E70B46024641464846BDE8F08B39
:1004400013B54FF000004FF00001AFF30080BDE89E
:100450001C4070477CB51D4616460C00009001D02C
:100460002044401E074B7B442A4669460190304693
:1004700000F037FD05461CB10020694600F044FD40
:1004800028467CBDA90A00000FB41CB5084B06AA7B
:100490007B4469460090059800F023FD0446002047
:1004A000694600F031FD20461CBC5DF814FB0000DD
:1004B000750A000070B5044685690068C10601D55B
:1004C000302600E02026C00707D070BDD4E9012106
:1004D00030469047206A401C20626D1EF6D570BDE4
:1004E00070B5044685690078C00707D170BDD4E9AE
:1004F000012120209047206A401C20626D1EF6D505
:1005000070BD70B50C460546012A05D028788006D6
:1005100000D5EA69002302E0012305E05B1C934259
:1005200002D2E05C0028F9D1A869E618C01AA861D7
:10053000286A184428622846FFF7BCFF04E0D5E982
:10054000012114F8010B9047B442F8D32846FFF775
:10055000C7FF70BD2DE9F0410646002410687529DB
:10056000314616A510D000F028FA002802DA4042E1
:1005700013A507E031688A0701D512A502E04907F3
:1005800004D511A5012401E000F020FA00210A227F
:1005900006F1240709E0B0FBF2FCB0FBF2F302FB2A
:1005A0001C00303078541846491C0028F3D12346EB
:1005B0002A463046BDE8F04100F011BA00000000C4
:1005C0002D0000002B00000020000000F0B40D46BC
:1005D0000188090502D5214C7C4402E01F4C7C4473
:1005E0000E34002100F1240608E002F00F07120982
:1005F000E75D42EA03721B097754491C52EA03077C
:10060000F3D102780023120704D5702D06D009B16A
:10061000022311342246F0BC00F0E1B9012310346A
:10062000F8E770B504460D462146106800F0CEF993
:10063000024629462046BDE870400023C6E7D21D89
:1006400022F00703D3E90023C0E70368126843F0F0
:10065000200303600823C3610023B7E785C60000B9
:100660002DE9F05F894604464FF0000ADFF874B1C7
:10067000FB44C0F820A02046E1688847002874D0D9
:10068000252806D0D4E901219047206A401C206229
:10069000F1E700265F462046E168884720280546A6
:1006A00007DB312D05D2781910F8200C08B106436C
:1006B000F1E7B00701D526F00406C4F81CA0002716
:1006C000C4F818A02A2D09D0284606F0C4FB38B378
:1006D00004EB8708303DC8F8185019E059F8041B9E
:1006E000204604EB87029161E1688847012F0546A7
:1006F00018D1E069002820DA26F020061DE0D8F89D
:10070000180000EB800005EB40003038C8F81800F6
:100710002046E1688847054606F09DFB0028EED19B
:10072000012F0AD02E2D08D12046E16888477F1C72
:100730000546022F46F02006C4DBA069002803DA34
:10074000404246F00106A061F00701D026F01006F5
:100750006C2D0BD0682D09D04C2D39D06A2D35D099
:10076000742D35D07A2D33D016E038E0E1682F466D
:1007700020468847B842054609D16C2F26D04FF451
:100780008060E168064320468847054604E06C2FF8
:100790001AD04FF4807006430DB3A5F1410019281B
:1007A00002D8203546F400664A462946204626608F
:1007B0004E46FFF74BFD80B101280BD0F61D26F009
:1007C000070000F1080956E74020E4E78020D8E759
:1007D0000020D6E706F104094DE7284652E7206AD3
:1007E000BDE8F09F15C6000010B5431C02E010F8EC
:1007F000011B71B18107FAD14FF0013202C88C1A86
:100800008C4314EAC211F9D0C01A0A0603D0C01EE4
:1008100010BDC01A10BD0A0401D0801E10BD09020F
:10082000FCD0401E10BD40EA010370B59B072ED1DD
:100830004FF00136042A2AD308C810C99D1B9D43D6
:10084000121F15EAC61517D0D8B2E1B2401A50EA05
:10085000056110D198B2A1B2401A50EA05410AD1FF
:1008600023F07F4024F07F41401A50EA052102D155
:10087000180EA0EB146070BDA342DBD018BA21BAE9
:10088000884201D9012070BD4FF0FF3070BD0AB918
:10089000002070BD10F8013B11F8014B63B1A34279
:1008A0000AD1521E08D010F8013B11F8014B1BB1C0
:1008B000A34201D1521EEDD1181B70BD02F0FF03FF
:1008C00043EA032242EA024200F018BC4FF0000261
:1008D00000B5134694469646203922BFA0E80C5036
:1008E000A0E80C50B1F12001BFF4F7AF090728BF11
:1008F000A0E80C5048BF0CC05DF804EB890028BF8D
:1009000040F8042B08BF704748BF20F8022B11F0B5
:10091000804F18BF00F8012B704700004FF0013CDA
:1009200050F8042B51F8043B9A4221D1A2EB0C035E
:10093000934313EACC1317D150F8042B51F8043B1E
:100940009A4215D1A2EB0C03934313EACC130BD1BB
:1009500050F8042B51F8043B9A4209D1A2EB0C0346
:10096000934313EACC13DBD04FF00000704700BF75
:10097000D01A01BAB1FA81F101F0180122FA01F09E
:10098000CB40C1F12001DBB2C0B2C01A2CFA01F396
:10099000D11A914311EAC311E6D1704770477047ED
:1009A0007047704710B500F0CDFB006810BD10B562
:1009B000044600F0C7FB046010BD09684A0501D574
:1009C00040B27047C905FCD500B2704709684A05B6
:1009D00001D5C0B27047C905FCD580B270472DE97A
:1009E000F0470D4699469246044600F124080168F6
:1009F000880604D5E06921F01001216000E00120A3
:100A0000A84201DD471B00E00027A1697A1902EB2B
:100A10000900081AA0612078C00602D42046FFF71A
:100A200049FD002608E0D4E901211AF806009047A4
:100A3000206A401C761C20624E45F4DB2078C006FC
:100A40000AD52046FFF736FD06E0D4E90121302023
:100A50009047206A401C2062381EA7F10107F4DC91
:100A600007E0D4E9012118F805009047206A401CEE
:100A70002062281EA5F10105F3DC2046FFF730FDBA
:100A80002078000602D50220BDE8F0870120FBE7B0
:100A900011680268006A530501D508700AE0D305A1
:100AA00001D5088006E0130603D5C217C1E900028C
:100AB00000E008600120704770472DE9FF4F0C46A9
:100AC0001E464FF0FF378BB0D2E90001DDF86080A1
:100AD0000A908A46C1F30A5505B93D4600210846E9
:100AE0004FF00000BAF1000F00F4400005DA00EB0F
:100AF00080004FF4400101EA50004FEA9059B9F1EB
:100B0000010F00DDB9460A9850EA4A000ED044F6BB
:100B10001050A5F2FF3545432F14B8F1000F1ED039
:100B20007542291E1EDDC9F100021CE0B8F1010F5B
:100B30004FF0000001D0302103E0F24305E02154E2
:100B4000401CB042FBDB30460022002121540B99AF
:100B5000C1F80880C1E900200FB0BDE8F08FBD1BCF
:100B60006D1CDEE74A4600DA694206A800F008FD7F
:100B700006AB93E8070003AB83E8070050460A99E9
:100B800000F0CBFD8DE80700A0F500501F38009065
:100B90000398002D0ADD42F21F014A460844002353
:100BA00003A90390684601F034F809E0A0F500506D
:100BB0004A461F38002303A90390684601F03EF817
:100BC0008DE807000004000C03D04FF0FF3041080F
:100BD00000E01046B8F1000F03D000220092154645
:100BE0001EE0751E05D400F0B1FA303262556D1E5C
:100BF000F9D5B3460122084302D000227F1C04E04D
:100C00002078302801D100227F1E002A099784D045
:100C10001DE0112D07DA00F099FA303262556D1C93
:100C200050EA0102F5D1084302D00098C8B10EE0A5
:100C30000021681E05E0235C625C63542254401E60
:100C4000491C8142F7DBAB46A81B401E09900020DF
:100C500004F80B000B98099AC0F80880C0E9002B33
:100C60007AE711264FF0000857E72DE9F04F884644
:100C70000446D21D22F0070191B0D1E90001CDE96F
:100C80000A0106F0B3F802460B98C00F01D02D20E0
:100C900007E02068810701D52B2002E0202101EA2E
:100CA000C000032A099001D0072A05DB034641460C
:100CB000204600F00FFC0BE12078800601D5E069AA
:100CC00000E00620B8F1650F814606D0B8F1660F46
:100CD00018D0B8F1670F70D131E00020B9F1110FD1
:100CE000009001DB112301E009F101030AAA01A927
:100CF0000CA8FFF7E2FEDDE90C70002609F1010502
:100D0000834647E001204B4600904FF000470AAA77
:100D100001A90CA8FFF7D1FEDDE90DB00C995D46E5
:100D2000002610B909F101000D18B9EB050003D434
:100D3000C0F1FF3609F10105A5EB09002BE0B9F17F
:100D4000010F01DA4FF001090020B9F1110F0090F5
:100D5000484601DD112300E003460AAA01A90CA8B8
:100D6000FFF7ABFEDDE90C704D4600268346207888
:100D700000070AD4AB4500DA5D4601A8012D04DD69
:100D8000411911F8011C302907D04F4502DA17F13B
:100D9000040F04DA012082460FE06D1EEEE7002FFB
:100DA00002DCED1B3E4403E0781CA84200DD7D1C04
:100DB000B81B00F1010A4FF000472078000703D468
:100DC000AA4501DB4FF0FF3A0021B7F1004F0DF1CA
:100DD00043088DF8431024D002202B23002F01DA82
:100DE0007F422D230A21021EA0F1010000DC5FB129
:100DF00097FBF1FC97FBF1F201FB1C7C17460CF111
:100E0000300C08F801CDEEE7A8F10100037021884D
:100E1000090501D5452100E06521A0F1010800F890
:100E2000011C09980FA9A1EB0807FF1D00B10120C3
:100E3000411901EBEA70A1693844081A401EA0610B
:100E40002078C00602D42046FFF734FB099828B169
:100E5000D4E901219047206A401C20622078C00616
:100E600022D52046FFF726FB1EE0002E04DBB3450B
:100E700002DD01A8805D00E03020D4E90121904727
:100E8000206A401C2062761CAAF101005FEA000A79
:100E90000AD100F053F9C0680168405CD4E901212F
:100EA0009047206A401C2062281EA5F10105DCDC69
:100EB00007E0D4E9012118F8010B9047206A401C93
:100EC0002062381EA7F10107F3DC2046FFF708FB7C
:100ED000032011B041E6000001694A1C0261087854
:100EE000704700B58FB0CDE901310021059105496A
:100EF0007944CDE9031011466846FFF7B1FB0FB006
:100F000000BD0000E5FFFFFF0A6802F8010B0A6060
:100F10007047D1E900239A4202D2531C0B60107033
:100F2000704710B5436913B1AFF3008001E0FFF7DC
:100F3000E8FA012010BD127800F124010A700022A5
:100F40004A700122EDE711684FF0FF32E9E7000037
:100F50002DE9FF5F15468A460446DFF8AC80F84469
:100F60000027D8E900103E46CDE9001010E03AF81D
:100F700016106A4602A800F075FB411C07D02178C4
:100F8000890603D5E269391891420DD80744761CC9
:100F90002078800602D5E069B84205DDAE42E6DB86
:100FA0003AF816000028E2D1A069C01BA0612046D3
:100FB000FFF780FAD8E90010CDE90010002017E013
:100FC0003AF818106A4602A800F04CFBB0F1FF3F57
:100FD00081460BD000250DF1080B05E0D4E9012175
:100FE0001BF8050090476D1C4D45F7D308F1010033
:100FF000B0428046E4DB206A384420622046FFF796
:101000006FFABDE8FF9F00003ABD00002DE9F041F6
:101010008046D21D22F007020025D2E90002F52900
:1010200015A614D0011E72F1000106DA0023D0EBE0
:10103000030063EB020211A608E0D8F800108B074A
:1010400001D50FA602E0490701D50EA601251146DC
:10105000002408F1240704E000F078F830323A5513
:10106000641C50EA0102F7D12B4632462146404625
:10107000BDE8F041FFF7B3BC000000002D00000008
:101080002B0000002000000030B4002100F12404F7
:1010900008E002F00705D208303542EA4372DB0867
:1010A0006554491C52EA0305F3D10468002310A2D9
:1010B000250707D5A40600D421B1C46901230DA2D8
:1010C000641EC46130BCFFF78ABC10B504462146DB
:1010D0001068FFF77BFC02462046BDE81040002365
:1010E000D2E7D21D22F00701D1E90023CCE70000AE
:1010F00000000000300000004FF000020429C0F0A2
:10110000128010F0030C3FF4E3ABCCF1040CBCF103
:10111000020F18BF00F8012BA8BF20F8022BA1EB8B
:101120000C01FFF7D5BB5FEAC17C24BF00F8012B9F
:1011300000F8012B48BF00F8012B704700487047AA
:101140003C680020004870471C68002030B5B0F1B2
:101150000A024FEA900E71F100034EEA817EB0EB75
:101160000E0061EB91014FEA101E4EEA017E10EB7A
:101170000E0041EB11114FEA102E4EEA016E10EBFA
:101180000E0041EB11214FEA104E4EEA014E10EBDA
:101190000E0041EB1141401841F100014FEAD0002F
:1011A00040EA41704FEAD10110EB80054FEA81041B
:1011B00044EA907444EB01046D1944EB0404521B9F
:1011C000A3414FF0000348BF0A3200D530BD401C98
:1011D00041F1000130BD00002DE9F04F04460D46FD
:1011E000D21D22F0070089B0D0E900974846394661
:1011F00005F0FCFD0246F80F01D02D2307E0206822
:10120000810701D52B2302E0202101EAC0038DF8DC
:1012100020300BB1012000E00020032A824601D0DB
:10122000072A04DB2946204600F054F93FE12078E4
:10123000800601D40D2500E0E569C7F30A560D2D9F
:1012400049DA00214FEA175B08464FF00000002FF3
:1012500000F4400007DA00EB80004FF4400100EB9F
:10126000D07001EA60008115012901DD4FF0FF31E6
:1012700000224FEA850CBCF1180F06D31346ACF1DF
:1012800018004FF08052C24003E04FF4801323FA5D
:101290000CF30CF10C0CBCF1200F04D3ACF1200CBE
:1012A00009FA0CF001E007FA0CF000294FF00048B1
:1012B00001DD18B90FE00ED140450CD319EB02093E
:1012C0005F4121B9404502D19F4329EA0209BBEBA6
:1012D000175F00D0761C2088000502D57B48784433
:1012E00002E07A487844193808AA302302F80A3014
:1012F000037C0AF10101002E0AF1020A53546A46E6
:1013000002DC4FF0300101E04FF031014FF00108F5
:101310008DF8001002D0A6F2FF3603E059EA47012B
:1013200000D06B4E002D02DC2178090704D54FF068
:1013300002082E218DF80110C44600210BE0C7F3EE
:1013400003433F01C35C491C6D1E02F808300529A8
:1013500008F1010801DA002DF1DC00210CE000EBBE
:101360001973491C1B786D1E082902F808304FEAD2
:10137000091908F1010801DA002DF0DC21688B065B
:1013800002D516E0A8F10108E04505DD02EB0803EF
:1013900013F8013C302BF5D0B8F1000F09DD02EB5A
:1013A000080313F8013C2E2B03D1090701D4A8F13F
:1013B0000108002D05DD3E2102F808106D1E08F120
:1013C0000108407C002E02F8080008F1010804DA48
:1013D0002D20764202F8080002E02B2002F80800D7
:1013E0000A214FF47A70864208F101080BDB96FB64
:1013F000F0F3303302F8083096FBF0F308F10108FF
:1014000000FB136601E0642E0CDB642096FBF0F316
:10141000303302F8083096FBF0F308F1010800FBC6
:10142000136601E00A2E06DB96FBF1F0303002F87D
:10143000080008F1010896FBF1F001FB1060303064
:1014400002F80800A16908F1010808EB050202EBA7
:101450000A00081AA0612078C00602D42046FFF7CF
:1014600029F8216A08AE01EB0A00206204E0D4E901
:10147000012116F8010B9047BAF1010AF7D2207842
:10148000C00602D52046FFF715F86E4609E016F8AB
:10149000010B3E280FD0D4E901219047206A401C5F
:1014A0002062B8F10108F2D22046FFF719F809B01E
:1014B0000320BDE8F08F206A2844206203E0D4E9CD
:1014C0000121302090476D1EEBD3F8E7D5B900001D
:1014D00002FCFFFF2DE9F0411F4604460326016888
:1014E000072A01F4006004DB08B116A505E016A583
:1014F00003E008B115A500E015A521F0100020605B
:10150000A069C01EA0610FB1401EA0612046FEF779
:10151000D1FF4FB1D4E9012138469047206A401CE1
:101520002062C01C206206E0206AFAE7D4E90121AB
:1015300015F8010B9047761EF8D22046FEF7D0FF33
:10154000BDE8F0814E414E006E616E00494E46008E
:10155000696E660010B5436913B1AFF3008001E016
:10156000FFF7F6FC012010BD128800F124018284EF
:101570000022C2840122EDE711684FF0FF32E9E753
:101580002DE9F047814616468AB0354878440DC8A3
:101590008DE80D0032487844801C03AC0DC884E807
:1015A0000D0041F69B300844372190FBF1F290FB8F
:1015B000F1F5A5F1800501FB12041B3C02D5644244
:1015C000012000E00020DFF898A080460027FA44C0
:1015D000AAF1BE0A0EE0E0070AD03246684607EBE1
:1015E000470101230AEB810100F028FB8DE8070089
:1015F00064107F1C002CEED1194F7F44AE3F19E0E0
:10160000E80715D007EB04100DF1180A90E80E005A
:101610008AE80E00C068F04201D19819089032465D
:10162000012306A903A800F009FB03AB83E8070028
:101630006D10641C002DE3D14FF001033246694662
:10164000B8F1000F03A802D000F0E3FA01E000F0C7
:10165000F5FAC9E90001C9F808200AB0BDE8F08729
:10166000B8B7000070B516460C46054600F044F8C1
:10167000036893F80101012806D0FF2C0FD8185DEC
:1016800068B101202C7070BDD3F8070132462146A5
:1016900003F2071303442846BDE8704018474FF093
:1016A000FF3070BD004870471C6800207546FFF78A
:1016B000F9FFAE4605006946534620F0070085460F
:1016C00018B020B5FEF73CFEBDE820404FF0000604
:1016D0004FF000074FF000084FF0000B21F007011A
:1016E000AC46ACE8C009ACE8C009ACE8C009ACE85D
:1016F000C0098D467047000010B5FFF71FFD001DA3
:1017000010BD00BF51A6000010B50446AFF3008025
:101710002046BDE81040FEF7FEBD5FEA400C08BF62
:1017200091F0000F4FEA8C234FEAC12243EA515156
:101730004FEA1C5018BF00F5F0404FEA300018BFC8
:1017400041F000415FEA6C5C00F02980BCF1FF3F92
:1017500008BF40F080407047130C06BF12044FF0E2
:10176000100C4FF0000C130E04BF12020CF1080C09
:10177000130F04BF12010CF1040C930F04BF92006D
:101780000CF1020CD30F04BF52000CF1010C1146F6
:101790004FF00002A0F11F00A0EB0C00704711F009
:1017A000004F08BF704731F000413FF4D5AF0B0C3C
:1017B00006BF09044FF0100C4FF0000C0B0E04BFD5
:1017C00009020CF1080C0B0F04BF09010CF1040C09
:1017D0008B0F04BF89000CF1020CCB0F04BF490032
:1017E0000CF1010CCCF12003A0EB0C0022FA03F366
:1017F00002FA0CF241EA030100F10100704720F007
:101800007F4C80EA030023F07F47ACEB070303F52E
:101810007C5300F0004003F1FF032DE980494FEABB
:10182000154B09B44FEA144325EA0B4E24EA03484A
:101830000FF2042606EB132749083E785FEA3202CE
:1018400003FB0667C7F5000707FB06F64FEA5437A8
:101850004FEAD64606F1020607FB066CCCF1005CA7
:101860004FEA1C472CEA074C07FB06F40CFB06F575
:1018700004EB15464FEA961634BF00204FF00040A7
:101880004FEAD13706FB07FC4FEA1C4C0CFB0BF769
:10189000D21B03FB0CF761EB07010CFB0EF7B0EB5F
:1018A000074072EB17420CFB08F734BFA2EB07426C
:1018B000B2EB074261EB17414FEA0C444FEA910744
:1018C00006FB07FC4FEA1C4C0CFB0BF7B0EBC740C8
:1018D00072EB573203FB0CF734BFA2EBC742B2EBFB
:1018E000C74261EB57310CFB0EF7B0EBC70072EB50
:1018F00057720CFB08F734BFA2EBC702B2EBC7026A
:1019000061EB5771039F4FEA816141EA921104EB49
:10191000CC044FEAD1374FEA826206FB07FC42EA69
:1019200090124FEA80604FEA1C4C0CFB0BF7D21B65
:1019300003FB0CF761EB07010CFB0EF7B0EB074064
:1019400072EB17420CFB08F734BFA2EB0742B2EB75
:10195000074261EB17414FEA8C554FEA910704EBC0
:101960009C2406FB07FC4FEA1C4C0CFB0BF7B0EB6E
:10197000C74072EB573203FB0CF734BFA2EBC742F0
:10198000B2EBC74261EB57310CFB0EF7B0EBC7006F
:1019900072EB57720CFB08F734BFA2EBC702B2EB35
:1019A000C70261EB577115EB4C254FEA816141EAA3
:1019B00092114FEA82624FEAD13742EA901206FB57
:1019C00007FC44F100044FEA80604FEA1C4C0CFB1A
:1019D0000BF7D21B03FB0CF761EB07010CFB0EF7B7
:1019E000B0EB074072EB17420CFB08F734BFA2EBD9
:1019F0000742B2EB074261EB174115EB1C154FEAAA
:101A0000813141EA92414FEA823242EA90424FEA02
:101A100080304FEA0C7644F1000448EA03434EEA72
:101A20000B484FF0000EB2EB080C71EB030724BF1C
:101A3000624639464EEB0E0E4FF0000B0018524135
:101A400049414BEB0B0BB2EB080C71EB03077BF13D
:101A5000000B24BF624639464EEB0E0E4FF0000BD2
:101A60000018524149414BEB0B0BB2EB080C71EBE8
:101A700003077BF1000B24BF624639464EEB0E0E86
:101A800051EA020718BF46F0010616EB0E7655F133
:101A9000000254F1000103D5BDE88901BDE80088CA
:101AA000BDE88901BDE80048B619524141EB01018A
:101AB000A3F10103704780807F7E7D7C7B7A7978FB
:101AC000777676757473727171706F6E6E6D6C6C03
:101AD0006B6A6A69686867666665646463636261A5
:101AE0006160605F5F5E5E5D5D5C5C5B5B5A5A5926
:101AF0005958585757565655555554545353525292
:101B00005251515050504F4F4F4E4E4D4D4D4C4CE9
:101B10004C4B4B4B4A4A4A49494948484847474732
:101B2000474646464545454444444443434343426F
:101B3000424242414141002B9C4630D477002BD099
:101B40001CB54FEA370703B44FF010004FF01001F7
:101B5000BAF1000F06D0BCF1000FDCBF40F0080066
:101B600040F008014FF000000FBCBDE810400BF141
:101B7000010BBBF1010F08BF5FEA170722BF12F18B
:101B8000010211F101014FF0004143F1000300F0A7
:101B9000004043EA00007047F9D35708D0E746EA0F
:101BA000064613F1400F4FEA16461FDD13F1200FD2
:101BB000DFBF16430A46002120335B42BED0C3F18B
:101BC000200746EA064602FA07F74FEA164646EAB3
:101BD0000706C3F1200722FA03F201FA07F721FAF8
:101BE00003F14FF0000342EA0702A7E746EA0206C4
:101BF00046EA06464FEA164646EA0106BCBF46EAF2
:101C00000646360C4FF000034FF000024FF0000183
:101C100094E72DE9804C9A46934670B491E83800D9
:101C200007C831EA400C48BF34EA430C03D5FFF73C
:101C3000E6FDFFF780FFF0BCBDE8008C2DE9804C8D
:101C40009A46934670B491E8380007C810F0804F68
:101C500008BF13F0804F03D100F005F8FFF76BFFCA
:101C6000F0BCBDE8008C20F07F4780EA030023F041
:101C70007F4C07EB0C03A3F57C5300F00040A3F16D
:101C8000FE0392F0000F00F0B38095F0000F00F01B
:101C900077802DE901494FEA11404FEA144621EAC5
:101CA000004800FB06FC24EA064708FB06F607FB93
:101CB00008F800FB07F718EB06484CEB164C4FEA08
:101CC000124B18EB07484FEA15464CEB174022EA37
:101CD0000B4E0BFB06FC25EA06470EFB06F607FB40
:101CE0000EFE0BFB07F71EEB064E4CEB164C4FF0AF
:101CF00000061EEB074E4CEB174B18EB0B0840F1A0
:101D0000000018EB0E0B58EB000840F100008F1A92
:101D10004FF000013CBFC943661B14BFB5EB040C78
:101D200000213CBFC943F61B4FEA17444EEA8E0E12
:101D300027EA04454FEA1C4704FB07622CEA074CDC
:101D400005FB07F70CFB05F604FB0CFC16EB07463E
:101D500042EB174216EB0C4642EB1C421BEB06060D
:101D600058EB0202414146EA9E0601D5BDE80189D1
:101D7000B619524141EB0101A3F10103BDE801890C
:101D80004FEA14454FEA114724EA054621EA074C79
:101D900005FB07F406FB07F70CFB06F105FB0CFC43
:101DA00011EB074144EB17444FEA124711EB0C418A
:101DB00044EB1C4422EA074C05FB07F206FB07F73D
:101DC0000CFB06F605FB0CFC16EB074642EB174234
:101DD00016EB0C4642EB1C456A1854F1000148BF53
:101DE0007047B619524141EB0101A3F1010370475D
:101DF00095F0000F37D04FEA11424FEA144721EA1D
:101E0000024624EA074C02FB07F106FB07F70CFB2E
:101E100006F402FB0CFC14EB074441EB17414FEABC
:101E2000154714EB0C4441EB1C4125EA074C02FB1F
:101E300007F506FB07F70CFB06F602FB0CFC16EB9E
:101E4000074645EB174516EB0C4645EB1C421219AD
:101E500051F1000148BF7047B619524141EB0101F1
:101E6000A3F1010370474FEA14454FEA114724EAF2
:101E7000054621EA074C05FB07F106FB07F70CFBBB
:101E800006F24FF0000605FB0CFC12EB074241EB9B
:101E9000174112EB0C4251EB1C4148BF704792189E
:101EA00041EB0101A3F101037047000010B50448A4
:101EB00000F04AFFBDE81040024800F045BF0000B6
:101EC000980000200401002010B50146806AC26D10
:101ED00012F0500F06D0C26D12F0100F2FD000F08C
:101EE00031FF10BDC16D41F40071C16501680A6820
:101EF00012F0080F10D0CA6812F4406F04BFC9680E
:101F000011F4005F18D1C16D21F48071C165C16DFC
:101F100011F4805F10D10BE0C96811F0020F0BD1F2
:101F2000C16D21F48071C165C16D11F4805F03D171
:101F3000C16D41F00101C16500F002FF10BD406DAF
:101F4000426BBDE810400846104710B5806AC16D6D
:101F500041F04001C165016E41F00401016600F0ED
:101F6000F1FE10BD10B5806A00F0EBFE10BD70B53B
:101F700004460068816811F0010F34D181686FF365
:101F80009E1109BB816821F03F0121F0004141F021
:101F90000101816001F068FD05462068006810F0CD
:101FA000010F20D12068816811F0010F07D18168ED
:101FB00021F03F0121F0004141F00101816001F079
:101FC00053FD401B022809D9E06D40F01000E06588
:101FD000206E40F001002066012070BD206800687E
:101FE00010F0010FDED0002070BDFEE7014801F0C7
:101FF00098BA000070010020704772B6FEE7704783
:102000002DE9F00782B00023009390F858409C46D9
:102010001A46012C01BF022002B0BDE8F00770474C
:10202000012480F858404669FD4D002E1CBF0E6A01
:10203000012E02D0876EDFB129E04A68092A3BD120
:102040008A6A4FF47856002A04BF0A6806EA5242A8
:1020500007D00F6802F07C0206EA57463243CE6A88
:1020600032430668F76C3D401543F564426623E051
:10207000C0E919C68A6A002A04BF0A6A521E06D03D
:102080000E6A02F07C02761E3243CE6A32430E683C
:102090000F79C6F3846607F01F07BE403243866E91
:1020A000761E8666476E47EA0202426604D10668DB
:1020B000F76C3D402A43F2640268956815F0080FFA
:1020C0000AD191F82550B5B1D56891F8266025F46C
:1020D000401545EA4655D560026895689668C5F38F
:1020E0008005C6F3C00655EA06074FF004054FF019
:1020F00007060CD07DE091F8265091F824606D051C
:1021000045EA0655D66826F440163543E3E78F6A5C
:10211000002F1CBFCF6A002F91F8257073D0012FBC
:102120001CBFD76827F0007777D0D76091F83020B0
:10213000012A79D00268176927F0020717618A68B7
:10214000B2F1004F7DD0D1F80080076805EAD85978
:102150004F44D7F81490C8F3045806FA08FA29EA4D
:102160000A0902FA08F249EA02027A61026857692A
:1021700027F00047576102684F69D2F80C80C8F316
:10218000C1084FEA480807FA08F80F69042F72D00F
:1021900002EB8702D1F80090176EDFF888A209F0F1
:1021A000F84907EA0A0749EA080847EA080747F032
:1021B00000471766D0F800800A698F6908EB820231
:1021C000D2F8608028F0807848EA070717660F7F0A
:1021D000D0F800800A69012F0CBF4FF0007700276C
:1021E00008EB8202D2F8608028F0007848EA0707FE
:1021F00017660268976817F0010F40F07181C9E017
:1022000001E00AE010E0012FD7680EBF47F0007729
:1022100027F00077D76089D187E7C26D42F02002AE
:10222000C265012382E70CE0D1E90D27174302685C
:10223000D2F8108028F4FF7848F0020847EA08072F
:102240007CE70F68026805EAD7594A444FF0000856
:10225000D2F81490C7F3045706FA07FA29EA0A09D4
:1022600008FA07F749EA070757610268576947F014
:1022700000477FE7FFE7176E00277F037F0B7CD0C7
:10228000176E07F0F84797FAA7F7B7FA87F80F68BD
:10229000C7F31209B9F1000F0EBFC7F3846797FAAD
:1022A000A7F7B7FA87F7B84503D1176E27F00047AD
:1022B00017660268576E0027121D7F037F0B176E8B
:1022C00007F0F8470EBF4FEA976897FAA7F7B7FAF3
:1022D00087F80F68C7F31209B9F1000F0EBFC7F3F3
:1022E000846797FAA7F7B7FA87F7B84503D1176E4F
:1022F00027F0004717660268976E002708327F03B1
:102300007F0B176E07F0F8470EBF4FEA976897FAF2
:10231000A7F7B7FA87F80F68C7F31209B9F1000FEA
:102320000EBFC7F3846797FAA7F7B7FA87F7B845E0
:1023300003D1176E27F0004717660268D76E002793
:102340000C327F037F0B176E07F0F8470EBF4FEA82
:10235000976897FAA7F7B7FA87F80F68C7F31209D3
:10236000B9F1000F0EBFC7F3846797FAA7F7B7FA62
:1023700087F7B84508BF176E00E005E008BF27F0F3
:1023800000477FF436AF33E7176E07F0F8474FEAA0
:1023900097687CE791F80C800F68D2F8B090C7F38B
:1023A000120A29EA0A09DFF880A008F018082AFAB8
:1023B00008F808EA070749EA0707C2F8B070CA68D0
:1023C000A2F18047B7F5FE077ED10A68076812EAD6
:1023D0000A081ABF92FAA2F8B8FA88F8C2F3846819
:1023E00008F1010808F01F08B8F1090FC2F312083C
:1023F00032D8B8F1000F1ABF92FAA2F8B8FA88F8EA
:10240000C2F3846808F1010808F01F0804FA08F80C
:102410000EBFC2F3846492FAA2F4B4FA84F405E025
:102420000040100400F0FF03FFFF070004F1010467
:1024300004F01F0448EA84640EBFC2F3846292FA77
:10244000A2F2B2FA82F202F1010202F01F0202EBE2
:10245000420244EA025230E0B8F1000F0EBFC2F36C
:10246000846892FAA2F8B8FA88F808F1010808F02E
:102470001F0804FA08F80EBFC2F3846492FAA2F4AB
:10248000B4FA84F404F1010404F01F0448EA8464FB
:102490000EBFC2F3846292FAA2F2B2FA82F202F1A1
:1024A000010202F01F02DFF8288102EB420208EB72
:1024B000025244EA020242F0007205EAD2543C445D
:1024C000D1F80880656900E00AE0C2F3045206FA18
:1024D00002F625EA060508FA02F245EA02026261FE
:1024E0000C683C490C4267D04FF0A041D1F808136A
:1024F00004F1705501F0E072374915F55F051ABF18
:10250000364DAC4212F4000F11D0354D04F1605637
:1025100016F52E0608BF12F0807F38D004F1505611
:1025200016F5F80608BF12F4800F3BD044E00468AB
:10253000B4F1A04F40D18C6842F4000224F0E07462
:1025400022438A602749284A0968B1FBF2F101EB6E
:1025500041018900009101912ED0B1F1004F32D29A
:102560000029D8BF002105DD11F0010102D0009A39
:10257000521E0092019A491C521C91421CDA009C86
:10258000891C641E641E00949142F8DB14E0046808
:10259000AC4211D08C6842F0807224F0E074224387
:1025A0008A6009E00468AC4206D08C6842F480027C
:1025B00024F0E07422438A6080F858C002B01846C4
:1025C000BDE8F00770470099491E0091FCD1F3E780
:1025D000000020FE00000880000300501000C090A2
:1025E0000001005010000020400D03000B4810B502
:1025F0000068016811F0200F08BF10BD20210160A4
:10260000074C00202168486205F082FE04F02CFC93
:102610002068406A0349C88010BD0000980000206F
:10262000D0020020280000200068A1F580710F3939
:1026300004BFD0F884007047B1F5837F04BFD0F8A1
:1026400088007047B1F5037F14BFD0F88000D0F840
:102650008C0070477047000070B504464948806898
:1026600000F01F052068816811F0080F21D1C168B2
:10267000C06C01F0004110F4C07F08BF002912D0E7
:1026800094F85800012814D0012084F858002046FE
:10269000FFF76DFC01004FF0000218BF84F85820CE
:1026A00009D0084670BDE06D40F02000E0650120D3
:1026B00070BD022070BDE06D10F4807F08BF2266FF
:1026C00003D0206E20F008002066E06D20F00100AD
:1026D00020F4005040F48050E0652B4B2068984275
:1026E0000CBF4FF0A04C8446844518BF002D05D187
:1026F000D4F85CC02CF4801CC4F85CC04FF0600CB3
:10270000C0F800C084F858202068C26812F4001F86
:1027100003D0426842F480624260A06908282068C1
:10272000426807D022F0400242602068426842F0CE
:10273000200206E022F0200242602068426842F057
:1027400040024260206898420CBF4FF0A04202460F
:10275000824218BF002D08D0062D18BF072D04D0C7
:10276000E06D40F48010E0659BE7C26812F0007FE6
:1027700097D1826822F03F0222F0004242F0080224
:1027800082608EE7000300500001005070477047E0
:1027900090F858204FF0000C012A04BF0220704727
:1027A00070B49BB0012280F8582002680024B2F176
:1027B000A04F0AD0C16D41F02001C16580F858409A
:1027C0001BB04FF0010070BC7047274B00939B6813
:1027D0009268C3F3800312F0040F08BF002B0BD0E4
:1027E000C16D41F02001C1654FF0010C80F85840E7
:1027F0001BB0604670BC70471C4A0D684FF0A04388
:10280000FDB1956890F8386025F4604545EA463595
:102810004E6845EA060595609D68D3F8083145EA9B
:10282000030313F0010FE1D10B68896843EA01014A
:10283000936823F01F0323F4706341EA030191605E
:10284000D4E7916821F4604191609968D3F8083128
:1028500041EA030111F0010F02BF916821F01F014D
:1028600021F47061C2D1EAE700010050000300507A
:102870002DE9F00785B00023019390F858209C467D
:10288000012A01BF022005B0BDE8F007704701240E
:1028900080F858400268956815F0040F0BD0C16DA0
:1028A00041F02001C165012380F858C005B01846E9
:1028B000BDE8F0077047D1E900650C2707EA9517D6
:1028C0003A44176B05F01F054FF01F0808FA05F88A
:1028D000C6F3846627EA080706FA05F53D43156343
:1028E000026895689668C5F38005C6F3C00655EA88
:1028F00006074FF004054FF0070658D18F68B7F16F
:10290000004F5BD0D1F8008005EAD8594A44D2F88C
:102910001490C8F3045806FA08FA29EA0A0907FAD3
:1029200008F749EA070757610268576927F0004727
:10293000576102684F69D2F80C80C8F3C1084FEAAA
:10294000480807FA08F80F69042F4FD002EB8702F6
:10295000D1F80090176EDFF8C4A309F0F84907EA30
:102960000A0749EA080847EA080747F000471766D8
:10297000D0F800800A698F6908EB8202D2F8608083
:1029800028F0807848EA070717660F7F0268D1F8B9
:102990001080012F0CBF4FF00077002702EB880258
:1029A000D2F8608028F0007848EA070717660268C6
:1029B000976817F0010F40F039819FE00F684FF0E2
:1029C000000805EAD7594A44D2F81490C7F30457CF
:1029D00006FA07FA29EA0A0908FA07F749EA07078F
:1029E00057610268576947F00047A1E7176E002753
:1029F0007F037F0B176E07F0F8471ABF97FAA7F708
:102A0000B7FA87F84FEA97680F68C7F31209B9F168
:102A1000000F0EBFC7F3846797FAA7F7B7FA87F7D7
:102A2000B84503D1176E27F0004717660268576E46
:102A30000027121D7F037F0B176E07F0F8470EBFAC
:102A40004FEA976897FAA7F7B7FA87F80F68C7F3BE
:102A50001209B9F1000F0EBFC7F3846797FAA7F701
:102A6000B7FA87F7B84503D1176E27F00047176606
:102A70000268976E002708327F037F0B176E07F0FE
:102A8000F8470EBF4FEA976897FAA7F7B7FA87F8A3
:102A90000F68C7F31209B9F1000F0EBFC7F38467BF
:102AA00097FAA7F7B7FA87F7B84503D1176E27F05B
:102AB000004717660268D76E00270C327F037F0B32
:102AC000176E07F0F8470EBF4FEA976897FAA7F717
:102AD000B7FA87F80F68C7F31209B9F1000F0EBFF4
:102AE000C7F3846797FAA7F7B7FA87F7B84504BF23
:102AF000176E27F000477FF45AAF57E791F80C8024
:102B00000F68D2F8B090C7F3120A29EA0A09DFF871
:102B100010A208F018082AFA08F808EA070749EA94
:102B20000707C2F8B070CA68A2F18047B7F5FE0780
:102B30007CD10A68D0F8008012EA0A071ABF92FA1C
:102B4000A2F7B7FA87F7C2F384677F1C07F01F0765
:102B5000092FC2F312072AD8002F1ABF92FAA2F740
:102B6000B7FA87F7C2F3846707F1010707F01F0779
:102B700004FA07F70EBFC2F3846492FAA2F4B4FA1F
:102B800084F404F1010404F01F0447EA84640EBFD6
:102B9000C2F3846292FAA2F2B2FA82F202F1010264
:102BA00002F01F0202EB420244EA02522EE0002F22
:102BB0000EBFC2F3846792FAA2F7B7FA87F707F15C
:102BC000010707F01F0704FA07F70EBFC2F384647A
:102BD00092FAA2F4B4FA84F404F1010404F01F049C
:102BE00047EA84640EBFC2F3846292FAA2F2B2FA98
:102BF00082F202F1010202F01F024A4F02EB42028E
:102C000007EB025244EA020242F0007205EAD25493
:102C100044448F686569C2F3045206FA02F625EA55
:102C2000060507FA02F245EA020262610C683E49B3
:102C30000C423FF439AE4FF0A041D1F8081304F133
:102C4000705501F0E072394915F55F051ABF384D2E
:102C5000AC4212F4000F1DD0364D04F1605616F54B
:102C60002E0608BF12F0807F47D004F1505616F5AB
:102C7000F80608BF12F4800F7FF416AE0468AC4269
:102C80003FF412AE8C6842F4800224F0E0742243D8
:102C90008A6009E60468B4F1A04F7FF405AE8C6841
:102CA00042F4000224F0E07422438A602249234A5D
:102CB0000968B1FBF2F101EB41018900019100913A
:102CC0003FF4F2ADB1F1004F23D20029D8BF00216B
:102CD00005DD11F0010102D0019A521E0192009A05
:102CE000491C521C9142BFF6DFAD019C891C641E39
:102CF000641E01949142F8DBD6E50468AC423FF4CF
:102D0000D3AD8C6842F0807224F0E07422438A6074
:102D1000CAE50199491E0191FCD1C5E500F0FF0308
:102D2000FFFF0700000020FE0000088000030050A5
:102D30001000C0900001005010000020400D030062
:102D400070477047704700002DE9F0410446006865
:102D500006684568A548806816F0020F00F01F0756
:102D600018BF15F0020F0DD0E06D10F0100F03D159
:102D7000E06D40F40060E0652046FFF740F921680F
:102D800002200860DFF8688216F0040F18BF15F003
:102D9000040F04D0E06D10F0100F0BD106E016F018
:102DA000080F18BF15F0080FF4D136E0E06D40F4BD
:102DB0000070E0652068C16811F4406F27D140457C
:102DC00014BF01464FF0A041814218BF002F0AD026
:102DD000052F18BF092F06D040450CBF4FF0A0416A
:102DE0000146C96800E0C16811F4005F0FD10168B5
:102DF00011F0080F0BD0816811F0040F18D0E06DAE
:102E000040F01000E065206E40F001002066204692
:102E1000FFF796FF21680C20086016F0200F18BFFE
:102E200015F0200F15D0E06D10F0100F1CD117E039
:102E3000416821F00C014160E06D20F48070E06594
:102E4000E06D10F4805FE2D1E06D40F00100E065DC
:102E5000DDE716F0400F18BF15F0400FE3D146E054
:102E6000E06D40F40050E0652068C16C11F4C07F53
:102E70000CBF01230023C16811F4406F0CBF012275
:102E8000002240450CBF4FF0A0410146814218BFCF
:102E9000002F0AD0062F18BF072F06D040450CBFC1
:102EA0004FF0A0410146C96800E0C16833B911F094
:102EB000007F16D1AAB111F4005F12D1026812F09E
:102EC000400F0ED011F4001F0BD1816811F0080FD4
:102ED00050D0E06D40F01000E065206E40F0010041
:102EE00020662046FFF782FB21686020086016F00C
:102EF000800F18BF15F0800F09D0E06D40F48030CE
:102F0000E065204600F094F921688020086016F4FE
:102F1000807F18BF15F4807F0AD0E06D40F4003048
:102F2000E0652046FFF732FC21684FF480700860AE
:102F300016F4007F18BF15F4007F0AD0E06D40F44E
:102F40008020E0652046FFF722FC21684FF40070E6
:102F5000086016F0100F18BF15F0100F2ED0E06BA0
:102F6000F0B1C7B14FF0A040D0F8080310F4604FA3
:102F700021D015E0416821F060014160E06D20F44E
:102F80008050E065E06D10F4807FAAD1E06D40F0E4
:102F90000100E065A5E72068C06810F0010F0AD0C5
:102FA000E06D40F48060E065206E40F00200206635
:102FB0002046FFF7C7FE21681020086016F4806FD6
:102FC00014BF15F4806FBDE8F081E06D40F48040DF
:102FD000E065206E40F00800206621684FF48060B4
:102FE00008602046BDE8F041FFF734BB0003005005
:102FF0000001005070B584B04FF0000504002E466B
:10300000029502BF012004B070BDE06D28B92046D2
:1030100000F010F9266684F8586020688168C1F3D2
:10302000407129B1816821F03F0121F02041816088
:1030300020688168C1F3007149BB816821F03F01BC
:1030400021F0004141F0805181607448744900686A
:10305000B0FBF1F002900090C8B1B0F1004F80F0E9
:10306000D7800028D8BF002005DD10F0010002D075
:103070000299491E02910099401C491C884206DAB7
:10308000029A801C521E521E02928842F8DB20686F
:103090008168C1F3007141B9E16D41F01001E16552
:1030A000216E41F00101216601258168E26DC1F3C5
:1030B000800112F0100F08BF002908D0E06D40F029
:1030C0001000E0654FF0010504B0284670BDE16DC9
:1030D00021F4807141F00201E165806810F0010F78
:1030E00011D14FF0A0408168D0F8080141EA0000FA
:1030F00010F0010F07D14B486168826822F47C12FE
:1031000042EA01018160E168E06B627F40EA010010
:10311000A16841EA423140EA010094F8241040EAF3
:103120000140012904D1218D3F4A02EB414108436E
:10313000E16A21B101F47871226B084310432168E0
:10314000CA683A4B1A401043C86020680169626B34
:1031500021F0406111430161206881688268C1F3F8
:103160008001C2F3C00211432FD1217F94F838208F
:10317000890341EA4201C26822F0020222F480423D
:103180001143C16020690028206801690AD041F418
:10319000803101612068D0F8C01022696FF30D0101
:1031A000114307E021F4803101612068D0F8C0109C
:1031B0006FF30D01C0F8C01094F8400001280CD046
:1031C0002068016921F0010101616069012820681E
:1031D000016B21F00F0113D10FE0D4E91101084375
:1031E000D4E91312114340EA0102206801696FF328
:1031F0008A01114341F00101E6E7226A521E1143A0
:103200000163E06D20F0020040F00100E0655BE743
:103210000298401E0290FCD139E700001000002007
:10322000400D0300000300500000FEFF0740F0FFC8
:103230007047000070B586B000254D4B0095019594
:103240000295039504951968064600684A1C0324F4
:103250004849B0F1A04F0AD0A0F1A04CBCF5807C49
:103260001CBF06B070BD1A60012A57D14EE01A602B
:10327000012A07D1C86C40F40050C864C86C00F43F
:1032800000500590C86C40F00100C864C86C00F0A4
:1032900001000590C86C40F00200C864C86C694623
:1032A00000F0020005900120CDE900044FF09040AD
:1032B00000F0B4FA4FF4B040CDE90004694602953D
:1032C0002D4800F0ABFA2E4C2C4820600520C4E9B4
:1032D00001058020C4E90350400060618000C4E91A
:1032E000060580002062204600F08AF9002818BFF9
:1032F000FEF783FE7465002211461220A66200F0DC
:103300001BFC122000F008FC06B070BDC86C40F435
:103310000050C864C86C00F400500590C86C40F0C0
:103320000100C864C86C00F001000590C86C40F052
:103330000400C864C86C102600F004000590CDE9B4
:10334000006469464FF0904000F068FA00966946C4
:103350000C48CDE9014500F061FA00221146122027
:1033600000F0EAFB122000F0D7FB06B070BD0000B1
:103370000000002000100240000400480800024045
:1033800070010020000800482DE9F04104463C4847
:1033900017468846806800F01F052068806810F096
:1033A000040F6AD194F85800012866D00120002645
:1033B00084F85800002D18BF052D06D0092D1EBF1A
:1033C000012084F85860BDE8F0812046FEF7CFFD6B
:1033D00000281CBF84F85860BDE8F081E06D20F043
:1033E000010020F4606040F48070E0652068A0F186
:1033F000A041B1F580710CBF4FF0A0410146814260
:1034000018BF002D03D1E06D20F48010E065E06D61
:1034100010F4805F08BF266603D0206E20F00600FF
:103420002066616D1748C862616D17480863616D59
:103430001648486321684FF01C00086084F8586003
:103440002068416841F0100141602068C16841F086
:103450000101C16020683B4600F140014246606DB9
:1034600000F062F921688A6822F03F0222F00042EF
:1034700042F004028A60BDE8F0810220BDE8F081DC
:1034800000030050C91E0008651F00084B1F0008FC
:1034900010B590F82520002401212346022A07D0E8
:1034A0000422C26380F8251080F82430012436E01D
:1034B0000268D2F800C02CF00E0CC2F800C00268FE
:1034C000D2F800C02CF0010CC2F800C0826CD2F817
:1034D00000C02CF4807CC2F800C090F84420D0F8E2
:1034E00040C002F01F0201FA02F2CCF80420D0E939
:1034F000132CC2F804C0426D4AB1D2F800C02CF4BB
:10350000807CC2F800C0D0E9162CC2F804C080F854
:10351000251080F82430816B002918BF8847204689
:1035200010BDF0B4016CD1F800C001680B6890F8D0
:10353000442002F01F04042202FA04F515EA0C0FDD
:1035400018BF13F0040F14D00B6813F0200F03D131
:103550000B6823F004030B6090F8441001F01F0186
:1035600002FA01F1026C5160016B002946D1F0BCF6
:103570007047022606FA04F212EA0C0F4FF000051B
:103580004FF0010218BF13F0020F17D00B6813F0B1
:10359000200F05D10B6823F00A030B6080F825206B
:1035A00090F84410026C01F01F0106FA01F151601D
:1035B00080F82450C16A09BBF0BC7047082606FA9F
:1035C00004F414EA0C0F12BF13F0080FF0BC70479C
:1035D0000B6823F00E030B6090F84410036C01F0AD
:1035E0001F0102FA01F15960C26380F8252080F8BA
:1035F0002450416B002904BFF0BC7047F0BC084761
:1036000070B4002802BF012070BC7047DFF8ECC026
:1036100001683B4A614508D23A4B0B44A2FB034385
:103620001B099B004364384B07E0384B0B44A2FB5B
:1036300003431B099B004364354B0364022380F85A
:1036400025300B68D0E902452C43D0E904563543B8
:103650002C4385696FF30E132C43C5692C43056A0F
:103660002C4323430B600368634534BF29492A492F
:10367000DBB2083BA2FB0332436C23F003030B4491
:103680002649C0E91231C2F30411012202FA01F104
:103690000165D0F808C00021BCF5804F08BF41602B
:1036A00090F804C0C3F800C0D0E9133CC3F804C0CC
:1036B0004368A3F1010CBCF1030F14D8DFF860C01C
:1036C000DBB20CEB830C5B1E03F01F03154C02FAFC
:1036D00003F3C365C0E915C4CCF80010D0E9163C6B
:1036E000C3F804C002E041658165C165C16380F82B
:1036F000252080F8241070BC002070470804024088
:10370000CDCCCCCCF8FFFDBF00000240F8FBFDBFE4
:1037100000040240000802402008024080080240E5
:10372000FC0802404009024070B490F824404FF079
:10373000000C012C02BF022070BC7047012480F8ED
:10374000244090F825600025012E1CBF80F82450ED
:103750004FF0020C02D070BC60467047022680F821
:103760002560C56305682E6826F001062E60D0E945
:1037700013566E60456D002D1CBFD0E916566E6065
:1037800090F8445005F01F05AC40056C6C6004686F
:1037900063608368102B036803BF9A600268D1607E
:1037A00099601CBF0168CA60016B002901680A6842
:1037B00018BF42F00E0206D122F004020A6001682E
:1037C0000A6842F00A020A60816C0A6812F4803FBB
:1037D00003D00A6842F480720A60416D19B10A6828
:1037E00042F480720A600068016841F001010160E2
:1037F000B1E7000070B5044600F036F90546B4F1B3
:10380000FF3F02D004484068044400F02DF9401BFB
:10381000A042FAD370BD0000040000200B68002213
:10382000002B08BF70472DE9F84F01260325864C71
:103830000F2700BF0B6806FA02F813EA080300F02E
:10384000FC80D1F804C0BCF1010F18BFBCF1020F1D
:1038500005D0BCF1110F18BFBCF1120F1DD1D0F86B
:1038600008904FEA420C05FA0CFA29EA0A09D1F845
:103870000CA00AFA0CFC4CEA090CC0F808C0D0F8FD
:1038800004C02CEA080C91F80480C8F3001808FA68
:1038900002F848EA0C0CC0F804C0D0F80C904FEACB
:1038A000420CD1F808A005FA0CF829EA08090AFA2E
:1038B0000CFA4AEA0909C0F80C90D1F80490B9F161
:1038C000020F18BFB9F1120F15D14FEAD20900EB60
:1038D000890ADAF820B04FEA42794FEAD96907FA43
:1038E00009FE2BEA0E0BD1F810E00EFA09F949EAAD
:1038F0000B09CAF82090D0F8009029EA080891F83E
:10390000049009F0030909FA0CFC4CEA080CC0F811
:1039100000C0D1F804C01CF0805F7CD0D4F860C037
:103920004CF0010CC4F860C0D4F860C00CF0010C7D
:10393000CDF800C022F0030C0CF1804C0CF5803C5B
:10394000DCF808804FEA82794FEA197907FA09FA18
:1039500028EA0A08B0F1904F08BF4FF0000A28D0BB
:10396000A0F1904ABAF5806A08BF4FF0010A20D052
:10397000A0F1904ABAF5006A08BF4FF0020A18D0C9
:10398000A0F1904ABAF5406A08BF4FF0030A10D080
:10399000A0F1904ABAF5805A08BF4FF0040A08D047
:1039A000A0F1904ABAF5A05A0CBF4FF0050A4FF0AB
:1039B000060A0AFA09F949EA0808CCF80880DFF88B
:1039C0008C80D8F800C0D1F804902CEA030C19F4CC
:1039D000803F18BF4CEA030CC8F800C0DFF87080C5
:1039E000D8F800C0D1F804902CEA030C19F4003F79
:1039F00018BF4CEA030CC8F800C0DFF85880D8F8AC
:103A000000C0D1F804902CEA030C19F4801F18BFF1
:103A10004CEA030C00E010E0C8F800C0DFF8388082
:103A2000D8F800C0D1F804902CEA030C19F4001F58
:103A300018BF4CEA030CC8F800C00B68521CD340F6
:103A40007FF4F8AEBDE8F88F00100240000401409A
:103A500004040140080401400C040140002A14BF82
:103A600081618162704700000148806870470000F2
:103A70000400002002488168426811448160704758
:103A80000400002010B50024032000F087F8002077
:103A900000F008F8002814BF012400F025F82046A3
:103AA00010BD000070B50E4E05460024706898B138
:103AB0004FF47A71B1FBF0F00A490968B1FBF0F0FC
:103AC00000F008FF40B9102D06D200222946501EF2
:103AD00000F032F8356000E00124204670BD00009F
:103AE00004000020100000200A4882B0016E41F05E
:103AF00001010166016E01F001010091816D41F04B
:103B000080518165806D00F08050009002B000F01F
:103B100097B90000001002400028B8BF704700F0BD
:103B20001F01012202FA01F14009800000F1E020AA
:103B3000C0F8001170470000174B10B41B68C3F3A6
:103B40000223C3F1070CBCF1040F88BF4FF0040C33
:103B50001C1D072C34BF0023DB1E012404FA0CFCBF
:103B6000ACF1010C0CEA0101994004FA03F35B1E6D
:103B70001A40114300284FEA0111A1BF00F1E020D3
:103B800080F8001410BC704700F00F0000F1E02036
:103B900080F8141D10BC70470CED00E0074900F0E0
:103BA00007000A684FF6FF031A4042EA002040F07F
:103BB000FD7040F080600860704700000CED00E090
:103BC00038B504004FF000051FBF94F83A000528EF
:103BD00094F83A00022804BF012038BD3148016E34
:103BE00041F001010166006E00F00100009094F8C0
:103BF0003A00002804BF002084F83900204600F075
:103C000055F8A1682848402918BF602921680A682A
:103C1000E36A22F0100242EA03020A60D4E90112C8
:103C200041EA020122D0D4E9032342EA030241EA35
:103C30000201227D012A0CBF4FF480720022114341
:103C4000626A1143A26A1143228E41EAC24194F88A
:103C5000342041EA026221680B6818401043086072
:103C60002068816911F0004F13D108E0237D22699B
:103C7000012B0CBF4FF4807300231A43DFE7D4E914
:103C800006121143226A836923F03F031A4311434A
:103C9000816194F83A00002804BF012084F83A00BA
:103CA000284638BD00100240113E00E000B587B044
:103CB0000021009101910291039104911F4B026830
:103CC0001F4803219A420ED1C26C42F00102C26425
:103CD000C06C00F0010005900A20CDE900016946A2
:103CE0004FF0904026E0174B9A4211D1C26C42F03F
:103CF0000102C264C06C00F001000590A020CDE973
:103D0000000169464FF09040FFF788FD07B000BD05
:103D10000D4B9A421CBF07B000BDC26C42F00202BC
:103D2000C264C06C00F0020005900520CDE90001DE
:103D300069460648FFF772FD07B000BD0003014069
:103D40000010024004030140080301400004004841
:103D5000002100281CBF90F83A20052A03D090F8D3
:103D60003A20012A02D001210846704702681368F0
:103D700043F001031360042280F83A20F4E70000C6
:103D80002C4932222C4B09684A432C4950B1B0F5DA
:103D9000007F08682BD020F4C06040F48060086089
:103DA00000207047086800F4C060B0F5806FD1F85B
:103DB000800020F4807002D0C1F88000F0E7C1F8E4
:103DC0008000086820F4C06040F400700860B2FB16
:103DD000F3F000F101004A6912F4806F1CBF002863
:103DE000401EF8D1486910F4806F20D1D8E700F464
:103DF000C060B0F5806FD1F8800040F48070DBD1F6
:103E0000C1F88000086820F4C06040F400700860C9
:103E1000B2FBF3F000F101004A6912F4806F1CBF9D
:103E20000028401EF8D1486910F4806FB8D04FF0D8
:103E3000030070471000002040420F000070004057
:103E40000248816841F48041816070470070004001
:103E50002DE9F843044600680027AC4D10F4002F0C
:103E60006DD0A86D4FF0000810F0805F09D1A86DEB
:103E700040F08050A865A86D4FF0010800F0805018
:103E80000090DFF88C92D9F8000040F48070C9F8F7
:103E90000000FFF7E9FD0646D9F8000010F4807F26
:103EA0000AD100BFFFF7E0FD801B022831D8D9F806
:103EB000000010F4807FF5D0D5F8900010F4407029
:103EC0001CBF216C814211D0D5F89000D5F890101C
:103ED00020F4407041F48031C5F89010D5F890106E
:103EE00021F48031C5F89010C5F8900010F0010F52
:103EF00016D0FFF7B9FD0646D5F8900010F0020F76
:103F000008BF41F288390BD1FFF7AEFD801B484551
:103F100001D903270CE0D5F8900010F0020FF3D080
:103F2000D5F89000216C20F440700843C5F890004B
:103F3000B8F1000F03D0A86D20F08050A86520785C
:103F400010F0010F07D0D5F88800616820F0030059
:103F50000843C5F88800207810F0020F07D0D5F884
:103F60008800A16820F00C000843C5F8880020787C
:103F700010F0040F07D0D5F88800E16820F0300079
:103F80000843C5F88800207810F0080F07D0D5F84E
:103F90008800216920F0C0000843C5F88800207817
:103FA00010F0200F07D0D5F88800616920F4406038
:103FB0000843C5F88800207810F0400F07D0D5F8E6
:103FC0008800A16920F440500843C5F88800207893
:103FD00010F0800F07D0D5F88800E16920F4404048
:103FE0000843C5F88800208810F4807F07D0D5F8F2
:103FF0008800216A20F440300843C5F888002088F2
:1040000010F4007F07D0D5F88800616A20F44020C2
:104010000843C5F88800208810F4806F0FD0D5F8C9
:104020008800A16A20F440100843C5F88800A06AFF
:10403000B0F5801F03D1E86840F48010E860208864
:1040400010F4006F0FD0D5F88800E16A20F440002A
:104050000843C5F88800E06AB0F5800F03D1E8682E
:1040600040F48010E860208810F4805F0FD0D5F80D
:104070008800216B20F040700843C5F88800206B51
:10408000B0F1807F03D1E86840F48010E8602088B8
:1040900010F4005F0FD0D5F88800616B20F040600D
:1040A0000843C5F88800606BB0F1006F03D1E86881
:1040B00040F48010E860208810F4804F0FD0D5F8CD
:1040C0008800A16B20F040600843C5F88800A06B11
:1040D000B0F1006F03D1E86840F48010E8602088F8
:1040E00010F4004F0FD0D5F88800E16B20F040505D
:1040F0000843C5F88800E06BB0F1805F03D1E86841
:1041000040F48030E8603846BDE8F8830010024093
:1041100000700040704700002DE9F0470E46050092
:104120004FF000087ED0764F386800F00F008642CE
:1041300009D9386820F00F0030433860386800F043
:104140000F00B0426ED129686E4C11F0010F41F2A0
:10415000883A66D06868DFF8B091032806D0022854
:10416000206832D010F4806F5CD031E0206810F00D
:10417000007F57D0E06800F00302E068C0F303104E
:10418000401C032A19D0614AB2FBF0F0E268C2F386
:1041900006225043E268C2F34162521C5200B0FB57
:1041A000F2F0484520D9A06810F0F00F14D011F0BB
:1041B000020F19D0A86878B116E0554AB2FBF0F0AA
:1041C000E268C2F306225043E4E710F4003F60D0F7
:1041D00000F0D2F8484507D9A06820F0F00040F080
:1041E0008000A0604FF08008A068696820F003009C
:1041F0000843A060FFF738FC8146A068696800F0BA
:104200000C00B0EB810F0CD0FFF72EFCA0EB0900E7
:1042100050453BD8A068696800F00C00B0EB810FF6
:10422000F2D100E035E0286810F0020F34D010F031
:10423000040F03D0A06840F4E060A060287810F07C
:10424000080F05D0A06820F4605040F4E060A06042
:10425000A068A96820F0F0000843A060386800F06A
:104260000F00B04225D9386820F00F003043386085
:10427000FFF7FAFB8046386800F00F00B04218D014
:10428000FFF7F2FBA0EB080050450DD90320BDE875
:10429000F0870120BDE8F087B8F1800F04BFA06867
:1042A00020F0F000DAD1D8E7386800F00F00B04213
:1042B000E6D1287810F0040F05D0A068E96820F452
:1042C000E0600843A060287810F0080F06D0A068CE
:1042D000296920F4605040EAC100A06000F04CF869
:1042E000A1680C4AC1F30311515C01F01F01C840E1
:1042F0000949086009480068BDE8F047FFF7D2BBEC
:10430000002002400010024000B4C4040024F40065
:1043100000127A00DEC70008100000200400002010
:104320000248016841F4002101607047001002401A
:104330000548064900688968054AC1F30221515CB5
:1043400001F01F01C840704710000020001002401B
:10435000EEC700080548064900688968054AC1F3A8
:10436000C221515C01F01F01C840704710000020BD
:1043700000100240EEC700081849886800F00C02DF
:104380001748042A08BF70478A6802F00C03154AD0
:10439000082B04BF104670478B684FF00C0C3CEAAA
:1043A00003031CBF00207047CB6803F0030CCB68ED
:1043B000C3F303135B1CBCF1030F14BFB0FBF3F09A
:1043C000B2FBF3F0CA68C968C2F306225043C1F3D6
:1043D0004161491C4900B0FBF1F0704700100240F8
:1043E0000024F40000127A0010B5064CE06910F4C5
:1043F000807F08BF10BDFFF78DFE4FF480702062F4
:1044000010BD000000100240002804BF01207047CA
:104410002DE9F84305460078FF4F10F0010F55D005
:10442000B868F96800F00C0001F003010C2802D014
:10443000082820D001E003291DD06868B0F5803F2E
:1044400022D0B0F5A02F38680CBF40F4802020F4B3
:104450008030386038680CBF40F4803020F4802011
:104460003860686800B3FFF7FFFA0446386810F454
:10447000003F0ED02AE0386810F4003F26D068686C
:10448000002800F0208221E0386840F48030386055
:10449000E7E7FFF7E9FA001B642800F28481386837
:1044A00010F4003FF5D011E0FFF7DEFA044638685B
:1044B00010F4003F0AD000BFFFF7D6FA001B6428B3
:1044C00000F27181386810F4003FF5D1287810F0BF
:1044D000020F58D0B86800F00C01F8680C2900F001
:1044E000030002D0042911D001E002280ED0E868B0
:1044F0000028386833D040F480703860FFF7B4FA91
:104500000446386810F4806F17D020E0386810F443
:10451000806F03D0E868002800F0D5817868297C96
:1045200020F0FE4040EA01607860BC480068FFF778
:10453000B9FA002840F0C78125E0FFF795FA001B83
:10454000022800F23081386810F4806FF5D0786866
:10455000297C20F0FE4040EA0160786013E020F4FE
:1045600080703860FFF780FA0446386810F4806F76
:1045700009D000BFFFF778FA001B02287ED8386800
:1045800010F4806FF6D1287810F0080F32D06869E7
:104590000028D7F8940016D040F00100C7F8940026
:1045A000FFF762FA0446D7F8940010F0020F21D109
:1045B000FFF75AFA001B022860D8D7F8940010F0D1
:1045C000020FF5D016E020F00100C7F89400FFF7C5
:1045D0004BFA0446D7F8940010F0020F0AD000BF3F
:1045E000FFF742FA001B022848D8D7F8940010F0D1
:1045F000020FF5D1287810F0040F78D0B86D4FF085
:10460000000810F0805F09D1B86D40F08050B865A7
:10461000B86D4FF0010800F080500090804E306877
:1046200010F4807F13D1306840F480703060FFF761
:104630001BFA0446306810F4807F08D1FFF714FAA3
:10464000001B02281AD8306810F4807FF6D0A868C2
:10465000012821D00528D7F890000CBF40F00400B5
:1046600020F00100C7F89000D7F890000CBF40F090
:10467000010020F00400C7F8900000E093E0A86873
:1046800041F28836D0B1FFF7EFF90446D7F8900031
:1046900010F0020F07D023E0D7F8900040F001009F
:1046A000C7F89000E9E7FFF7DFF9001BB0427AD8BE
:1046B000D7F8900010F0020FF5D011E0FFF7D4F911
:1046C0000446D7F8900010F0020F09D0FFF7CCF99C
:1046D000001BB04267D8D7F8900010F0020FF5D158
:1046E000B8F1000F03D0B86D20F08050B86528787D
:1046F00010F0200F32D0A8690028D7F8980016D003
:1047000040F00100C7F89800FFF7AEF90446D7F86B
:10471000980010F0020F21D1FFF7A6F9001B022824
:1047200041D8D7F8980010F0020FF5D016E020F02D
:104730000100C7F89800FFF797F90446D7F89800EA
:1047400010F0020F0AD000BFFFF78EF9001B0228FD
:1047500029D8D7F8980010F0020FF5D1E869E8B32E
:10476000B9683C460C2232EA01017BD0022820685D
:1047700020F08070206019D0E06820F00300E06035
:10478000E06820F4881020F08070E060FFF76CF99A
:104790000546206810F0007F20D000BFFFF764F9C5
:1047A000401B022859D90320BDE8F883FFF75CF9C4
:1047B0000646206810F0007F09D000BFFFF754F9CB
:1047C000801B0228EFD8206810F0007FF6D1D5E9D1
:1047D00008016FF00F0202EB011100E076E00843E0
:1047E000298E5204490802EB4151AA6A41EA02218A
:1047F000084395F834104FF07E42490802EB4161BE
:10480000084395F82C1040EAC160E168054A114060
:104810000843E060206807E0001002400400002028
:10482000007000400C809F0140F080702060E068C4
:1048300040F08070E060FFF717F90546206810F03F
:10484000007F43D1FFF710F9401B0228ABD8206846
:1048500010F0007FF6D039E004E0206810F0007F0F
:104860009CD133E0012808BFBDE8F883E0682A6ADC
:1048700000F00301914226D1696A00F0F0020901BB
:10488000103991421FD1AA6A00F4FE41B1EB022F08
:1048900019D195F82C2000F07841B1EBC26F12D1FC
:1048A000298E00F4C00249084905A1F50011914282
:1048B00009D195F8341000F0C06049084906A1F10B
:1048C0000071814202D00120BDE8F8830020BDE8DC
:1048D000F8830000411EB1F1807F24BF01207047A2
:1048E0004FF0E0204161054AF02182F8141D0021BB
:1048F0008161072101610020704700000FE000E0A6
:10490000704770477047000090F83C20012A04BFB0
:104910000220704730B4012280F83C20CA688B68BE
:1049200022F440721A434B6822F480621A430B68E7
:1049300022F400621A430B6922F480521A434B6935
:1049400022F400521A430B6B22F480421A430B8B61
:1049500022F4702242EA0342DFF860C00368184C78
:10496000634518BFA34204D1CD6922F0805242EAC8
:104970000502634518BFA34217D10D8D22F47002C2
:1049800042EA05520D6A22F0807242EA05024D6A3F
:1049900022F0007242EA0502634518BFA34204D127
:1049A000C96A22F0005242EA01025A644FF0000143
:1049B00080F83C1030BC084670470000002C0140D5
:1049C0000034014070470068416D41F40031416599
:1049D000002070477047704790F83C20012A04BFC0
:1049E00002207047F0B44FF0010C80F83CC0022266
:1049F00080F83D200268536894681B4D1B4EAA4204
:104A000018BFB24204D14F6823F4700347EA03038E
:104A100023F070030F6823F0007347EA0303536029
:104A20000268AA4218BFB2F1804F10D0A2F18043B1
:104A3000B3F580631CBFA2F18043B3F5006306D0D9
:104A4000B2421CBFA2F18043B3F5A03304D1896800
:104A500024F080031943916080F83DC0002180F864
:104A60003C10F0BC08467047002C01400034014067
:104A7000022361B1042944D008294AD090F8472084
:104A8000012A08BF80F8473008D00120704790F80D
:104A90004420012A08BF80F84430F6D101F01F03FA
:104AA000026804219940136A8B431362136A194305
:104AB000116201684A6C42F400424A640068A0F145
:104AC0008041B1F5963118BFB0F1804F29D0A0F1E7
:104AD0008041B1F580611CBFA0F18041B1F500615A
:104AE0001FD0A0F18041B1F59A311CBFA0F18041E7
:104AF000B1F5A03115D0016841F00101016000203D
:104B0000704790F84520012A08BF80F84530BCD195
:104B1000C4E790F84620012A08BF80F84630B4D197
:104B2000BCE78168034A1140062918BFB1F5803FF0
:104B3000E5D0E0E70700010030B40268002301F08F
:104B40001F0C0424156A04FA0CF425EA0404146208
:104B5000146A03FA0CF3234313620268D2F820C0EC
:104B600041F211131CEA030F44F2444C04BF146ACF
:104B700014EA0C0F03D1546C24F40044546402680A
:104B8000146A1C4204BF136A13EA0C0F03D11368A2
:104B900023F0010313600122002908BF80F844209C
:104BA0000AD0042908BF80F8452005D008290CBF89
:104BB00080F8462080F84720002030BC70477047BE
:104BC000002804BF0120704710B5044690F83D004E
:104BD00028B9002084F83C00204600F023F8022089
:104BE00084F83D00211D206801F0F6FC012084F8C6
:104BF000480084F83E0084F83F0084F8400084F8C0
:104C0000410084F8420084F8430084F8440084F8AA
:104C1000450084F8460084F8470084F83D000020F1
:104C200010BD000008B501681348A1F18042B2F53B
:104C300096320ED0A1F18042B2F5A23218BF08BD63
:104C4000016E41F400310166006E00F40030009006
:104C500008BD016E41F400610166006E002200F49F
:104C60000060009011461820FEF766FFBDE808407E
:104C70001820FEF751BF00000010024090F83D10D0
:104C800001291CBF01207047022180F83D100068F7
:104C9000A0F18041B1F5963118BFB0F1804F19D025
:104CA000A0F18041B1F580611CBFA0F18041B1F558
:104CB00000610FD0A0F18041B1F59A311CBFA0F185
:104CC0008041B1F5A03105D0016841F001010160DA
:104CD000002070478168044A1140062918BFB1F5C9
:104CE000803FF5D0F0E700000700010090F83D108C
:104CF00001291CBF01207047022180F83D10016886
:104D0000CA6842F00102CA600068A0F18041B1F5B2
:104D1000963118BFB0F1804F19D0A0F18041B1F5A4
:104D200080611CBFA0F18041B1F500610FD0A0F1FE
:104D30008041B1F59A311CBFA0F18041B1F5A0319D
:104D400005D0016841F001010160002070478168D1
:104D5000034A1140062918BFB1F5803FF5D0F0E7AE
:104D60000700010090F83C20012A0DBF022001231A
:104D700080F83C30704730B4022280F83D20026851
:104D8000D2F808C02CF0770C2CF4441C2CF47F4C87
:104D9000C2F808C00A68702A27D00DDC12F00F0F85
:104DA0004BD14FEA221CBCF1070F46D2DFE80CF0D2
:104DB000A3A3A3A385466500594CA2EB040CA24211
:104DC0007AD009DCB2F5805F37D0B2F5005F20D031
:104DD000B2F1101F70D09AE0BCF1100F1CBFBCF1F3
:104DE000200FBCF1500F28D185E00268D1F804C033
:104DF0008C68C96895684CEA012125F47F4541EA31
:104E0000040141EA0501916001688A6842F0770275
:104E100012E00268D1F804C08C68C96895684CEA51
:104E2000012125F47F4541EA040141EA0501916031
:104E300001688A6842F480428A6068E00268D1F8BA
:104E400004C0C968146A156A25F0010515629569E0
:104E500024F00A0425F0F00545EA011144EA0C0C9F
:104E60009161C2F820C001688A6822F0700222F4C1
:104E7000401242F057028A6049E00268D1F804C04B
:104E8000C968146A24F0100414629469156A24F441
:104E9000704444EA013125F0A00444EA0C1C9161FD
:104EA000C2F820C001688A6822F0700222F4401221
:104EB00042F067028A602AE01DE00268D1F804C06F
:104EC000CC68116A156A25F001051562956921F013
:104ED0000A0125F0F00545EA041441EA0C01946149
:104EE000116201688A6822F0700222F4401242F0D6
:104EF00047028A600BE00168D1F808C02CF0700C02
:104F00002CF4401C4CEA020242F007028A6080F84E
:104F10003D304FF0000180F83C1030BC084670472F
:104F200020001000704770B50446006801694FF01A
:104F3000000511F0020F1CBFC16811F0020F13D061
:104F40006FF002010161012020772068806910F074
:104F5000030F204602D0FFF7E5FF04E000F038F928
:104F6000204600F01BFB25772068016911F0040F33
:104F70001CBFC16811F0040F13D06FF00401016170
:104F8000022020772068806910F4407F204602D0FC
:104F9000FFF7C8FF04E000F01BF9204600F0FEFA1E
:104FA00025772068016911F0080F1CBFC16811F056
:104FB000080F13D06FF008010161042020772068EA
:104FC000C06910F0030F204602D0FFF7ABFF04E0EA
:104FD00000F0FEF8204600F0E1FA2577206801692C
:104FE00011F0100F1CBFC16811F0100F13D06FF03B
:104FF00010010161082020772068C06910F4407F0B
:10500000204602D0FFF78EFF04E000F0E1F82046D2
:1050100000F0C4FA25772068016911F0010F1CBF68
:10502000C16811F0010F05D06FF001010161204648
:1050300000F0ABFB2068016911F0800F1CBFC16854
:1050400011F0800F05D06FF0800101612046FFF75D
:1050500058FC2068016911F4807F1CBFC16811F001
:10506000800F05D06FF4807101612046FFF748FC86
:105070002068016911F0400F1CBFC16811F0400F9A
:1050800005D06FF040010161204600F07FFB2068F1
:10509000016911F0200F1CBFC16811F0200F05D06D
:1050A0006FF0200101612046FFF72CFC20680169A8
:1050B00011F4801F1CBFC16811F4801F05D06FF46C
:1050C000801101612046FFF785FC2068016911F419
:1050D000001F1CBFC16811F4001F05D06FF4001140
:1050E00001612046FFF76EFC2068016911F4800F12
:1050F0001CBFC16811F4800F05D06FF480010161FD
:105100002046FFF768FC2068016911F4000F1ABF00
:10511000C16811F4000F70BD6FF4000101612046F9
:10512000BDE87040FFF74BBD70B586B00024009419
:1051300001940294039404940068A0F18041B1F5B5
:1051400096311CBF06B070BD1E48C16C41F0040111
:10515000C164C16C01F004010591C16C41F0020110
:10516000C164C16C01F002010591C16C41F0010103
:10517000C164C06C022500F0010005904FF400509E
:10518000CDE900050426694604960F48FEF746FB64
:10519000A8030090CDE90154CDE9034669460B48C8
:1051A000FEF73CFB4FF4B8500090CDE901540620C7
:1051B000CDE9034069464FF09040FEF72FFB06B063
:1051C00070BD0000001002400008004800040048C4
:1051D000704700002DE9F047054690F83C000C466A
:1051E00001280DBF0220012085F83C00BDE8F087B2
:1051F000DFF830C3CC4ECD4FCD49CE4B0C2A00F05A
:10520000C48006DC6AB1042A5ED0082A71D000F09E
:1052100083B9102A00F00681142A00F0408100F0C2
:105220007BB92868026A22F001020262026AD0F8A1
:105230000480D0F81890D4F800A029F0730929F45C
:1052400080394AEA0909D4F808A022F002024AEAA1
:105250000202884218BF984204D060451CBFB04289
:10526000B84207D1D4F80CA022F008024AEA0202A0
:1052700022F00402884218BF984204D060451CBF47
:10528000B042B84207D1636928F4407143EA010192
:10529000A36943EA0108C0F80480C0F81890616867
:1052A000416302622868816941F0080181612868D0
:1052B000816921F00401816128688169226941EADC
:1052C0000201816100F028B92146286801F0DEF969
:1052D0002868816941F4006181612868816921F44D
:1052E0008061816128688169226941EA0221E8E7D9
:1052F000FFE72868026A22F480720262026AD0F82C
:105300000480D0F81C90D4F800A029F0730929F487
:1053100080394AEA0909D4F808A022F4007242EA66
:105320000A22884218BF984207D1D4F80CA022F470
:10533000006242EA0A2222F48062884218BF984240
:1053400004D060451CBFB042B84207D1636928F45D
:10535000405141EA0311A36941EA0318C0F80480EF
:10536000C0F81C906168C16302622868C16941F09D
:105370000801C1612868C16921F00401C161286880
:10538000C169226941EA02014AE02868026A22F4FE
:1053900080520262026AD0F80480D0F81C90D4F8DF
:1053A00000A029F4E64929F0807949EA0A29D4F8CD
:1053B00008A022F4005242EA0A32884218BF9842FA
:1053C00007D1D4F80CA022F4004242EA0A3222F4B7
:1053D0008042884218BF984204D060451CBFB0424A
:1053E000B84207D1636928F4404141EA8311A369B7
:1053F00041EA8318C0F80480C0F81C906168016419
:1054000002622868C16941F40061C1612868C1690C
:1054100021F48061C1612868C169226941EA0221E1
:10542000C16179E02868026A22F480320262D0F811
:1054300020904268D0F85080D4F800A028F070087E
:1054400028F480384AEA0808B4F808A029F400399A
:1054500049EA0A49884218BF984204D060451CBFF7
:10546000B042B84204D122F48031626941EA02229A
:105470004260C0F8508061688164C0F8209028685C
:10548000016D41F0080101652868016D21F00401FA
:1054900001652868016D226941EA02013BE0286844
:1054A000026A22F480120262D0F820904268D0F89A
:1054B0005080D4F800A028F4E04828F0807848EA2A
:1054C0000A28B4F808A029F4001949EA0A598842C0
:1054D00018BF984204D060451CBFB042B84204D106
:1054E00022F48021626941EA82224260C0F8508041
:1054F0006168C164C0F820902868016D41F40061C2
:1055000001652868016D21F4806101652868016DDD
:10551000226941EA022101654FF0000085F83C0054
:10552000BDE8F087004001400044014000480140D0
:10553000002C014000340140002804BF01207047C6
:1055400010B5044690F83D0028B9002084F83C00CE
:10555000204600F022F8022084F83D00211D20683A
:1055600001F03AF8012084F8480084F83E0084F8FD
:105570003F0084F8400084F8410084F8420084F839
:10558000430084F8440084F8450084F8460084F819
:10559000470084F83D00002010BD704770470000B0
:1055A000022381B1042916D008291CD00C2922D04D
:1055B000102928D090F84320012A08BF80F84330F2
:1055C00028D00120704790F83E20012A08BF80F8BB
:1055D0003E30F6D11EE090F83F20012A08BF80F847
:1055E0003F30EED116E090F84020012A08BF80F845
:1055F0004030E6D10EE090F84120012A08BF80F843
:105600004130DED106E090F84220012A08BF80F840
:105610004230D6D110B401F01F0302680121994035
:10562000136A8B431362136A194311621E4B01689C
:10563000DFF878C01E4A994218BF61450AD09142EE
:105640001FBFA1F18044B4F5A234A1F18044B4F5A8
:10565000A43403D14C6C44F400444C640068984278
:1056600018BFB0F1804F0DD0A0F18041B1F580613D
:105670001CBFA0F18041B1F5006103D0604518BFA7
:10568000904208D181680B4A01EA0201062918BF3D
:10569000B1F5803F03D0016841F00101016010BC09
:1056A0004FF0000070470000002C01400034014022
:1056B000004001400700010070B4026801F01F04BF
:1056C0000123166A4FF0000C03FA04F526EA0505DB
:1056D0001562156A0CFA04FC45EA0C0CC2F820C0ED
:1056E000026841F2111CA2F1804544F24444B5F530
:1056F00096351CBFA2F18045B5F59A350DD0A2F1C3
:105700008045B5F5A0351FBFA2F18045B5F5A2359E
:10571000A2F18045B5F5A4350AD1156A15EA0C0F3A
:1057200004BF156A254203D1556C25F40045556424
:105730000268156A15EA0C0F04BFD2F820C01CEAF3
:10574000040F05D1D2F800C02CF0010CC2F800C043
:10575000002908BF80F83E3014D0042908BF80F823
:105760003F300FD0082908BF80F840300AD00C29FC
:1057700008BF80F8413005D010290CBF80F84230B6
:1057800080F84330002070BC70477047704790F835
:105790007C10012904BF02207047012180F87C1091
:1057A0002421C0F8801001680A680B6823F0010307
:1057B0000B6022F00051002242660368196020212C
:1057C000C0F8801080F87C201046704790F87C105C
:1057D000012904BF0220704710B4012185B080F870
:1057E0007C102422C0F8802002681368D2F800C020
:1057F0002CF0010CC2F800C043F000524B07436686
:1058000003681A601BA3D3E90023CDE900231BA37F
:10581000D3E90023CDE90223426E002A04BFA0F899
:105820006A10A0F868101AD0026891689268C1F3F3
:105830004261520F1DF802C04FEACC040DF1080C72
:105840001CF80220B4FBF2F4A0F86A401DF8012015
:105850001CF80110D200B2FBF1F2A0F86820202160
:10586000C0F88010002180F87C1005B0084610BCFC
:105870007047000001010103070100000804020451
:10588000080101017047000090F87C20012A04BF44
:105890000220704730B4012384B080F87C30242289
:1058A000C0F880200268D2F800C0146824F0010417
:1058B00014600268946824F06064214391601B497D
:1058C000D1E90021CDE90021194AD2E90012CDE940
:1058D0000212416E002904BFA0F86A30A0F86830B7
:1058E00016D001688A688968C2F34262490F1DF8C0
:1058F0000140E50002AC615CB5FBF1F5A0F86A502F
:105900001DF80210A25CC900B1FBF2F2A0F86820F9
:105910000168C1F800C02021C0F88010002180F883
:105920007C1004B0084630BC704700007458000872
:105930007C58000890F87C20012A04BF02207047A0
:1059400030B4012384B080F87C302422C0F8802059
:105950000268D2F800C0146824F0010414600268E0
:10596000946824F06044214391601B49D1E90021EF
:10597000CDE90021194AD2E90012CDE90212416EA7
:10598000002904BFA0F86A30A0F8683016D001687A
:105990008A688968C2F34262490F1DF80140E50038
:1059A00002AC615CB5FBF1F5A0F86A501DF802107D
:1059B000A25CC900B1FBF2F2A0F868200168C1F84E
:1059C00000C02021C0F88010002180F87C1004B0B5
:1059D000084630BC70470000745800087C58000826
:1059E00070477047704700002DE9F0410368044696
:1059F000D86919689A6840F60F0C10EA0C0F4FF03E
:105A000000054FF020060FD110F0200F7ED001F0DE
:105A1000200C02F080575CEA070C77D0E16E002979
:105A200008BFBDE8F081C8E0DFF8E8C17A4F02EABC
:105A30000C0C0F405CEA070768D010F0010F18BF8C
:105A400011F4807F07D001271F62D4F8883043F01B
:105A50000103C4F8883010F0020F18BF12F0010FD4
:105A600008D0276802233B62D4F8883043F004034F
:105A7000C4F8883010F0040F18BF12F0010F08D0DE
:105A8000276804233B62D4F8883043F00203C4F84B
:105A9000883010F0080F1CBF01F0200353EA0C03FC
:105AA0000AD0D4F800C00823CCF82030D4F88830CD
:105AB00043F00803C4F8883010F4006F18BF11F0E9
:105AC000806F0BD0D4F800C04FF40063CCF82030C6
:105AD000D4F8883043F02003C4F88830D4F88830F4
:105AE000002B08BFBDE8F08110F0200F09D001F0B5
:105AF000200002F0805108431FBFE16E00292046BC
:105B00008847D4F888102068826800E038E012F0F6
:105B1000400F08BF11F0280F2BD0016821F49071BD
:105B200001602068816821F0010121F080518160CD
:105B3000C4F88460E5662068816811F0400F13D0D6
:105B4000816821F040018160A06F68B133498163B1
:105B5000A06FFDF79DFC002808BFBDE8F081A06F95
:105B6000816BBDE8F04108472046FFF73BFFBDE8E9
:105B7000F0812046FFF736FFC4F88850BDE8F08179
:105B800010F4801F18BF12F4800F07D04FF480105C
:105B900018622046BDE8F041FFF723BF10F0800FE8
:105BA0000FD001F0800C02F400025CEA020208D07F
:105BB000216F002908BFBDE8F0812046BDE8F04113
:105BC000084710F0400F18BF11F0400F0BD01968B4
:105BD000204621F040011960C4F88060256700F07C
:105BE0009FF9BDE8F08110F4000F18BF11F0804F4D
:105BF00004D02046BDE8F041FFF7F2BE10F0807FF0
:105C000014BF11F0004FBDE8F0812046BDE8F0411F
:105C1000FFF738BE01000010200100045968000899
:105C2000002804BF0120704710B50446D0F880005A
:105C300028B9002084F87C00204600F029F82420B0
:105C4000C4F880002068016821F00101016020464D
:105C500000F01CFF012808BF10BDA06A00281CBF6F
:105C6000204600F05BFD2068416821F490414160CE
:105C70002068816821F02A0181602068016841F074
:105C8000010101602046BDE8104000F0B4BD0000F5
:105C900000B587B000210091019102910391049118
:105CA0000068A0F18041B1F588411CBF07B000BD7C
:105CB0001248816D41F400318165816D01F400313C
:105CC0000591C16C41F00201C164C06C694600F0ED
:105CD00002000590182000900220019007200490F7
:105CE0000748FDF79BFD00220F212620FDF724FF2A
:105CF0002620FDF711FF07B000BD00000010024094
:105D00000004004810B4D0F88430202B7AD1002948
:105D100011BF002A012010BC704790F87C30012B85
:105D200070D0012380F87C308165A0F85C20A0F859
:105D30005E200021C16683684FF0FF0CB3F5805FE1
:105D400019D07F24F3B1B3F1805F18BFA0F86010C1
:105D50001DD000BFC0F888102223C0F8843003682B
:105D6000D3F808C04CF0010CC3F808C0436EB3F17F
:105D7000005F35D116E00369002B08BF40F2FF1326
:105D800002D109E0036953B9A0F860C0E2E70369F2
:105D9000002B18BF3F2302D0A0F86030DAE7A0F84C
:105DA0006040D7E7B0F86830934219D88268B2F5FE
:105DB000805F05BF0269002A144A154AC26680F84E
:105DC0007C1001680A6842F480720A600068816889
:105DD00041F08051C0F8081010BC4FF0000070472F
:105DE0008268B2F5805F05BF0269002A094A0A4A43
:105DF000C26680F87C100068016841F4907101600F
:105E0000EAE7FFE710BC4FF002007047DD690008C9
:105E1000CD6800087D6900086D68000810B500684D
:105E2000A0F18041B1F5884118BF10BD012205499C
:105E30000548FFF767FF03480178BDE810400348B5
:105E400004F07CBA880000201C0300209C64002021
:105E50002DE9F8430446D0F880001F4615460E464B
:105E600020285AD1002E12BF002D0120BDE8F88352
:105E700094F87C00012850D0012084F87C004FF079
:105E80000009C4F888902120C4F88000FDF7ECFDDB
:105E9000A4F854508046A4F85650A068B0F5805F2E
:105EA00003BF206900280025354618BF002684F866
:105EB0007C90B4F85600C0B143464FF000024FF05A
:105EC00080012046009700F021FFB0B9C5B12168DC
:105ED00015F8010BC1F82800B4F85600401EA4F8CC
:105EE0005600B4F856000028E6D14346002240216F
:105EF0002046009700F00AFF48B10320BDE8F88370
:105F000036F8020B2168C0F308008862E4E720201D
:105F1000C4F880000020BDE8F8830220BDE8F883C3
:105F20007047FEE770B59CB000241A941894199439
:105F300001940294039400940494069407940894A2
:105F4000059409940B940C940D9445480A940E946E
:105F500010941194129413941494159416944FF071
:105F6000A041179401604FF44031C0E901140426A8
:105F700086610125C460C0E90445047745770321A3
:105F8000016280F82440C462046380F83840290329
:105F9000C16380F84040FDF72DF8002818BFFCF7DA
:105FA0002CF818A92E481894FCF7F2FB002818BF0B
:105FB000FCF723F82B4800900920CDE90105CDE935
:105FC00004647F2502200395089084200A908DF8B0
:105FD000244080208DF825400B908DF826408DF8C8
:105FE000304069461E48FCF70BF8002818BFFCF744
:105FF00004F81D48009040F20F10019069461848BF
:10600000FBF7FEFF002818BFFBF7F7FF17481090BB
:1060100011A9062081E8710010A911481594FCF718
:1060200027FC002818BFFBF7E8FF114810900C2050
:10603000119010A90A48FCF71BFC002818BFFBF7B9
:10604000DCFF0C4810901220119010A90448FCF7B6
:106050000FFC002818BFFBF7D0FF1CB070BD00007C
:1060600098000020002090B60040C03A02003004A2
:106070002000F0140008302E70B590B00024009479
:106080000194029403940494384805940694079468
:10609000089409940A940B940C940D9432490E942C
:1060A00001604FF44031C0E90114042585610126E7
:1060B000C460C0E9044604774477066280F824404F
:1060C00080F83840A902C16380F84040FCF792FF95
:1060D000002818BFFBF791FF254800900920CDE963
:1060E00001067F200594CDE9030584200A908DF8F0
:1060F000244080208DF825400B9008958DF826408F
:106100008DF8304069461948FBF77AFF002818BF20
:10611000FBF773FF1748009040F20F10019069469B
:106120001248FBF76DFF002818BFFBF766FF124807
:10613000009040F21520019069460C48FBF760FF83
:10614000002818BFFBF759FF0C48009040F21B30A5
:10615000019069460548FBF753FF002818BFFBF77D
:106160004CFF10B070BD0000000100500401002081
:10617000000029C300008CCB000052472000F0141F
:106180000D4808B5816C41F004018164816C01F017
:1061900004010091816C41F001018164806C002256
:1061A00000F00100009011460B20FDF7C5FCBDE892
:1061B00008400B20FDF7B0BC0010024030B587B09E
:1061C0000024204800940194029403940494C16C28
:1061D00041F00401C164C16C01F004010591C16C7E
:1061E00041F02001C164C16C01F020010591C16C36
:1061F00041F00101C164C16C01F001010591C16C64
:1062000041F00201C164C06C0F4D00F00200059026
:10621000002240212846FDF721FC4FF40050CDE933
:106220000004694609480294FDF7F8FA40200090FE
:106230000120CDE90104694628460394FDF7EEFAF2
:1062400007B030BD001002400008004800040048BC
:106250000E4810B50C4901608021416040218160E9
:1062600000210122016102755204426281614FF4F2
:106270004042C0E90A21FDF7A3FC002808BF10BD79
:10628000BDE81040FBF7B9BE00030140D00100207B
:106290000E4810B50C4901608021416040218160A9
:1062A00000210122016102755204426281614FF4B2
:1062B0004042C0E90A21FDF783FC002808BF10BD59
:1062C000BDE81040FBF799BE040301400C0200201A
:1062D0000E4810B50C490160802141604021816069
:1062E00000210122016102755204426281614FF472
:1062F0004042C0E90A21FDF763FC002808BF10BD39
:10630000BDE81040FBF779BE0803014048020020B9
:106310000C4810B50A490160A921416000214FF6DF
:10632000FF72C0E90212016141618161FEF748FC20
:10633000002808BF10BDBDE81040FBF75EBE00009E
:1063400000440140D002002030B59DB000241994D3
:106350001A941B9418941494159416940094019410
:106360000294039404940594069407940894099461
:1063700047480A940B940C940D940E940F94109427
:1063800011941294414904251394C0E90015202169
:1063900081604FF47A71C0E9031444618461FEF7AF
:1063A0000FFC002818BFFBF728FE4FF48050189010
:1063B00018A93748FEF7D6FC002818BFFBF71DFECA
:1063C0003348FFF7B9F8002818BFFBF716FE1494FE
:1063D000159414A92E481694FEF7FEFA002818BF4B
:1063E000FBF70BFE6020CDE900040294CDE90345E4
:1063F00005940022694626480694FEF7EBFE002825
:1064000018BFFBF7FAFD0422694621480194FEF704
:10641000E1FE002818BFFBF7F0FD082269461C4882
:106420000194FEF7D7FE002818BFFBF7E6FD4FF4F6
:10643000617001900C22694603941548FEF7CAFE6C
:10644000002818BFFBF7D9FD1148FEF7BCFA0794E6
:1064500028200894CDE909404FF40050CDE90B40C5
:106460000D9400030E94CDE90F40C012CDE9124007
:1064700007A911940648FEF747FA002818BFFBF752
:10648000BCFD0348FEF750FE1DB030BD002C01409E
:1064900084020020194810B5174901604FF4E1311A
:1064A0004160002181600C22C160C0E90412816159
:1064B000C161016241628162FFF7B2FB002818BF2F
:1064C000FBF79BFD00210D48FFF734FA002818BFA9
:1064D000FBF793FD00210948FFF7D6F9002818BF04
:1064E000FBF78BFD0548FFF752F9002808BF10BDE8
:1064F000BDE81040FBF781BD004400401C030020B4
:10650000FEE7FDF771FFFEE770477047FDF7B2BA8F
:1065100030B5A5B00024009401940294039404942F
:10652000059406940794089409940A940B940C9487
:106530000D941F9420942194229444210EA8239416
:10654000FAF7C4F90020FDF71BFC012000900004BD
:10655000019002200325CDE907055521CDE9090168
:106560000821CDE90B100D906846FDF74DFF08B1ED
:1065700072B6FEE70F20CDE920541F90229404212B
:106580001FA82394FDF7C8FD08B172B6FEE748F2D4
:1065900002000E9000071D9010940EA8FDF758FC05
:1065A00008B172B6FEE7FDF7BBFE25B030BD0000B6
:1065B0000448016841F47001016003494FF0006034
:1065C0000860704788ED00E008ED00E00148FEF744
:1065D000AABC0000840200202DE9F0010268244BCF
:1065E000244DDFF89480DFF894C0984218BFB0F1D2
:1065F000804F04D0A8421CBF4045604504D14C6880
:1066000022F0700244EA02021D4C1E4E1E4F9842B8
:1066100018BFB0F1804F0BD0A84218BF404507D03B
:10662000604518BFA04203D0B04218BFB84204D1A1
:10663000CD6822F4407245EA02024D6922F08002E0
:1066400042EA050202608A68C2620A68826298426F
:1066500018BF604504D0A0421CBFB042B84201D16F
:10666000096901634FF001014161BDE8F001704724
:10667000002C0140000400400008004000340140AC
:1066800000400140004401400048014070B4026AEB
:1066900022F010020262026A4368D0F818C00C6847
:1066A0002CF4E64C2CF0807C4CEA042C8C6822F014
:1066B000200242EA0412174C174DA04218BFA8420C
:1066C00006D1CE6822F0800242EA061222F0400291
:1066D000A04218BFA8420DD0A0F18044B4F5A03468
:1066E0001FBFA0F18044B4F5A234A0F18044B4F5FA
:1066F000A43407D14C6923F4406343EA84038C69D2
:1067000043EA84034360C0F818C0496881630262A9
:1067100070BC7047002C01400034014090F82810F4
:1067200011F0010F06D001684A68C36A22F40032F2
:106730001A434A6090F8281011F0020F06D0016841
:106740004A68036B22F480321A434A6090F828109A
:1067500011F0040F06D001684A68436B22F48022CE
:106760001A434A6090F8281011F0080F06D001680B
:106770004A68836B22F400421A434A6090F828105A
:1067800011F0100F06D001688A68C36B22F48052A2
:106790001A438A6090F8281011F0200F06D0016883
:1067A0008A68036C22F400521A438A6090F8281019
:1067B00011F0400F11D001684A68436C22F4801236
:1067C0001A434A60416CB1F5801F06D101684A68DE
:1067D000836C22F4C0021A434A6090F8281011F02A
:1067E000800F08BF704701684A68C06C22F400221D
:1067F000104348607047F8B500250446C0F888503B
:10680000FDF732F90746206800686FF07E4610F009
:10681000080F08D03B4600224FF400112046009696
:1068200000F074FA68B92068006810F0040F0AD00C
:106830003B4600224FF480012046009600F066FAA5
:1068400008B10320F8BD2020C4F88000C4F88400FB
:1068500084F87C500020F8BD10B5806A0021A0F8B3
:106860005E10A0F85610FFF7BDF810BD10B5B0F8D7
:106870006020D0F884300168222B04D0886940F071
:106880000800886110BD496A836D11401980816DCF
:10689000891C8165B0F85E10491EA0F85E10B0F842
:1068A0005E10002918BF10BD01680A6822F49072BA
:1068B0000A6001688A6822F001028A602021C0F81B
:1068C00084100021C166FFF7A9FA10BD2DE9F0413F
:1068D0000446B0F86060D0F88400222806D0206812
:1068E000816941F008018161BDE8F081B4F8685028
:1068F000002D1CBF00274FF0200825D02068406ADB
:10690000A16D30400880A06D801CA065B4F85E00C9
:10691000401EA4F85E00B4F85E0088B920680168E3
:1069200021F4807101602068816821F0010121F06B
:1069300080518160C4F884802046E766FFF76EFAD4
:10694000681E05042D0CD9D1B4F85E0000281CBFC8
:10695000B4F86810814298BFBDE8F0812068816872
:1069600021F0805181600448E0662068016841F0B0
:1069700020010160BDE8F0816D68000810B5B0F835
:106980006020D0F884300168222B04D0886940F060
:106990000800886110BD496A1140826D1170816DD7
:1069A000491C8165B0F85E10491EA0F85E10B0F871
:1069B0005E10002918BF10BD01680A6822F49072A9
:1069C0000A6001688A6822F001028A602021C0F80A
:1069D00084100021C166FFF721FA10BD2DE9F041B6
:1069E0000446B0F86060D0F88400222806D0206801
:1069F000816941F008018161BDE8F081B4F8685017
:106A0000002D1CBF00274FF0200825D02068406AC9
:106A1000A16D30400870A06D401CA065B4F85E0008
:106A2000401EA4F85E00B4F85E0088B920680168D2
:106A300021F4807101602068816821F0010121F05A
:106A400080518160C4F884802046E766FFF7E6F94C
:106A5000681E05042D0CD9D1B4F85E0000281CBFB7
:106A6000B4F86810814298BFBDE8F0812068816861
:106A700021F0805181600448E0662068016841F09F
:106A800020010160BDE8F0817D6900082DE9F04139
:106A9000044600682269A168D4F81CC011436269E9
:106AA000002542EA0C021143626E924B11430268C8
:106AB000DFF844C202EA0C02114301602068416819
:106AC000E26821F44051114341602168A069994274
:106AD0001CBF226A10438A6822F4306222F06E42A0
:106AE000104388602068C16A626A21F00F01114377
:106AF000C16222688148A2F18041B1F59C312FD05A
:106B0000A2F18041B1F5884138D0A2F18041B1F5C0
:106B100090413FD0A2F18041B1F5984147D09A42CF
:106B20000DD1D0F8880010F440604DD0B0F5806FE2
:106B30004ED0B0F5006F49D0B0F5406F42D0102173
:106B40006F48704F00269A426CD179B3022947D022
:106B5000042942D0082908BF4FF4004040D0B8E0D3
:106B6000D0F8880010F0030008BF0121E8D0012808
:106B70002ED002282AD0032824D0E0E7D0F88800BD
:106B800010F00C0020D0042822D008281ED00C2899
:106B900018D0D4E7D0F8880010F0300014D01028B6
:106BA00016D0202812D030280CD0C8E712E0D0F838
:106BB000880010F0C00007D0402809D0802805D0F8
:106BC000C028BCD10821BBE70021B9E70221B7E703
:106BD0000421B5E7FDF7ACFB01E0FDF7CDFB98B371
:106BE000616A37F811206768B0FBF2F107EB4703E1
:106BF0008B4298BFB1EB073F6BD800231946F9F7DA
:106C0000B2FB090241EA10610202780810187141D2
:106C10003A460023F9F7A7FB3B4AA0F540719142A1
:106C200057D85BE0E2694FF6EF78B2F5004F08D035
:106C300009294ED2DFE801F035383E4D3B4D4D4D30
:106C40004F00092945D200E044E0DFE801F00508E3
:106C50000E420B4242422700FDF76AFB04E0FDF7BB
:106C600079FB01E0FDF788FBA0B3616A37F81110EA
:106C7000B0FBF1F04100606801EB5001B1FBF0F0B6
:106C800080B2A0F11001414523D84FF6F0710140C8
:106C9000C0F3420008432168C86021E04FF400407F
:106CA000E3E7FDF745FB04E0FDF754FB01E0FDF7EA
:106CB00063FB78B1616A37F81110B0FBF1F16068DD
:106CC00001EB5001B1FBF0F080B2A0F110014145A1
:106CD00004D9012504E04FF40040EBE72168C860C7
:106CE0000120A4F86A00A4F86800E6662846266732
:106CF000BDE8F08100800040F369FFCF0010024042
:106D00000024F400C6C70008FFFC0F002DE9F0477F
:106D100004460068089D9A46C0691746884631EACD
:106D200000000CBF01200020B84204BF4FF0000952
:106D3000202647D1B5F1FF3F3BD0FCF795FEA0EBF5
:106D40000A00A84222D80DB32068016811F0040F90
:106D50001CBFC06910F4006F2BD021684FF4006095
:106D600008622068016821F4D071016020688168A0
:106D700021F001018160C4F88060C4F88460C4F827
:106D8000886084F87C900320BDE8F0872068016863
:106D900021F4D07101602068816821F001018160D7
:106DA000C4F88060C4F8846084F87C900320BDE857
:106DB000F0872068C06938EA00000CBF012000207D
:106DC000B842B7D00020BDE8F08700000148FEF7C8
:106DD0000BBE00001C030020FEE7C9B241EA0121FE
:106DE00041EA0141016041600172704703B40198BA
:106DF0004100009850EAC12018BF04204A0D18BF76
:106E000040F0010040F2FF72B2EB515F08BF40F06A
:106E10000200012808BF052002B0704710B52DED13
:106E2000028BB1EEC08A18EE100A20F00040C0F1CB
:106E3000FF40C00F0AD010EE100A20F00040C0F151
:106E4000FF40C00F04BF0120F9F7B1FDB0EE480AC2
:106E5000BDEC028B10BD30380A2801D201207047EA
:106E600000207047704700002DE9F041FE4C2DEDE9
:106E70000C8B82B004F51A7704F53E7594F8F40291
:106E8000012815D19FEDF90A84EDA30A84EDA40A27
:106E900084EDAB0A84EDAA0A84EDAD0A84EDAE0A56
:106EA00084ED9E0A84ED9F0A84ED5A0A84ED590A06
:106EB00094F83C004FF0000801280BD1EC4884F80E
:106EC0003C80A18E026851630268E18E9163006884
:106ED000218FC16394EDA10AB0EE001A84EDA30ADC
:106EE00094EDA10AD4EDA20A00EE810ADFEDE18A59
:106EF000204620EE280A84EDA40A02F00DFD94ED50
:106F00009A0A04F51A769FEDDC9BB4EE400AF1EE86
:106F100010FA1CBFB0EE490AF0EE690A05D110EE76
:106F2000100A05F0D1FB41EC100B51EC100B04F0F2
:106F300027FF00EE100A684686ED000AD4ED940A99
:106F400030EEC00A8DED000A04F0C6FE96ED010A8F
:106F5000B4EE400AF1EE10FA1CBFB0EE490AF0EEB2
:106F6000690A05D110EE100A05F0AEFB41EC100BDA
:106F700051EC100B04F004FF00EE100A304686EDD1
:106F8000010AD6ED020A9DED001A00EE810A94ED89
:106F9000711AD6ED000A40EE010AC6ED000A04F0AF
:106FA0009BFED6ED030A9DED001A96ED010A60EEF8
:106FB000810A94ED711A00EE810A86ED010A84EDD2
:106FC000700ADFEDAF0A20EE200A9FEDAE8AC0EE18
:106FD000080AC4ED6F0A94F8C90140B1012802BF44
:106FE00094F86502002897ED000A13D014E094F895
:106FF0006502B8B194ED0C0AD4ED710A94ED5B1AF8
:1070000004F1300000EE810A84ED0C0A04F064FE05
:1070100094ED0C0A84EDA80A94F8F402012816D025
:1070200000F0CEB994F8280040B194ED0B0A04F5B5
:10703000287084EDA80A04F04FFEEDE797ED000AF2
:1070400004F5287084EDA80A04F046FEE4E7D4F8BD
:10705000200205F039FB9FED8CAB53EC1A2B05F0A9
:1070600009F941EC1C0BD4F81C0205F02DFB53EC84
:107070001A2B05F0FFF841EC1B0BD4F8180205F0B1
:1070800023FB9FED83AB53EC1A2B05F0F3F853EC85
:107090001B2B05F02FFA53EC1C2B05F02BFA04F0F8
:1070A0006FFEC4F8E80294ED870AD4ED880A20EE5A
:1070B000280A00EEE80A84EDBB0A94EDA80A01F064
:1070C000DBF894EDA81ADFED741ADFED740AB5EE63
:1070D000C01A21EE202AF1EE10FA34BFF1EE410A77
:1070E000F0EE410A62EE200A41EE210A94EDBA1A4E
:1070F000D4EDBB1A61EE008A21EE80CA94EDB30A8A
:1071000040EEA18A00EEC1CAB4EE400AF1EE10FAD8
:107110001CBFB0EE490AF0EE690A05D110EE100A64
:1071200005F0D2FA41EC100B51EC100B04F028FEE4
:10713000C4F8CC0294EDB20AB4EE400AF1EE10FAB3
:107140001CBFB0EE490AF0EE690A05D110EE100A34
:1071500005F0BAFA41EC100B51EC100B04F010FEE4
:10716000C4F8C802D4EDB3CA3CEEE80A10EE100A27
:1071700005F0AAFA9FED4ABB53EC1B2B05F07AF8F9
:1071800041EC1D0B1CEE900A05F09EFA53EC1D2BF2
:1071900005F0B0F904F0F4FDC4F8CC02D4EDB28AE5
:1071A00038EECC0A10EE100A05F08EFA53EC1B2BC9
:1071B00005F060F841EC1C0B18EE900A05F084FA1B
:1071C00053EC1C2B05F096F904F0DAFDC4F8C80264
:1071D00094EDB30A84EDB60AC4F8DC02D4EDA88AB3
:1071E00094ED020A304838EEC00A10EE101A8142BF
:1071F00006D900BF30EE080A10EE101A8142F9D805
:1072000010EE101A2948814206DD00BF30EE480A10
:1072100010EE101A8142F9DCDFED260A9FED241AE8
:10722000B4EEE00AF1EE10FAC8BFB0EE600A08DC76
:10723000F0EE400AF4EEC10AF1EE10FA38BFB0EEFB
:10724000410AD4ED710A94ED038A80EE20DA38EE1B
:107250004D0A10EE100A05F037FA9FED171B53EC9C
:10726000112B05F007F82BE0A80300200000000018
:10727000840200203ACD133F00000000000000000F
:1072800000007042DB0FC940555555555555D53F47
:10729000555555555555E53F83F9A23F7A81CFBEE7
:1072A0009A9999999999C93FDB0F49C0DB0F4940D9
:1072B000920A86BF920A863F7B14AE47E17A843FEA
:1072C00041EC1C0B18EE100A05F0FEF953EC1C2BD8
:1072D00005F010F904F054FD00EE100A84ED030AE5
:1072E000B4EE400AF1EE10FA1CBFB0EE490AF0EE1F
:1072F000690A05D110EE100A05F0E6F941EC100B11
:1073000051EC100B04F03CFDE06094ED048A38EE83
:107310004D0A10EE100A05F0D7F953EC1B2B04F0C0
:10732000A9FF41EC1B0B18EE100A05F0CDF953EC48
:107330001B2B05F0DFF804F023FD00EE100A84EDAE
:10734000040AB4EE400AF1EE10FA05D110EE100A6C
:1073500005F0BAF941EC190B51EC190B04F010FDD2
:107360002061C4ED028AD4F84062304605F0ACF9E1
:1073700053EC1A2B04F07EFF41EC180BD4F8CC022E
:1073800005F0A2F953EC182B04F0E0FD04F0F8FC32
:10739000C4F8E002304605F097F953EC1A2B04F0DC
:1073A00069FF41EC180BD4F8C80205F08DF953ECD5
:1073B000182B04F0CBFD04F0E3FCC4F8E40200BF9A
:1073C00094EDAB0AD4EDAA0A20EE000A00EEA00A62
:1073D000F0EE400AB1EEE00AB4EE400AF1EE10FA27
:1073E0001CBFB0EE600AFFF719FD84ED000A94EDB2
:1073F000B80A60EE000A94EDB90A40EE000AB1EE58
:10740000E00AB4EE400AF1EE10FA1CBFB0EE600ADA
:10741000FFF704FDD4EDB20AF5EEC00AF1EE10FA62
:1074200034BF4FF0FF30012000EE900AF8EEE00A82
:1074300020EE200ADFED360A80EE201A84ED091ACC
:1074400094F87801012804BF204601F0C5FF94F8A4
:10745000F402002804BF204600F0D6FA287800285D
:1074600002BF02B0BDEC0C8BBDE8F081687800284B
:1074700004BF0120687046D06888B0F57A7F05D9CE
:10748000A5F8028085F8008085F80180688897ED6E
:10749000000A05EB800080ED010A688894ED890AF6
:1074A00005EB800000F5406080EDEA0A688894ED05
:1074B0008A0A05EB800000F5E05080EDD30A688869
:1074C00094ED8B0A05EB800000F5305080EDBC0A8E
:1074D000D4ED920A9FED0F0A688860EE800A05EBF2
:1074E000800000F57050C0EDA50AD4ED930A6888BD
:1074F00020EE800A05EB800000F5984080ED8E0AB2
:107500006888401C688002B0BDEC0C8BBDE8F0813F
:10751000D7B35D3F0000484310B55B495B482DED94
:107520000E8BF0EE408A18EE902AB0EE608A9FED46
:10753000580A8A4205D218EE902A8242D8BFF0EE4D
:10754000408A18EE102A8A4205D218EE101A81429B
:10755000D8BFB0EE408AF0EEC8EAB0EEE8EAF4EE4A
:10756000CEEAF1EE10FA34BFB0EE6E0AB0EE4E0A7B
:10757000CCBFF0EE6E0AF0EE4E0A9FED461A70EEAA
:10758000810AC0EE209A19EE900A29EEA99A05F018
:107590009BF841EC1A0B19EE900A05F095F841ECB6
:1075A0001D0B19EE100A05F08FF841EC1C0B19EEBB
:1075B000100A05F089F841EC1B0B19EE100A05F0D2
:1075C00083F89FED351B53EC112B04F053FE9FED18
:1075D000341B53EC112B04F005FC53EC1B2B04F073
:1075E00049FE9FED311B53EC112B04F083FF53EC4C
:1075F0001C2B04F03FFE53EC1D2B04F03BFE53EC20
:107600001A2B04F0EFFB04F0BBFB00EE100AB4EE03
:10761000EEEAF1EE10FA0DDD10EE100A05F054F866
:107620009FED231B53EC112B04F058FF04F0A8FB33
:1076300000EE100AB5EEC08AF1EE10FA3CBFDFEDA5
:107640001E0A30EEC00AF5EEC08AF1EE10FA38BF1D
:10765000B1EE400AB4EE400AF1EE10FA18BF9FED09
:10766000180B05D110EE100A05F02EF841EC100BA6
:1076700051EC100B04F084FBBDEC0E8B00EE100AF5
:1076800010BD000000000000ACC527B7ACC527370F
:107690000000000000008025344A26CE62CEA7BF3D
:1076A0002A08588A6864C43F30873378C5F7D43FC6
:1076B0005035DD5FFB21F93FDB0F49400000000042
:1076C000000000000000000010B5314C02202DED3C
:1076D000028BB0EE408A84B09FED2E0A84F87801C8
:1076E00084ED9F0AB0EEC80A10EE101A2A4A002054
:1076F000914220761BDA012084F8F4020021274809
:10770000FDF7DAFF04212548FDF7D6FF08212348BD
:10771000FDF7D2FF00212148FDF70EFA04211F4892
:10772000FDF70AFA08211D48FDF706FA19E084F86A
:10773000F40200211948FDF733FF04211748FDF733
:107740002FFF08211548FDF72BFF00211348FDF7F7
:107750008FF904211148FDF78BF908210F48FDF737
:1077600087F9B0EE480A84ED9E0A18EE100A04F07C
:10777000ABFFCDE902010A4804210090002309A2D1
:10778000481F02F025F804B0BDEC028B10BD0000CC
:10779000A803002000000000CDCCCC3D84020020D6
:1077A00011CA00081B5B33346D4428256429202549
:1077B000733A1B5B33396D2063757272656E74208A
:1077C00073657420746F3A256C660D0A0000000022
:1077D00000EE100A00B50A4983B00122B8EEC00AD3
:1077E00081F87821002381ED5A0A0649CDE900107D
:1077F000042105A2481F01F0EBFF03B000BD00000B
:10780000A803002040CA00081B5B33346D442825C0
:1078100064292025733A1B5B33396D2072706D200B
:1078200073657420746F3A25640D0A00124808B518
:107830000021017680F8F4121048FDF7B1FE042112
:107840000E48FDF7ADFE08210C48FDF7A9FE00210A
:107850000A48FDF70DF904210848FDF709F9082148
:107860000648FDF705F9064802210090002305A20D
:10787000C81E01F0ADFF08BDA8030020840200204F
:1078800030CA00081B5B33336D5728256429202537
:10789000733A1B5B33396D206D6F746F7220737494
:1078A000617274210D0A0000134808B500210176A9
:1078B000012180F8F41200211048FDF7FDFE04219B
:1078C0000E48FDF7F9FE08210C48FDF7F5FE0021F2
:1078D0000A48FDF731F904210848FDF72DF9082180
:1078E0000648FDF729F9064802210090002305A269
:1078F000C81E01F06DFF08BDA8030020840200200F
:1079000021CA00081B5B33336D57282564292025C5
:10791000733A1B5B33396D206D6F746F7220737413
:107920006F70210D0A00000030B51A4D1A4C2DED74
:10793000028BB0EE408A18EE100A85B0A0F17E509E
:10794000B0F1327F18EE100A0ED904F0BDFECDE979
:1079500002010121002311A20094881E01F038FFCA
:1079600005B0BDEC028B30BD04F0AEFECDE90201E6
:107970000221002316A20094C81E01F029FF05B0C1
:10798000B0EE480ABDEC028B2846BDE8304000F05E
:10799000D7BD0000A803002052CA00081B5B33318A
:1079A0006D45282564292025733A1B5B33396D20EA
:1079B000696E70757420706F776572206C6F737369
:1079C000204552524F52203A20256C660D0A000085
:1079D0001B5B33336D57282564292025733A1B5BC5
:1079E00033396D2073746172742074657374696EB9
:1079F000672120504F574552204C4F535320495335
:107A000020256C660D0A00002DE9F04F04462DED8F
:107A10000C8B00F5067700F5127800F5BE7600F1C4
:107A2000400585B000F5287004F056F994EDA80AD9
:107A300000F022FCF0EE40BA94EDA80ADFEDFE0A59
:107A40009FEDFE1AB5EEC00A60EE011AF1EE10FAD3
:107A500034BFB1EE401AB0EE401A21EE819AB7EE73
:107A6000008A00EE209A94ED6F0A96ED0C0AD4ED90
:107A7000A40AF0EEC09A94EDA30A20EE2B0A09EEB8
:107A8000200A84EDAB0A94EDA40AD4EDA30A20EEFB
:107A90002B0A09EE600A84EDAA0A94EDAD0AD4ED32
:107AA000AB0A94EDAC1A70EE600A94EDAD0A01EEEB
:107AB000600A84EDAD0A94EDAE0AD4EDAA0A94ED05
:107AC000AC1A70EE600A94EDAE0A01EE600A84ED25
:107AD000AE0A94EDB60AD4EDB60A9FEDD9ABB4EE7A
:107AE000600AF1EE10FA1CBFB0EE4A0AF0EE6A0A24
:107AF00007D194EDB60A10EE100A04F0E5FD41EC52
:107B0000100B51EC100B04F03BF900EE100A84ED61
:107B1000B60A94EDB70AD4EDB70AB4EE600AF1EEF6
:107B200010FA07D194EDB70A10EE100A04F0CCFD5C
:107B300041EC1A0B51EC1A0B04F022F900EE100A7A
:107B400019EE900A84EDB70AD4ED090ADFF8F8B20D
:107B500080EEA90A5845B0EEC00AD8BFB0EE480A78
:107B6000D6ED0D0AF4EEC00AF1EE10FA15D2B0EE21
:107B7000401A96ED0E0A31EE601A70EE481A21EEA8
:107B8000211A78EE601AC1EE210A30EE888AB4EE2E
:107B9000C80AF1EE10FA00F3578394ED9F0AD4ED72
:107BA000AB0A94EDAA1AD4EDB61A30EE600AD4ED01
:107BB0009E0A30EEC11AD6ED0A0A20EE202A42EEC5
:107BC000081AC4EDB31AD4EDB71A41EE201AC4ED69
:107BD000B21AD6ED0B0A94ED712A60EE881A21EEE6
:107BE000822AD4EDB61A40EE021AC4EDB61AD4EDCC
:107BF000711A94EDB70A61EEA00A01EE200A84ED35
:107C0000B70A9FED920A94F8C801F0EE400AF0EE30
:107C1000408AB7EE081A28B101281CD0022800F0CB
:107C20003B821EE094EDAA0AD4ED700AD4ED701ADE
:107C300020EE200AD4ED960A20EE200A60EE010A1A
:107C400094EDAB0A20EE210AD4ED961A20EE210A1B
:107C500020EE010A05E094ED701AD8ED051A61EEE8
:107C6000218A94EDB31A71EE600A30EE280AC4ED51
:107C7000B30AD4EDB20A30EE800A84EDB20AB86AD3
:107C800004F022FD41EC1C0B19EE900A04F01CFDDF
:107C90009FED6FAB53EC1A2B04F0ECFA9FED6E1BCB
:107CA00053EC112B04F0E6FA53EC1C2B04F0E2FA2F
:107CB00004F066F894EDB30A09EE900A60EE000A4B
:107CC00094EDB20A40EE000AB1EEE00AB4EE400ACA
:107CD000F1EE10FA1CBFB0EE600AFFF79FF8F0EE6D
:107CE000690A10EE100A5E49F0EEE00A9FED5D8A27
:107CF0008842B8BFB0EE480AB4EEE00AF1EE10FADE
:107D00000DDD80EE801A94EDB30A20EE010A84EDB9
:107D1000B30A94EDB20A20EE010A84EDB20ABE6AFB
:107D2000304604F0D1FC53EC1A2B04F0A3FA94ED86
:107D3000B30A41EC1C0B10EE100A04F0C5FC53EC26
:107D40001C2B04F003F904F01BF800EE100A304677
:107D500084EDB80A04F0B8FC53EC1A2B04F08AFA4C
:107D600094EDB20A41EC1C0B10EE100A04F0ACFCCE
:107D700053EC1C2B04F0EAF804F002F800EE100AB1
:107D800084EDB90AD4EDB60AB1EE690AF4EEE90A57
:107D9000F1EE10FAC4BFB0EE690A84EDB60A06DC53
:107DA000F4EEC00AF1EE10FA38BF84EDB60A69EEBF
:107DB000A90A94EDB60A94EDB61A40EE410AB1EE66
:107DC000E00AB4EE400AF1EE10FA1CBFB0EE600A11
:107DD000FFF724F8F1EE400A30EE680A94EDB71A86
:107DE00070EEE80AB4EEC01AF1EE10FAC8BF84EDE6
:107DF000B70A06DCB4EEE01AF1EE10FA38BFC4EDB3
:107E0000B70A94EDB80ABE6A20EE2BBA94EDB90A0F
:107E1000304609EE40BA94EDB90A60EE2B9A94ED23
:107E2000B80A49EE009A04F04FFC41EC1C0B1BEE23
:107E3000100A04F049FC17E083F9A23F7A81CFBE13
:107E400000000000000000000AD7233C00000000F2
:107E5000555555555555E53F000000E07AB6EB3FC6
:107E6000FFE6DB2EFFE6DB2E53EC1A2B04F002FAC2
:107E700053EC1C2B04F0FEF903F082FF00EE100A15
:107E8000304684EDBA0A04F01FFC41EC1C0B19EEDD
:107E9000900A04F019FC53EC1A2B04F0EBF953ECA4
:107EA0001C2B04F0E7F903F06BFF00EE100A00272B
:107EB00084EDBB0A94EDBA0AD4EDBB0A20EE2B0A7E
:107EC00009EE200A84EDB30A94EDBB0AD4EDBA0A98
:107ED00020EE2B0A09EE600A84EDB20A687B0028C6
:107EE00000F08C8194ED900AD5ED058A10EE100A11
:107EF00004F0EAFB53EC1A2B04F0BCF99FEDD41B01
:107F000053EC112B04F0B6F903F03AFF00EE100A1F
:107F1000F4EEC08AF1EE10FA08DCF0EE680AB1EE79
:107F2000400AF4EEC00AF1EE10FA01D2F0EE408AF7
:107F3000E87BDFF824930028288BD4EDA30A09EB13
:107F4000800109F5807691ED000A4FF0010A20EEDC
:107F5000200A7DD006EB800194EDA41AD1ED000A31
:107F600005EB800000EEC10AD5ED040A30EE609A00
:107F700080ED289A19EE100A58452BDD94ED6E0A13
:107F800020EE090A10EE100A04F09EFB98ED030A99
:107F900041EC1C0B20EE090A10EE100A04F094FBD1
:107FA00041EC1D0B18EE900A04F08EFB9FEDAC1B0C
:107FB00053EC112B04F05EF953EC1D2B04F09AFAEC
:107FC00053EC1C2B03F0C2FF03F0DAFE298B05EB08
:107FD0008101C861288B401C80B22883202824BFDF
:107FE0002F8385F80EA094ED900A10EE100A04F08D
:107FF0006BFB53EC1A2B04F03DF9B5F8188041ECFB
:108000001C0B09EB880090ED000A20EE280A10EE08
:10801000100A04F059FB53EC1C2B03F097FF41ECC2
:108020001C0BB0EE4B0A10EE100A04F04DFB53ECA3
:108030001C2B03F0D7FE03F0A3FE94ED900A09EE8B
:10804000100A10EE100A04F03FFB53EC1A2B00E06C
:108050003BE004F00FF941EC1A0B06EB880090EDC1
:10806000000A20EE280A10EE100A04F02DFB53EC53
:108070001A2B03F06BFF41EC1A0BB0EE690A10EEFD
:10808000100A04F021FB53EC1A2B04F033FA03F02E
:1080900077FE08EE900A78E094EDAA0AD4ED700A13
:1080A000D4ED701A20EE200AD4ED960A20EE200AB4
:1080B00060EE010A94EDAB0A20EE210AD4ED961A87
:1080C00020EE210A20EE010AC5E506EB800094EDC2
:1080D000A41AD0ED000A00EEC10A85ED040A94ED61
:1080E000900A10EE100A04F0EFFA53EC1A2B04F089
:1080F000C1F8B5F8188041EC1C0B09EB880090ED35
:10810000000A20EE280A10EE100A04F0DDFA53EC03
:108110001C2B03F01BFF41EC1C0BB0EE4B0A10EEC6
:10812000100A04F0D1FA53EC1C2B04F0E3F903F02D
:1081300027FE94ED900A09EE100A10EE100A04F0E2
:10814000C3FA53EC1A2B04F095F841EC1A0B06EB2A
:10815000880090ED000A20EE280A10EE100A04F0C4
:10816000B3FA53EC1A2B03F0F1FE41EC1A0BB0EE0C
:10817000690A10EE100A04F0A7FA53EC1A2B03F068
:1081800031FE03F0FDFD08EE900A69EE090A9FED4D
:1081900036AA48EEA80AB1EEE00AB4EE400AF1EEC3
:1081A00010FA1CBFB0EE600AFEF738FE10EE100A9F
:1081B0002E498842B8BFB0EE480AB4EECA0AF1EEC2
:1081C00010FA05DDCAEE000A29EE209A68EEA08AB0
:1081D000E87B00280CBF01200020E87304F13A007E
:1081E000831E021F811F00904FF47A70F0EE680A20
:1081F000B0EE490A03F030FB84F83CA004A80090DC
:1082000003AB02AA01A94FF47A70F0EE690AB0EE4E
:108210004B0A03F021FB217E154851B101684F63E1
:1082200001688F630068C76305B0BDEC0C8BBDE8C7
:10823000F08F0268019951630268029991630068A6
:108240000399C163F0E700BFB0EE408AA5E40000E7
:10825000CDCCCCCCCCCCEC3FF8C700080000000063
:10826000000000000000E03F0C9E523FFFE6DB2EC6
:10827000840200200000000010B510EE100A2DED61
:10828000028B1B49DFED1B8A9FED1B8A884221DB95
:1082900010EE100A04F018FA9FED191B53EC112B85
:1082A00004F028F903F06CFD00EE900A20EEA81A05
:1082B000F5EEC00AF1EE10FA03D200BFB1EE600A8B
:1082C00001E0B0EE600A21EE000A00EE880ABDEC83
:1082D000028B10BDDFED0C0A70EE200A20EEA81A0A
:1082E000F5EEC00AF1EE10FAEBD2E7E7000000006D
:1082F000DB0FC93F7A81CFBE83F9A23F00000000A7
:10830000000000887CD91240DB0FC93F000000004C
:108310002DE9F04109212DED088B7D48FAF784F90C
:1083200000EE100AF8EE400A9FED7A8A80EE880A85
:1083300010EE100A04F0C8F99FED779B53EC192B4F
:1083400003F098FF03F01CFD0AEE900A092174481F
:10835000FAF76AF900EE100AF8EE400A80EE880A91
:1083600010EE100A04F0B0F953EC192B03F082FF61
:1083700003F006FD08EE900A40F20F116848FAF784
:1083800053F900EE100AF8EE400A80EE880A10EE6B
:10839000100A04F099F953EC192B03F06BFF03F06A
:1083A000EFFC0AEE100A40F215215D48FAF73CF99D
:1083B00000EE100AF8EE400A80EE880A10EE100A6D
:1083C00004F082F953EC192B03F054FF03F0D8FCAE
:1083D000074640F21B315248FAF726F900EE100A20
:1083E000F8EE400A80EE880A10EE100A04F06CF9EC
:1083F00053EC192B03F03EFF03F0C2FC064640F29B
:108400000F114348FAF710F900EE100AF8EE400A8F
:1084100080EE880A10EE100A04F056F953EC192B7E
:1084200003F028FF03F0ACFC3AEEA80AF0EE080ACD
:1084300005463C4830EE0A0A846880EE208A84EDC6
:108440008C8A3AEEC80A10EE100A04F03DF99FED4E
:1084500036BB53EC1B2B03F079FD03F091FC38EE97
:10846000C80A09EE100A10EE100A04F02DF953ECB8
:108470001B2B03F06BFD03F083FC3AEE480A08EE79
:10848000900A10EE100A04F01FF953EC1B2B03F0B6
:108490005DFD03F075FCDFED260A00EE100A38469C
:1084A000C9EE209A88EEA09AC4ED899A80EE201A2F
:1084B00084ED8A9A84ED8B1A04F006F99FED1E8BE9
:1084C00053EC182B03F042FD03F05AFCC4F81802D9
:1084D000304604F0F9F853EC182B03F037FD03F0A5
:1084E0004FFCC4F81C02284604F0EEF853EC182B9D
:1084F00003F02CFD03F044FCC4F82002C4EDA19A63
:1085000084EDA29ABDEC088BBDE8F081000000006C
:108510009800002000F07F45EC51B81E85EB094023
:10852000040100202800002048E17A14AE472240D0
:10853000A69B443B0000000011ACA3CDFB14C73F39
:108540002DE9F04F04462DED108B93B000F5BE7968
:1085500000F512754FF0FF30B0EE409A4FF43E71C7
:108560000990D348F8F7B2F900F0A2FF9FEDD10AC5
:1085700084ED650A9FEDD00A84ED660A9FEDCF0A6F
:10858000012784ED670A84F8C871DFEDCD9AC4ED48
:108590006B9A9FEDCCDA84ED6CDA9FEDCB0A84ED1B
:1085A0006D0A9FEDCA0A84ED6E0ADFEDC9DAF7EEB7
:1085B000008AC4EDACDA9FEDC7EA84ED71EADFED25
:1085C000C6EAC4ED9CEADFEDC50A0026C4ED9D0AAB
:1085D00084F84D6084F8646284F8C9619FEDC08AB4
:1085E00084ED5A8A84ED0B8A84ED9F8A84ED9E8AFD
:1085F0009FEDBA0A314684ED050A267684F8F462C6
:10860000B848FCF7CDFF0421B648FCF7C9FF0821A4
:10861000B448FCF7C5FF0021B248FCF729FA042151
:10862000B048FCF725FA0821AE48FCF721FA84F897
:10863000C961022084F8780184F8287084F8657292
:108640009FEDA90A4FF47A7089ED0A0AC9ED0B8AE9
:10865000FBF7D0F88DED018A8DED088A8DED0C8A3F
:108660000CAB08AA01A9B0EE491ADFEDA00AB2EEE0
:10867000040A204600F0C4FC8DED0D8A8DED0E8AB3
:108680000F96DDED0C0AB0EE041A0FAB80EE810AF6
:108690000EAA0DA99DED082ADDED011A9FED941A91
:1086A000DFED940A204600F08FF90F983C28C4BFF4
:1086B0009DED0E0A8DED0D0A0C9EE661DDED018A41
:1086C000C5ED038A9DED089A85ED049A9FED8A0A0F
:1086D000D4ED970A04F5BE7704F512789FED88ABC8
:1086E0009FED89BB9FED8ACB29EE00FA68EE80FAF8
:1086F00020EEA00A10EE100A03F0E6FF41EC100B8A
:1087000051EC1C0B53EC102B03F020FC03F038FB56
:1087100000EE100A87ED0AFAC7ED0BFADFED7E0ACC
:10872000304620EE200A88ED060A03F0CDFF06460B
:108730000F4619EE100A03F0C7FF9FED791B53ECAB
:10874000112B03F097FD82468B4618EE900A03F03A
:10875000BBFF53EC1A2B03F08DFD02AA002382E825
:10876000030CDFF8C4A1042170A2481FCDF800A0BB
:10877000CDE9066701F02CF8686903F0A5FF53EC1A
:108780001A2B03F077FDCDE902010421002373A227
:10879000CDF800A0481F01F01BF8A86903F094FF72
:1087A00053EC1B2B03F066FD07468846D9F82C00D6
:1087B00003F08AFF05460E46D9F8280003F084FF2F
:1087C0000DF1080BCDF800A08BE8E3010421002394
:1087D0006EA2481F00F0FCFF794F9FED360A01267C
:1087E0007868002580ED650A9FED330A80ED660A02
:1087F0009FED320A80ED670A80F8C861C0ED6B9A80
:108800009FED310A80ED6CDA80ED6D0A9FED2F0A45
:1088100080ED6E0AC0EDACDA80ED71EA9FED2F0AB3
:10882000C0ED9CEA80ED9D0A80F84D5080F86452BE
:1088300080F8C95180ED5A8A80ED0B8A80ED9F8ABD
:1088400080ED9E8A80ED050A0576B8684570057052
:1088500000F02EFE9FED5B0A786880ED5A0A80F8E2
:10886000786102F0D7FF257684F8F46200211D4874
:10887000FCF722FF04211B48FCF71EFF08211948C2
:10888000FCF71AFF00211748FCF756F90421154898
:10889000FCF752F908211348FCF74EF941F28830F1
:1088A000FAF7A8FF099813B0BDEC108BBDE8F08F64
:1088B000A80300208FC2F53C0000A0420AD7233C49
:1088C0003333733F6666663FCDCC4C3E66AF84461D
:1088D0006F12833AE8F576380000FA440060EA4601
:1088E00000000000840200206F12033A0000F042F2
:1088F0000000E1449A99993E00007A44000000008B
:108900000000000000408F408DEDB5A0F7C6B03EDE
:10891000FCA9F1D24D62503F0024744900000000D0
:108920000000000080842E41F8C900081B5B33342E
:108930006D44282564292025733A1B5B33396D204B
:10894000723A256C662C6C3A256C662C696D6178E0
:108950003A256C660D0A0D0A000000001B5B3334DB
:108960006D44282564292025733A1B5B33396D201B
:108970006D6F746F725F666C75785F6C696E6B613A
:1089800067653A256C660D0A0D0A00001B5B3334DF
:108990006D44282564292025733A1B5B33396D20EB
:1089A0006B703A256C662C6B693A256C662C676196
:1089B000696E3A256C660D0A0D0A0D0A000000006A
:1089C0001400002000409C452DE9FF4F04462DED8A
:1089D000060B4FF0000B00F5BE7092460E462DEDD3
:1089E000108BF0EE409A81B0B7EE009AB0EE42FAEA
:1089F000F0EE41EAB0EE60EA04F51278D9469FED58
:108A0000F20A84F8C9B180ED0A0A80ED0B9A0320BE
:108A100084F8C8014FF47A70FAF7ECFE00279FED56
:108A2000EBAA3D46B0EE4A8ADFEDE9AADFEDE9BAEE
:108A300068EE2B8A00EE105A84ED9FAA0120B8EE52
:108A4000C00A60EE290A80EEAA0A84ED9E0A84ED2F
:108A50005C8AC4ED5B8AFAF7CDFE6D1CC82DE9DB9C
:108A6000B0EE4ABAF0EE4AAA5FF0000594ED090AAA
:108A70003AEE09AA0120B0EEC00A70EE2AAAFAF76F
:108A8000B9FE6D1CB5F57A7FF0DB8AEE8A0AF0EE4E
:108A90004B8A8DED000A9FEDD0CB43F698259FEDD4
:108AA000D0DB77E01EEE900A03F00EFE53EC1C2B99
:108AB00003F04CFA41EC1A0B18EE100A03F004FE16
:108AC00053EC1A2B03F08EF903F05AF908EE100A52
:108AD00084ED9FBAC4ED9E9A28EE2B0A84ED5C8A41
:108AE000022084ED5B0A7F1CFAF784FEF4EEE8FABC
:108AF000F1EE10FAC8BFF0EE6F8ABD4204DCBFEEA3
:108B0000000A86ED000A4FE0B7F57A6F3DDD18EEFA
:108B1000900A03F0D9FD53EC1D2B03F0ABFB41ECA5
:108B20001A0B1FEE900A03F0CFFD53EC1A2B03F043
:108B300065FB09D2B8EE000A86ED000A4FF47A70A0
:108B4000FAF758FE00F038B99DED000A10EE100A51
:108B500003F0BAFD9FEDA41B53EC112B03F08AFB2D
:108B600041EC1A0B1EEE100A03F0AEFD53EC1A2B6B
:108B700003F044FB09D2B8EE080A86ED000A4FF470
:108B80007A70FAF737FE00F017B918EE100A984914
:108B9000884209DA94ED090AF0EEC0FAF4EECEFA52
:108BA000F1EE10FAFFF47EAF4FF47A70FAF722FE7E
:108BB000AF4280F20181F0EE4BCA0025F0EE6C8AE4
:108BC00041F28837F0EE689AB0EE68AAF0EE68AA33
:108BD000B0EE68BA94EDB20A3BEE09BA012070EE2D
:108BE000288A94EDB30A70EE299A94EDAA0A30EE21
:108BF0000AAA94EDAB0A70EE2AAAFAF7FBFD6D1CE7
:108C0000BD42E7DB88EE8B0A28EE2B9AC9EE8B0A71
:108C100020EE000ACAEE0B9A00EEA00AF1EEC00A9E
:108C2000CAEE8B8AF4EE600AF1EE10FA03D0FEF77A
:108C3000F5F8F0EE400A10EE907A69EEA90A48EED7
:108C4000A80AB1EEE00AB4EE400AF1EE10FA1CBF39
:108C5000B0EE600AFEF7E2F810EE105A1FEE100AAE
:108C600003F032FD41EC180B284603F02DFD9FED7B
:108C700062AB53EC1A2B03F0FDFA53EC182B03F004
:108C8000F9FA41EC1B0B19EE100A03F01DFD41EC43
:108C9000190B284603F018FD9DED140A41EC180B42
:108CA00010EE100A03F010FD53EC1A2B03F0E2FA59
:108CB00053EC182B03F0DEFA41EC180B384603F0A6
:108CC00003FD53EC182B03F015FC53EC192B03F0A8
:108CD0003DF953EC1B2B03F00DFC03F051F8306011
:108CE0009DED140A88ED030A88ED04FA96ED000A5A
:108CF00088ED050A96ED000A20EE000ADFED400A35
:108D00004FF4FA7080EE801A88ED061AFAF772FDB9
:108D100084F81890012084F8F40200213948FCF707
:108D2000CBFC04213748FCF7C7FC08213548FCF789
:108D3000C3FC00213348FBF7FFFE04213148FBF759
:108D4000FBFE08212F48FBF7F7FE84F8659284F8B4
:108D500028900520FAF74EFD00262B4FB0EE6CCA86
:108D6000354644F6206800BF94ED090AD4ED040AA4
:108D7000B0EEC00A10EE100A87420CDA94EDB20A87
:108D80000120761C80EE201A31EE0CCAFAF732FD73
:108D90006D1C4545E8DB002ED8BFCAED00CA07DDD3
:108DA00000EE106AB8EEC00ACCEE000ACAED000A66
:108DB0001A984FF0010B066001B05846BDEC108BBD
:108DC0000AB0BDE8F08F00006F12033A0000000007
:108DD000000048435077D63D0000000000408F401F
:108DE000666666666666E63F9A9999999999F13F33
:108DF00000803B4600000000555555555555E53F50
:108E00000000FA43840200200AD7A33D00000000BE
:108E10002DE9FF4F05462DED020B00F14004904671
:108E20002DED0E8B87B00F46F0EE40AA002690F88D
:108E30004E0040B96420FAF7DDFC761C642EDCBFDE
:108E4000A07B0028F6D09FED648A4FF00006B0EEBC
:108E500048AAB0EE489AF0EE489AF0EE488A9FEDA4
:108E600060CB002F7CDDDFF88091DFF880B14FF020
:108E7000010A9FED5FDBB7EE00EA00BF4FF492718D
:108E800005F14000F7F722FD84F80DA095ED900A5A
:108E900020EE2A0A10EE100A03F016FCB0EE4C1A6F
:108EA000F0EE6C1A53EC112B03F0E4F902F068FFBA
:108EB0006061C4E9009B0120C4F80890FAF79AFCAD
:108EC0008DED008A8DED018A8DED028A8DED038A8C
:108ED0008DED048A8DED058A236801AA694604F1A7
:108EE0001C009847636803AA02A904F11C00984774
:108EF000A36805AA04A904F1A00098479DED000A03
:108F00003AEE00AA9DED020A60EE000A9DED030A0A
:108F100040EE000AB1EEE00AB4EE400AF1EE10FABB
:108F20001CBFB0EE600AFDF779FF10EE100A03F0E7
:108F3000CBFB53EC1D2B03F09DF941EC1B0B19EE01
:108F4000100A03F0C1FB53EC1B2B02F04BFF02F0A5
:108F500017FF9DED040A09EE100A79EE809A00E0F1
:108F600004E078EE8E8A761CBE4287DBB8F1000FF3
:108F700003D089EEA80A88ED000A9FED1FBB1A985E
:108F800088B189EE280A10EE100A03F09DFB53EC1D
:108F90001B2B03F06FF953EC1C2B03F06BF902F061
:108FA000EFFE1A9908608AEE280A10EE100A03F004
:108FB0008BFB53EC1B2B03F05DF953EC1C2B03F0E4
:108FC00059F902F0DDFE07B000EE100ABDEC0E8B81
:108FD00006B0BDE8F08F00000000000000000000B7
:108FE000555555555555E53FEDBB000835BC0008B6
:108FF00000000000000000400000000080842E41BE
:109000002DE9F04F1F462DED0C8B83B090460D4699
:10901000F0EE418AF0EE60BAB0EE40AA04469FED51
:10902000729B9FED73BA00F5127680ED9FBA80EDCA
:109030009EBA032084F8C8019FED6E0A84ED690A88
:10904000B7EE000A84ED6A0A9FED6B0A1AEE100A69
:109050008BEE808A03F038FB53EC192B03F00AF9EE
:1090600041EC1C0B18EE100A03F02EFB53EC1C2BEA
:1090700003F0C4F80BD21AEE100A03F025FB53ECF0
:10908000192B03F0F7F802F07BFE08EE100AF0EE61
:109090004BCAB4EEEB8AF1EE10FA3CBF9FED58AB31
:1090A000B7EE08CA28D200220A21B0EE480A2046AC
:1090B00000F0B6F8B0EE40DAF0EE48CA18EE900ACA
:1090C00003F002FB53EC1A2B02F040FF28EE080AD3
:1090D00041EC190B20EE0D0A10EE100A03F0F4FA21
:1090E00053EC192B03F0C4F906D928EE0C8AF4EEE0
:1090F000C8BAF1EE10FAD6DC00226421B0EE6C0A98
:10910000204600F08DF885ED000A86ED030A0A205E
:10911000019001204FF0000A84F84D009FED3A8A3B
:10912000DFF8E8B09FED3AABD14604F140068DED93
:1091300000BA00236A460521B0EE480A2046FFF730
:1091400067FE9DED000AB0EE489AB4EEEC0AF1EE2F
:1091500010FA0FDA18EE100A03F0B6FA53EC1A2BD5
:1091600002F040FE02F00CFE08EE100A18EE100AA3
:109170005845DEDB4FF47A70FAF73CFB4B4652461B
:10918000B0EE490A20460199FFF742FE10EE109A10
:1091900084ED9EBA4FF47A70FAF72CFB00207073BE
:1091A000484603F091FA9FED1C1B53EC112B03F082
:1091B00061F802F0E5FDC8F8000095ED000AC8EE80
:1091C000800AB1EEE00AB4EE400AF1EE10FA1CBFDC
:1091D000B0EE600AFDF722FE87ED000A03B0012021
:1091E000BDEC0C8BBDE8F08F9A9999999999F13F54
:1091F000000000006F12033A000048420000000027
:1092000000000000000008400AD7A33CCDCC4C3E33
:109210007B14AE47E17A843F8DEDB5A0F7C6B03E32
:109220002DE9F04101272DED048B90460E46B0EE5E
:10923000408A044680F828709FED619AF0EEC88A53
:1092400080ED0B9A80ED9F9A80ED9E9A022084F823
:109250007801DFED5C9A5C4D25E000BFC8EEA90AFD
:10926000B4EEC80AF1EE10FA09D230EE200AF0EEA0
:10927000480AB4EEE00AF1EE10FA0DD209E00FDD73
:1092800030EE600AF0EE480AB4EEE00AF1EE10FAB1
:1092900002DD84ED9E0A03E0B0EE480A84ED9E0AEA
:1092A0000120FAF7A7FA94ED9E0A70EE480AF0EE54
:1092B000E00A10EE900AA842D0DA4FF4FA70FAF7FA
:1092C00099FA0025F0EE498AB0EE498A002E30D98D
:1092D0000120FAF78FFA94EDAB0AD4EDAA0A20EE3A
:1092E000000A00EEA00AF1EEC00AF4EE600AF1EE08
:1092F00010FA03D0FDF792FDF0EE400A94EDB30AA8
:1093000070EEA88AD4EDB20A20EE000A00EEA00AA0
:10931000F1EEC00AF4EE600AF1EE10FA03D0FDF7A8
:109320007DFDF0EE400A681C30EE888A85B2B542B9
:10933000CED300EE105A84ED9E9A4FF47A70B8EEB8
:10934000400AC8EE809A00EE105AB8EE400AC8EE05
:10935000008AFAF74FFAB8F1000F1BD000202076F0
:10936000014684F8F4721948FCF7A6F9042117485D
:10937000FCF7A2F908211548FCF79EF900211348D3
:10938000FBF7DAFB04211148FBF7D6FB08210F4855
:10939000FBF7D2FB88EEA90A10EE100A03F094F94D
:1093A0009FED0B1B53EC112B02F064FF02F0E8FC65
:1093B000BDEC048B00EE100ABDE8F0810000000057
:1093C000000000000000FA436F12833A840200207C
:1093D000555555555555E53FD0ED6F0A90ED5A0A54
:1093E0000022F0EEE00AB0EEC01A00F5BE7170EE99
:1093F000C10AF0EE000A90ED051A9FED2C1A20EE3E
:10940000200ADFED290A027690ED653A60EE200A27
:10941000D0ED662A90ED672AFAEE001A80EE810AF6
:1094200080ED590AD0ED700A30EE601A91ED090A0C
:10943000F2EE000A30EE010A81ED090AB4EEE00A0C
:10944000F1EE10FAC8BFC1ED090A06DCB4EEE10A7C
:10945000F1EE10FA38BFC1ED091A21EE030AD0ED82
:109460005D0A71EE600A02EEA00AD1ED090A02EE71
:10947000200AD0ED070AF1EE601AB4EEE00AF1EE30
:1094800010FAC8BFB0EE600A08DCF0EE400AF4EE55
:10949000E10AF1EE10FA38BFB0EE610A80ED9E0AE3
:1094A00080ED5D1A70470000DB0F494000007042FC
:1094B00010B503222DED028B1B491C48F9F764FF00
:1094C000194C20889FED1A8A00EE100AF8EE400A27
:1094D00080EE880A10EE100A03F0F6F89FED161BD6
:1094E00053EC112B02F0C6FE9FED151B53EC112B14
:1094F00002F02CFD02F044FCA4F10C019FED120AD5
:109500000968C1F8400281ED910AA08800EE100AB6
:10951000B8EE400AC0EE080AC1EDBC0ABDEC028BF1
:1095200010BD000000000000200000209800002076
:1095300000F07F45000000006666666666660A40C9
:10954000A418EA2F47A4B83F333353402DE9F74F0F
:1095500082B017000E464FF0000404BF05B0BDE80E
:10956000F08F0B464EA200210097029800F030F9D0
:1095700026F00F05711BC8190F3020F00F0A504A52
:109580000021029800F024F9BAF1000F12BF06EB97
:10959000070B05B0BDE8F08FDFF828812A4608EBFD
:1095A000040049A1F6F770FF044400274FF020099A
:1095B000E819B04228BF834509D8601C08F8049018
:1095C00008F80090A01CE41C08F8009006E0EA5D92
:1095D00008EB040041A1F6F757FF04447F1C102F4D
:1095E000E6DB7C2008F80400601CA41C08F800904E
:1095F0000027E819B04228BF834598BF08F80490B7
:109600000FD9EA5DA2F120005E2884BF2E2008F861
:10961000040006D808EB040032A1F6F735FF044435
:1096200000E0641C7F1C102FE3DB7C2008F80400A2
:10963000601C0D2108F80010A01C0A2108F8001079
:10964000E11C02984FF000080FFA81F9B0F1FF3FDA
:1096500004BF0024244F10D000281CBF017900292A
:1096600003D0026849461748904700241035BAF1E4
:10967000100A91D105B0BDE8F08F57F824000028FA
:109680001CBF0179002906D04179414503D3026806
:1096900049460C489047601C04B2052CEDDBE4E71A
:1096A0006D656D6F7279206F66203078253038785F
:1096B0002C2073697A653A2025643A0D0A0000006F
:1096C00008D000081C6700201B5B33316D30782503
:1096D0003038783A201B5B33396D00002530327802
:1096E000200000002563000008670020002918BF43
:1096F00081600D490A68002A04BF086070474A6803
:10970000002A04BF486070478A68002A04BF886046
:109710007047CA68002A04BFC86070470A69002AF7
:1097200008BF0861704700000867002000B583B0DB
:1097300000281EBF417103B000BD5022134806A18E
:109740000090CDE901120121002311A2881E00F032
:109750003FF803B000BD00002E2E5C4472697665B0
:1097600072735C6C65747465722D7368656C6C2DB6
:10977000332E302E365C657874656E73696F6E7348
:109780005C6C6F675C6C6F672E63000055CC0008E3
:109790001B5B33316D45282564292025733A1B5BFB
:1097A00033396D20226C6F67222061737365727488
:1097B000206661696C65642061742066696C653A35
:1097C0002025732C206C696E653A2025640D0A00F3
:1097D0000FB42DE9F0410E46044609ABFF211C48A9
:1097E000089AF6F737FE07B2B4F1FF3F04BF002432
:1097F000184D16D0002C19BF20790028BDE8F001C3
:109800005DF814FB6079B0423CBFBDE8F0015DF843
:1098100014FB394622680E489047BDE8F0015DF818
:1098200014FB55F8240000281CBF0179002906D03C
:109830004179B14203D30268394605489047601C1C
:1098400004B2052CEDDBBDE8F0015DF814FB00006F
:109850001C67002008670020FAF714F9FCF758FE8F
:10986000FCF7ACFCFCF78CFCFCF75CFBFCF704FCA5
:10987000FCF7EEFCFCF70CFDFCF72AFDFCF764FDA1
:10988000FCF708FEFCF744FD1C48FAF761FA1C4897
:10989000FAF75EFA1B48FAF75BFA1B48FBF7EEF99A
:1098A00000211948FBF77CFE04211748FBF778FEDE
:1098B00008211548FBF774FE0C211348FBF770FED6
:1098C00000211148FBF7D4F804210F48FBF7D0F82A
:1098D00008210D48FBF7CCF80C48F8F7BDFE0C4802
:1098E000F8F7BAFE0B48FBF701FA02F0B3F802F002
:1098F0004BF900BF02F020F9FCE70000D001002086
:109900000C02002048020020840200209800002061
:1099100004010020D002002070B505462DED108B0B
:1099200000F51274D0F8580202F0CEFE9FED889B2D
:1099300053EC192B02F09EFC02F022FA08EE100AFA
:10994000E06802F0C1FE53EC192B02F093FC02F028
:1099500017FA00EE100AD5EDA30A95EDA41A207FA0
:1099600060EE80EA21EE00EA94ED050A20EE88BA66
:10997000F6EE000A60EE009A94ED060A61EE08AA7F
:1099800020EE209A10B101282DD082E0D4ED001AEB
:1099900094ED010A95EDBA2A31EECB1A30EE6A0A3F
:1099A00032EE6E2A61EE010A21EE091A40EE000A3B
:1099B00020EE090A79EEE00A01EE202A95EDBB1AA5
:1099C00031EE4E1A00EE201A95ED710A42EE001AA1
:1099D000C4ED001A94ED010AD5ED710A01EE200ADA
:1099E00084ED010A55E095ED710AF1EE080A0026B2
:1099F000C0EE20BA9FED58CBB2EE040A29EE00FA71
:109A0000D4ED00DA94ED01DAF0EE498A7DEECBFA7E
:109A10003DEE6AAA19EE900A2FEEAF0A0AEE0A0A84
:109A200039EEC08A02F050FE53EC1C2B02F022FCEF
:109A300002F0A6F900EE100AB4EEC08AF1EE10FAB8
:109A400008DCF0EE480AB1EE400AF4EEC00AF1EE8E
:109A500010FA03D2B0EE408AF0EE4F8A95EDBA0AC2
:109A60006FEEA80A2AEE281A30EE6E0A761C062E31
:109A700000EE880AD5EDBB0A70EECE0A40EE2BDA76
:109A800041EE080AC4ED00DA00EEABDA84ED01DA4B
:109A9000B6DB94ED000A9FED328BB4EE400AF1EE96
:109AA00010FA1CBFB0EE480AF0EE680A05D110EEBD
:109AB000100A02F009FE41EC100B51EC100B02F001
:109AC0005FF909EE100A84ED009A94ED010AB4EEF4
:109AD000400AF1EE10FA05D110EE100A02F0F4FD82
:109AE00041EC180B51EC180B02F04AF900EE100A89
:109AF00079EE4B0A84ED010A30EE6A0AFDF70CFD9F
:109B000084ED020A10EE106A95ED9A0AD5ED710AFD
:109B100020EE200A10EE100A02F0D6FD9FED121B77
:109B200053EC112B02F0A6FB41EC180B304602F06F
:109B3000CBFD53EC182B02F055F902F021F9A0608F
:109B400004F10800BDEC108BBDE8704002F0C4B811
:109B50009A9999999999D93F9A9999999999C93FB7
:109B60000000000000000000000000000000E03FD6
:109B7000012100F029B8000070B500F091FB05004C
:109B800008BF70BD0848846BA86E00281ABF2078F3
:109B9000002870BDC0B2A96E04F101048847207886
:109BA0000028F7D170BD00003400002010B500F08F
:109BB00077FB002808BF10BDBDE8104000F0DCBEF8
:109BC0004FF0FF31AFF3008070B50446B1F1FF3FB5
:109BD0000CBF01200020E389002B04BF012970BDC8
:109BE000A289934204BFB1F1FF3F70BD4FF0000561
:109BF000934208BF01293DD0A2EB0301A1EB000174
:109C0000002932DD002211F0010106D022691A4438
:109C1000135C024402F8013C0122A389B4F80EC08F
:109C2000A3EB0C031B1A8B421FDD00BF23691FFA35
:109C30008CFC9C448318521C1CF803606344891CF0
:109C400003F8016CB4F80EC023699C448318521CBD
:109C50001CF80360634403F8016CA389B4F80EC0D8
:109C6000A3EB0C031B1A8B42E0DCA189491EA181E6
:109C7000E8B916E0581EE081501E80B2A08121692B
:109C800000260D541C4DA06E38B100BFA16E15F812
:109C9000010B884728780028F8D1711ECEB2F1D286
:109CA00070BDE089401EE081A16E08208847A1892F
:109CB00020694554B4F90E50A089A84208DD2069F6
:109CC000A16E405D8847681C05B2A089A842F6DCF9
:109CD000A16E20208847A089E189401A401C05B266
:109CE000002DD8BF70BD0820A16E8847681E05B240
:109CF000002DF8DC70BD0000289D000870B50546F9
:109D0000481EC6B238BF70BD07A4A86E38B100BFE8
:109D1000A96E14F8010B884720780028F8D1711E2D
:109D2000CEB2F1D270BD0000082008004FF0FF3124
:109D300000F000BC10B5044600F006F82046BDE86F
:109D40001040012101F0F4BB2DE9F0410446808967
:109D5000002808BFBDE8F08100262169754D0E542A
:109D600094F8600010F0010F00F0B480A4F8546083
:109D7000B4F8500058B1B4F852002169002808BF67
:109D8000052004EB8000806BF6F7C8FD50B3B4F8F3
:109D9000521004EB81002169C26B00200B78002B6C
:109DA00008BF16700DD00B5C1354401C80B20B5CC6
:109DB000002BF8D1165420B1B4F85200401CA4F87E
:109DC0005200B4F85000401C81B2A4F8501005298C
:109DD00084BF0521A4F85010B4F85200052828BF0C
:109DE000A4F8526000216661A661E661266266629F
:109DF000A662E6622663E686A38901220846002B56
:109E00000AD837E041B1236913F800C0BCF1220F32
:109E10000ED0012A11D01AE0236913F800C0BCF15A
:109E2000200F12BFBCF1000F1E5401221DD0EAE723
:109E3000002914BF00210121EBE7E28E082A05D298
:109E40001F1804EB8203521CE2865F610022236923
:109E500013F800C0BCF15C0F07D100F1010C13F83E
:109E60000C30002B18BF1FFA8CF0401CA38980B265
:109E70008342C7D8E681A681E08E002808BFBDE8EE
:109E8000F0812DA6A06E30B1A16E16F8010B8847A7
:109E900030780028F8D100232046A26D616900F0D7
:109EA00035FF28B101462046BDE8F04100F08ABEEA
:109EB000A06EAD6900281ABF28780028BDE8F0819F
:109EC000C0B2A16E05F10105884728780028F7D1B6
:109ED000BDE8F081206881682069F6F71FFD90B128
:109EE000A06E6D6B00281CBF2878002807D0A16EDB
:109EF000C0B205F10105884728780028F7D1A6816E
:109F0000E681BDE8F08194F8600040F0010084F83B
:109F10006000A06E2D6800281CBF28780028EED0B5
:109F2000A16EC0B205F10105884728780028F7D155
:109F3000E5E70000340000200D0A00002DE9F041A3
:109F40000B7800240546272B1ED02D2B05D000BFF3
:109F5000A3F13000092800F2AA8000260A25012476
:109F6000B44632462D2B06BF4FF0FF3401200020AF
:109F7000084400230778302F2ED0401C002F41D0FA
:109F800007782E2F3BD133E04A78002AE0D000201A
:109F9000491C5C2A1CBF1046BDE8F08149786E2937
:109FA00004BF0A20BDE8F08109DC302908BFBDE804
:109FB000F081622904BF0820BDE8F08109E0722920
:109FC00004BF0D20BDE8F081742904BF0920BDE85D
:109FD000F0810846BDE8F0814378782B14BF582BF8
:109FE0000323CAD0622B16BF422B01230223C4E7EE
:109FF00090F80180B8F1000F01D0042310E0401C5C
:10A00000002FBDD1012B08BF022508D0022B04BFB1
:10A010000825012604D0032B08BF102500D10226F5
:10A020008819B4F1FF3F0CBF0121002108440178D9
:10A03000C1B3C9B22E2908BF012218D0A1F1300640
:10A04000092E98BFF1B20DD9A1F16106052E98BF76
:10A05000573906D9A1F14106052E94BF37390021A1
:10A0600000D8C9B20CFB051C02EB82014A0010F8B3
:10A07000011F0029DDD1042B15D19AB100EE10CAC1
:10A08000B8EE401A00EE102AB8EE400AC1EE000AFF
:10A0900000EE104AB8EEC00A20EE800A10EE100A58
:10A0A000BDE8F081FFE70CFB04F0BDE8F081242B54
:10A0B0000DD0002B04BF0020BDE8F081084600222F
:10A0C000222B04BF481C01460B78A3B920E0487836
:10A0D0000028F3D000232846491CAA6D00F016FE84
:10A0E000002804BF2046BDE8F08101462846BDE8AF
:10A0F000F04100F001B9DBB25C2B0CD0222B0CBF7D
:10A1000084548354521C11F8013F92B2002BF2D1B7
:10A110008454BDE8F08191F801C00023BCF16E0FBA
:10A1200008BF0A2314D008DCBCF1300F10D0BCF1FA
:10A13000620F08BF08230BD009E0BCF1720F08BF03
:10A140000D2305D0BCF1740F08BF092300D063466E
:10A150008354491CD6E72DE9F0478CB08246002095
:10A160000490059006900790089009900A900B9033
:10A170008878561E00F00F081F460D46B045D8BF20
:10A18000B0460024002EC8BF0DF110090ADD07EB10
:10A19000840041685046FFF7D1FE49F82400641C52
:10A1A000A642F4DCB8F1080F4FD2DFE808F004094A
:10A1B0000F161E27323FA86880470CB0BDE8F08715
:10A1C000A968049888470CB0BDE8F087DDE9040170
:10A1D000AA6890470CB0BDE8F087DDE90401AB68E0
:10A1E000069A98470CB0BDE8F08704ACD5F808C0D3
:10A1F00094E80F00E0470CB0BDE8F08708980090A5
:10A2000004ACD5F808C094E80F00E0470CB0BDE8F6
:10A21000F087DDE90801CDE9000104ACD5F808C0FC
:10A2200094E80F00E0470CB0BDE8F087DDE90801D5
:10A230000A9A0292CDE9000104ACD5F808C094E86E
:10A240000F00E0470CB0BDE8F0870CB04FF0FF30D6
:10A25000BDE8F08710B5044610483021FCF7BDFD7D
:10A26000607800F00F00012884BF07280828606884
:10A2700098BF10BD094B08220021197258B100BFC8
:10A2800000F00F0109298CBF57313031521ED2B274
:10A2900000099954F4D1014810BD000090640020D9
:10A2A0001449086800281EBF90F8602012F0020FC1
:10A2B0007047486800281EBF90F8602012F0020F17
:10A2C0007047886800281EBF90F8602012F0020FC7
:10A2D0007047C86800281EBF90F8602012F0020F77
:10A2E0007047086900281ABF90F8601011F0020F3B
:10A2F000002070477C6400204A78002002F00F02A2
:10A30000921E062A28BF7047DFE802F003060A0DF6
:10A310000D0F8868006870478868B0F900007047C2
:10A3200088680078704788687047886841680029A5
:10A3300004BF00207047006808470000002908BFDC
:10A3400070472DE9F05F0446806B18224FF0000C37
:10A3500010F47F4F1CBF00226FF0FF0C0CD110F4E3
:10A360007F0F1CBF0822DFF8DCC005D110F07F4F43
:10A370001CBF10224FF07F4C0020B4F85C90A56DFC
:10A380000646B9F1000F48DDFF27A2F1080307FADE
:10A3900002FB07FA03FE00BF05EB001393F80180F0
:10A3A00008F00F07092F33D193F800A0BAF1000F7E
:10A3B00018BF082F04D027683F781AEA070F27D064
:10A3C00094F8607017F0010F08BF18F0100F1FD03D
:10A3D0005F68D4F8388007EA0C0AC24518D107EA4A
:10A3E0000B0A01FA02F7BA4512D148EA0701A16344
:10A3F0000021002A1CBF5B6813EA0E0F08D105EB91
:10A400000010816800291CBF20468847A6630EE023
:10A41000401C00B28145BFDC49B1A66394F86020BE
:10A42000204622F0040284F8602000F0B1F9F9F728
:10A430001BFB002808BFBDE8F09FF9F715FB606023
:10A44000BDE8F09F0000FFFF70B50B460546FFF723
:10A4500027FF040008BF70BD012D53D0D8BF70BDC9
:10A46000A26D59684FF0000300F050FC2F49060020
:10A470004CD0A06ECD6A00281CBF2878002807D0D9
:10A48000A16EC0B205F10105884728780028F7D1F0
:10A490003046FFF7DFFE0546A06E00281CBF287877
:10A4A000002807D0A16EC0B205F1010588472878C1
:10A4B0000028F7D1A06E1EA538B100BFA16E15F817
:10A4C000010B884728780028F8D1A06EF56800288D
:10A4D0001CBF2878002807D0A16EC0B205F1010585
:10A4E000884728780028F7D1A06E11A5002808BF5A
:10A4F00070BD00BFA16E15F8010B884728780028B1
:10A50000F8D170BDBDE8704000F036BAA06E8D691C
:10A5100000281ABF2878002870BDC0B2A16E05F1CE
:10A520000105884728780028F7D170BD3400002045
:10A530000D0A00002DE9F04100260446002917DD30
:10A54000B4F95420A2F10100A4F85400B4F850105A
:10A55000B4F8520081428CBF0B4603465B429A42DC
:10A5600015DC814288BF08464042A4F854000EE042
:10A57000A8BFBDE8F081B4F85400401C00B2A4F8B4
:10A5800054000028C4BFA4F85460BDE8F081A0893D
:10A59000E189401A05B2002D06DDA16E2020884712
:10A5A000681E05B2002DF8DC207B411ECFB20DD312
:10A5B000254DA06E38B100BFA16E15F8010B88477C
:10A5C00028780028F8D1791ECFB2F1D2B4F954001E
:10A5D000002802BFA681E681BDE8F081B4F85210E0
:10A5E000226908441949401D81FB00314B10A3EB3F
:10A5F000E171494201EB8101084404EB8000C16B29
:10A6000000200B7833B10B5C1354401C80B20B5C00
:10A61000002BF8D11654A081002808BFBDE8F081B6
:10A62000E081A06E256900281ABF28780028BDE8BF
:10A63000F081C0B2A16E05F1010588472878002895
:10A64000F7D1BDE8F0810000289D000867666666C6
:10A6500070B504460020A081E081A4F85400A4F85D
:10A660005000A4F85200206094F8600040F001000F
:10A6700084F860004AF6AB205043800C2161A0862C
:10A680004218E26301EB4002226400EB40020A44FC
:10A69000626401EB800200EB80000844C4E91220F0
:10A6A000354A3648A265801A0009A4F85C0034488F
:10A6B0000168002908BF046012D04168002908BF62
:10A6C00044600DD08168002908BF846008D0C1684B
:10A6D000002908BFC46003D00169002908BF0461D4
:10A6E000002328A1204600F011FB05462060806869
:10A6F00000283BD0F6F778F8002837D0E08E022803
:10A7000004D3A169A868F6F709F978B394F8600052
:10A7100020F001001D4E84F86000A06EB56B00288B
:10A720001CBF2878002807D0A16EC0B205F1010532
:10A73000884728780028F7D194F8600010F0010FBE
:10A740000ED0A06E356800281CBF2878002807D0DE
:10A75000A16EC0B205F10105884728780028F7D11D
:10A760002046BDE87040012100F0E2BE94F8600090
:10A7700040F00100CEE700009CD100082CD3000877
:10A780007C64002047342D464F43000034000020F5
:10A790002DE9F04104468089A28E521E904225DBAD
:10A7A0004C484568A06E00281CBF2878002807D0B8
:10A7B000A16EC0B205F10105884728780028F7D1BD
:10A7C0000121204600F0B4FEA06E256900281ABFC2
:10A7D00028780028BDE8F081C0B2A16E05F101051E
:10A7E000884728780028F7D1BDE8F081B4F80EC07A
:10A7F0000026844510D1236900F10102A281195479
:10A80000A28920698654E08900F10100E0810846B0
:10A81000A16EBDE8F041084728BFBDE8F081A0EB7C
:10A820000C0002B2002A2ADD002312F0010009D038
:10A830000CEB02032569A3F1010C15F80CC005F817
:10A8400003C0012390421ADAB4F80EC0256994447B
:10A85000ACEB030CACF101075B1CEF5D05F80C7071
:10A86000B4F80EC025699444ACEB030CACF10107BD
:10A87000801CEF5D5B1C05F80C709042E4DBE08906
:10A880002369421CE2811954A1892069491C89B2BB
:10A89000A1814654E089401E05B2A089854208DAAC
:10A8A0002069A16E405D8847681C05B2A089854279
:10A8B000F6DBE18980B2401A05B2002DD8BFBDE8B1
:10A8C000F0810820A16E8847681E05B2002DF8DCD3
:10A8D000BDE8F0813400002070B5FFF7E1FC0028EE
:10A8E00008BF70BD0446866D1B484569A06E0028F0
:10A8F0001CBF2878002807D0A16EC0B205F1010561
:10A90000884728780028F7D1B4F85C000025002893
:10A91000D8BF70BD06EB0511487800F00F02082A79
:10A9200012D9092A10D80A781AB123681B781A425A
:10A930000AD094F8602012F0010F08BF10F0100F39
:10A9400002D0204600F054F8681C05B2B4F85C0050
:10A95000A842DFDC70BD00003400002010B50446C2
:10A96000C089002808BF10BD0820A16E8847E08973
:10A97000401EE08110BD000070B50446866D1B4886
:10A980008568A06E00281CBF2878002807D0A16E1B
:10A99000C0B205F10105884728780028F7D1B4F83E
:10A9A0005C0000250028D8BF70BD00BF06EB051174
:10A9B000487800F00F02012A10D80A781AB12368EB
:10A9C0001B781A420AD094F8602012F0010F08BFD9
:10A9D00010F0100F02D0204600F00AF8681C05B2F3
:10A9E000B4F85C00A842E1DC70BD00003400002037
:10A9F0002DE9F04104460D460846FFF72BFC0646BC
:10AA0000A06E0027002816BF30780027002809D044
:10AA1000A16EC0B206F101068847781C87B2307873
:10AA20000028F5D1C7F1160006B2002ED8BF0426C3
:10AA30002020A16E8847701E06B2002EF8D16878DB
:10AA4000574900F00F0001280FD8A06E0E6C0028A7
:10AA50001CBF307800284DD0A16EC0B206F10106AF
:10AA6000884730780028F7D144E007280FD8A06E37
:10AA70004E6C00281CBF307800283BD0A16EC0B2BD
:10AA800006F10106884730780028F7D132E008281F
:10AA90000FD8A06E8E6C00281CBF3078002829D0FB
:10AAA000A16EC0B206F10106884730780028F7D1C0
:10AAB00020E009280FD8A06ECE6C00281CBF30788B
:10AAC000002817D0A16EC0B206F101068847307881
:10AAD0000028F7D10EE0A06E0E6D00281CBF307864
:10AAE000002807D0A16EC0B206F101068847307871
:10AAF0000028F7D1A06E2BA638B100BFA16E16F8C2
:10AB0000010B884730780028F8D1072601272878DC
:10AB100007FA06F1084214BF78202D20A16E88475D
:10AB2000701E46B2002EF2DAA06E1EA638B100BF2B
:10AB3000A16E16F8010B884730780028F8D1ED682F
:10AB4000A06E0026D8B111E0A16E6D1C8847701C64
:10AB500086B2242E0AD3687840B1A16E2E20884791
:10AB6000A16E2E208847A16E2E20884728780028C5
:10AB700018BF0D2803D00A2818BF242EE4D3A06ED6
:10AB800009A5002808BFBDE8F08100BFA16E15F837
:10AB9000010B884728780028F8D1BDE8F081000033
:10ABA00034000020202000000D0A0000C1898289A5
:10ABB000914228BF70474A1C0369C2815A5C816E6A
:10ABC000104608472DE9F041044690F86000002641
:10ABD00040F0020084F8600048780F4610F00F0F34
:10ABE0000BD000F00F00012833D0811E052941D879
:10ABF0003946204600F07CF976E0E08E00250028FA
:10AC000088BF4FF0000819D904EB850670690178F8
:10AC1000222904D180F800807069401C7061F5F72A
:10AC2000E3FD80B27169401E0A5C222A08BF01F868
:10AC30000080681C85B2E08EA842E5D8BA68E08E34
:10AC400004F1140190470646787810F0200F4BD19C
:10AC50000BE0E28E04F1140339462046FFF77BFA3D
:10AC60000646787810F0200F3ED13146204600F09D
:10AC70001FFD39E0082837D12760B868E8B3F5F739
:10AC8000B3FDD0B3E08E022804D3A169B868F5F70C
:10AC900045FE90B394F8600020F001001A4F84F84C
:10ACA0006000A06EBD6B00281CBF2878002807D06C
:10ACB000A16EC0B205F10105884728780028F7D1B8
:10ACC00094F8600010F0010F0ED0A06E3D680028CF
:10ACD0001CBF2878002807D0A16EC0B205F101057D
:10ACE000884728780028F7D194F8600020F0020007
:10ACF00084F860003046BDE8F081FFE794F860001A
:10AD000040F00100CAE70000340000202DE9F047C0
:10AD100006468946B16DB0F85C00511AA0EB1110DF
:10AD20000704984615463F0C4FF000042DD000BF95
:10AD300005EB0410417801F00F02092A21D00378B5
:10AD4000002B18BF082A03D032681278134218D09B
:10AD500096F8602012F0010F08BF11F0100F10D00C
:10AD6000FFF778FAB8F1000F06D001464246484690
:10AD7000F5F759FD60B104E001464846F5F7CEFD10
:10AD800030B1601C84B2BC42D2D30020BDE8F08751
:10AD900005EB0410BDE8F0872DE9F0410F460546AC
:10ADA000FFF77EFA041E08BFBDE8F08100232946A4
:10ADB000A26DFFF7ABFF1F4E010025D0487800F0D1
:10ADC0000F00801E06282FD3A06E00281CBF2878F5
:10ADD000002807D0A16EC0B205F101058847287888
:10ADE0000028F7D1A06E756A00281CBF28780028BB
:10ADF00007D0A16EC0B205F1010588472878002868
:10AE0000F7D10020BDE8F081A06EB56A00281CBF14
:10AE100028780028F5D0A16EC0B205F10105884759
:10AE200028780028F7D1ECE73A462046BDE8F04103
:10AE300000F002B83400002070B50D46064649788F
:10AE40002A4811F0400F0FD0046AB06E00281CBFD2
:10AE50002078002843D0B16EC0B204F101048847C5
:10AE600020780028F7D13AE001F00F01891E062969
:10AE700035D2DFE801F00306090C1A2AA86802603F
:10AE80002DE0A86802802AE0A868027027E0137805
:10AE9000A968002033B1135C0B54401C80B2135CD2
:10AEA000002BF8D100220A5419E0C469B06E0028C2
:10AEB0001CBF2078002812D0B16EC0B204F101048A
:10AEC000884720780028F7D109E0A868836833B163
:10AED000006810B11146984701E01046984729468E
:10AEE0003046BDE8704000F003B800003400002098
:10AEF0002DE9F0437BA283B00D460746D2E900015D
:10AF000092680292CDE900016978002001F00F01FA
:10AF1000891E06290FD2DFE801F003060A0D0D5B3A
:10AF2000A868006807E0A868B0F9000003E0A86816
:10AF3000007800E0A868D5F804808146B86E002843
:10AF40001CBF98F80000002806D0B96EC0B2884730
:10AF500018F8010F0028F8D1B86E65A438B100BF09
:10AF6000B96E14F8010B884720780028F8D168786A
:10AF700000F00F00052833D00B206946B9F100041A
:10AF8000B8BFC9F1000400258DF80B50002C18BF84
:10AF9000584B13D083FB04C24FEAA20CACEBE27215
:10AFA000C2F1000C0CEB8C0C04EB4C0C401EC0B23C
:10AFB0000CF1300C01F800C01400EBD1B9F1000F16
:10AFC00034DAA0F10100C0B24FF02D020A5432E091
:10AFD000A8684168002916BF006800208847AAE7D2
:10AFE000B86E45A438B100BFB96E14F8010B88479C
:10AFF00020780028F8D1B86E4D4600281CBF28786C
:10B00000002807D0B96EC0B205F10105884728783D
:10B010000028F7D1B86E38A4002854D0B96E14F8BF
:10B02000010B884720780028F8D14CE003D130226A
:10B03000401EC0B20A54C0F10B0040B2C0F10B0078
:10B0400000EB0108B86E00281CBF98F8000000282B
:10B0500006D0B96EC0B2884718F8010F0028F8D1A1
:10B06000B86E26A438B100BFB96E14F8010B88473A
:10B0700020780028F8D130220B216846F5F71EFC15
:10B080005FEA09066A464FF008018DF808500AD0B9
:10B0900006F00F0009288CBF57303030491EC9B266
:10B0A00036095054F4D1B86E144600281CBF9DF8E0
:10B0B0000000002807D000BFB96E14F8010B8847C4
:10B0C00020780028F8D1B86E0EA430B1B96E14F80B
:10B0D000010B884720780028F8D103B04846BDE826
:10B0E000F0830000303030303030303030303000DD
:10B0F000203D200067666666220000002C20307824
:10B10000000000000D0A00002DE9F05F868E4FF070
:10B11000000A81890446D04651B322690020834643
:10B120005054B4F85C10D4F858900029D8BFBDE84A
:10B13000F09F00BF09EB0B17387840B1797801F028
:10B140000F01082903D021680978084267D094F8D4
:10B15000600010F0010F04BF787810F0100F5ED07F
:10B1600038462569FFF776F802460023184612E0B4
:10B17000FFF702FC0121204600F0DAF9F8F774FC31
:10B18000002840F03881BDE8F09F61450BD1591C83
:10B19000401C8BB280B2295C00291CBF12F800C091
:10B1A000BCF1000FF1D1A089834238D1B8F1000F72
:10B1B0002FD0B8F1010F0AD1A06E93A538B100BF0E
:10B1C000A16E15F8010B884728780028F8D109EB03
:10B1D0000A1529462046FFF70BFC2846FFF73AF8E8
:10B1E00005463846FFF736F8002184460A4605E052
:10B1F00098420AD1481C81B2501C82B2A85C002837
:10B200001CBF1CF80230002BF2D18E4298BF314691
:10B210000E4608F101001FFA8BFA1FFA80F80BF1B5
:10B2200001000FFA80FBB4F85C00584582DCB8F1ED
:10B23000000F08BFBDE8F09FB8F1010F1ED1A08933
:10B24000E189401A05B2002D06DDA16E2020884755
:10B25000681E05B2002DF8DC207B411ECFB20DD355
:10B260006A4DA06E38B100BFA16E15F8010B88477A
:10B2700028780028F8D1791ECFB2F1D209EB0A194B
:10B2800048462569FEF7E6FF014600200A7832B1FC
:10B290000A5C2A54401C80B20A5C002AF8D10027BC
:10B2A0002F54A081B8F1010F08D949462046FFF775
:10B2B0009FFB0121204600F03BF9A681A18920696E
:10B2C0004754A089E081A06E256900281CBF28781A
:10B2D000002807D0A16EC0B205F101058847287883
:10B2E0000028F7D1F8F7C0FB002808BFBDE8F09FA1
:10B2F000B8F1010F7FD194F8600010F0040F7AD0FC
:10B30000F8F7B2FB6168401AC82874D2A089E189B5
:10B31000401A05B2002D06DDA16E20208847681E68
:10B3200005B2002DF8DC207B411ECEB20CD3374D88
:10B33000A06E30B1A16E15F8010B8847287800285F
:10B34000F8D1711ECEB2F2D2B4F90C00411C002922
:10B350002ADD0022012333EA000106D0226900F130
:10B36000050C135C02F80C300122B4F90C305B1CA4
:10B370008B4219DD2369A0EB020C521C13F80C5010
:10B380000CF1050C891C03F80C502369A0EB020C8E
:10B39000521C13F80C500CF1050C03F80C50B4F9C6
:10B3A0000C305B1C8B42E5DC19A122690B78002074
:10B3B00033B10B5C1354401C80B20B5C002BF8D1F2
:10B3C0001754216920200871A089401DA081E081C7
:10B3D000A06E256900281ABF28780028BDE8F09FD4
:10B3E000C0B2A16E05F10105884728780028F7D181
:10B3F000BDE8F09FFFE794F8600040F0040084F897
:10B400006000BDE8F09F00000D0A0000289D0008C4
:10B4100068656C70000000000121FFF78BB8000028
:10B4200070B5FEF73DFF002808BF70BD0446866D6D
:10B430001C480569A06E00281CBF2878002807D08A
:10B44000A16EC0B205F10105884728780028F7D120
:10B45000B4F85C0000250028D8BF70BD06EB0511CC
:10B460004A7802F00F00072815D9082813D80B785E
:10B47000002B18BF082803D02068007803420AD0A8
:10B4800094F8600010F0010F08BF12F0100F02D006
:10B490002046FFF7ADFA681C05B2B4F85C00A8427C
:10B4A000DCDC70BD3400002070B5FEF7F9FE00282A
:10B4B00008BF70BD0446866D1C48C568A06E002894
:10B4C0001CBF2878002807D0A16EC0B205F1010585
:10B4D000884728780028F7D1B4F85C0000250028B8
:10B4E000D8BF70BD06EB05114A7802F00F00831E2D
:10B4F000052B13D80B78002B18BF082803D0206821
:10B50000007803420AD094F8600010F0010F08BFE1
:10B5100012F0100F02D02046FFF76AFA681C05B23D
:10B52000B4F85C00A842DDDC70BD000034000020EF
:10B5300070B5044690F8600010F0010FA06E45D081
:10B5400000291CBF29A5002807D000BFA16E15F84F
:10B55000010B884728780028F8D120684568A06E3C
:10B5600000281CBF2878002807D0A16EC0B205F1C2
:10B570000105884728780028F7D1A06E1CA530B1B6
:10B58000A16E15F8010B884728780028F8D1A56826
:10B59000002D08BF17A5A06E00281CBF2878002822
:10B5A00007D0A16EC0B205F10105884728780028B0
:10B5B000F7D1A06E10A5002808BF70BD15F8010BCB
:10B5C000A16E884728780028F8D170BD0B49002863
:10B5D0000D6B1ABF2878002870BDC0B2A16E05F1AE
:10B5E0000105884728780028F7D170BD0D0A0000B2
:10B5F0003A0000002F00000024200000340000204A
:10B600002DE9F041044690F8600017460E4610F010
:10B61000020F0FD12548C56BA06E00281CBF2878EB
:10B62000002807D0A16EC0B205F10105884728782F
:10B630000028F7D17D1E05D3A16E16F8010B8847AF
:10B640006D1EF9D294F8600010F0020F18BFBDE82B
:10B65000F08100212046FFF76BFFA089002808BF7A
:10B66000BDE8F0812569A06E00281CBF287800285D
:10B6700007D0A16EC0B205F10105884728780028DF
:10B68000F7D1A089E1890025401A0028D8BFBDE87C
:10B69000F0810820A16E8847681C05B2A089E18965
:10B6A000401AA842F5DCBDE8F0810000340000201B
:10B6B0002DE9F0414DA20D460646D2E9001084B0B6
:10B6C0009268CDE900100292B06E4BA738B100BF6E
:10B6D000B16E17F8010B884738780028F8D10B2095
:10B6E00069462C1EB8BF6C424FF000088DF80B80E5
:10B6F000002C18BF434B13D083FB04C24FEAA20CAB
:10B70000ACEBE272C2F1000C0CEB8C0C04EB4C0CB9
:10B71000401EC0B20CF1300C01F800C01400EBD197
:10B72000002D06DAA0F10100C0B24FF02D020A543C
:10B7300006E005D1A0F10100C0B24FF030020A547A
:10B74000C0F10B0040B2C0F10B0000EB0107B06E7E
:10B7500000281CBF3878002807D0B16EC0B207F1AE
:10B760000107884738780028F7D1B06E26A730B196
:10B77000B16E17F8010B884738780028F8D13022CD
:10B780000B216846F5F79AF86A4608218DF808807B
:10B790005DB100BF05F00F0009288CBF5730303075
:10B7A000491EC9B22D095054F4D1B06E1446002878
:10B7B0001CBF9DF80000002807D000BFB16E14F830
:10B7C000010B884720780028F8D1B06E10A400281B
:10B7D00004BF04B0BDE8F08114F8010BB16E8847D6
:10B7E00020780028F8D104B0BDE8F0813030303046
:10B7F000303030303030300052657475726E3A201F
:10B8000000000000676666662C20307800000000AB
:10B810000D0A000010B500210176012180F8F41214
:10B8200000210C48F9F748FF04210A48F9F744FFC2
:10B8300008210848F9F740FF00210648F9F77CF98C
:10B8400004210448F9F778F9BDE8104008210148BF
:10B85000F9F772B984020020F0B4DFED7A3AF0EE25
:10B86000402A40EEE32A20EEA34A9FED771AB0EE7D
:10B87000402AB0EE403A60EE811AB1EE401A00EE76
:10B88000A32A00EEE31A10EEA33AF5EEC00A049FD5
:10B89000F1EE10FA68DBDFED6D3AB5EEC00A60EE4E
:10B8A000A30AF1EE10FA21DBB4EEC40AF1EE10FAAD
:10B8B0003ED300EE100A0125B8EE400A22EE800ABF
:10B8C000BCEEC00A10EE10CA00EE100AA0EB0C008D
:10B8D000B8EE400A20EE800ABCEEC00A10EE106AF4
:10B8E000801B4408A4440CEB0600A3E0B4EEE10A7C
:10B8F000F1EE10FA1CD200EE100A0325B8EE400A51
:10B9000020EE800ABCEEC00A10EE106A00EE100AAB
:10B91000801BB8EE400A21EE000ABCEEC00A10EE11
:10B92000104A001B4FEA500C0CEB0600044481E067
:10B9300000EE100A0225B8EE400A22EE000ABCEE24
:10B94000C00A10EE106A00EE100A801BB8EE400A22
:10B9500023EE000ABCEEC00A10EE104A001B4FEAAC
:10B96000500C6444A01965E0DFED393AB5EEC00A29
:10B9700060EEA30AF1EE10FA20DBB4EEE10AF1EE7C
:10B9800010FA3CD300EE100A0625B8EE400A20EE6D
:10B99000800AFCEEC00A00EE100A10EE90CAB8EE63
:10B9A000400AA0EB0C0022EE000ABCEEC00A10EE2A
:10B9B000106A801B4408A01984443BE0B4EEC40A1A
:10B9C000F1EE10FA1BD200EE100A0425B8EE400A80
:10B9D00023EE000ABCEEC00A10EE104A00EE100A78
:10B9E000001BB8EE400A20EE800ABCEEC00A10EE42
:10B9F00010CAA0EB0C004008844464441AE000EE36
:10BA0000100A0525B8EE400A21EE000ABCEEC00A75
:10BA100010EE104A00EE100A001BB8EE400A22EEAB
:10BA2000800ABCEEC00A10EE10CAA0EB0C00400861
:10BA30000444A4440C60C2F800C018603D60F0BC2F
:10BA4000704700003ACD133F3ACD13BF3ACD933F34
:10BA50003ACD93BF70B52A4C9FED2A0A0125606844
:10BA6000DFED320A002180ED650A9FED270A80EDA7
:10BA7000660A9FED260A80ED670A9FED250A80F889
:10BA8000C85180ED6B0A9FED230A80ED6C0A9FED93
:10BA9000220A80ED6D0A9FED210A80ED6E0A9FED6E
:10BAA000200A80EDAC0A9FED1F0A80ED710A9FED20
:10BAB0001E0A80ED9C0AC0ED9D0A80F84D1080F8AA
:10BAC00064129FED1B0A80F8C91180ED5A0A80EDBF
:10BAD0000B0A80ED9F0A80ED9E0AC0ED050A0176F3
:10BAE000A06841700170FDF7E3FC60689FED110AEA
:10BAF00080ED5A0A80F87851BDE87040FFF78ABEA1
:10BB0000140000208FC2F53C0000A0420AD7233C5D
:10BB10003333733F6666663FCDCC4C3E66AF84469A
:10BB20006F12833AE8F576380000FA440060EA467E
:10BB30000000000000409C4510B50B4CFDF7B8FC20
:10BB400094EDBC0A094910EE100A8842D2BF9FED5D
:10BB5000080ADFED080A20EE200A84ED5A0ABDE843
:10BB600010406420F7F746BEA80300200AD7233C04
:10BB70000000000000401C460A4601460148FFF74D
:10BB80003FBD00009C6400200C4810B50A49816646
:10BB90000B49416601220B490B48FAF7B3F8002123
:10BBA0000A48FDF7A3FD0A49BDE810404FF40072B2
:10BBB000A1F16C00FEF74CBDD9BB00089C640020CD
:10BBC000D5BB0008880000201C0300208C0000204A
:10BBD000086500207047000001B5FF230122694677
:10BBE0000148FAF735F908BD1C0300209FED0F0A44
:10BBF00081ED000A82ED000A1022001F91ED000A7B
:10BC0000D0ED010A30EE200A81ED000AD0ED020AE3
:10BC10000830521E30EE200A81ED000AEED1DFED31
:10BC2000040A20EE200A81ED000A7047000000009F
:10BC30000000003D10B49FED250ADFF894C081EDAF
:10BC4000000A102482ED000AACF58073B0F1040004
:10BC500091ED000AD0ED010A9CED011A00EE810A77
:10BC600081ED000A92ED000AD0ED010A93ED011A70
:10BC700000EEC10A82ED000A91ED000AD0ED020A41
:10BC80009CED021A0CF1080C00EE810A81ED000A0D
:10BC900092ED000AD0ED020A93ED021A0830083343
:10BCA00000EEC10A641E82ED000AD1D1D1ED000A76
:10BCB0009FED080A60EE800AC1ED000AD2ED000A8D
:10BCC00020EE800A82ED000A10BC704700000000E0
:10BCD000F4C800080000003D104902689FED100AFA
:10BCE0008A4209D9D0ED000A70EE800A10EE902A3F
:10BCF000C0ED000A8A42F5D80A4902688A42D8BFD4
:10BD0000704700BFD0ED000A70EEC00A10EE902A16
:10BD1000C0ED000A8A42F5DC70470000DB0F49C025
:10BD2000DB0FC940DB0F494010B500290AD0087865
:10BD3000002807D005487844F4F7F0FD002801D02A
:10BD4000002010BD0248784410BD00003A130000E6
:10BD50003213000010B500290AD00878002807D057
:10BD600005487844F4F7DAFD002801D0002010BD22
:10BD70000248784410BD00002A130000221300007E
:10BD800021F00042A2F16052B2F5801F01F00043A1
:10BD900028BFD2F17F6C0BD95FEA001C43EAC202D4
:10BDA00042EB507018BF704728BF20F00100704769
:10BDB000B2F5801FBCBF184670474FEA410C1CF516
:10BDC000001F02D2084600F0F5BC70B500F0FCFA86
:10BDD00000000089FFF7F6BF4FF00040A0F580009B
:10BDE0007047000010B591EA030F48BF83F000438D
:10BDF00000F18883841A71EB030C05D2121943EB0E
:10BE00000C03001B61EB0C01DFF824E14FEA115435
:10BE1000A4EB135C1EEA430F18BF9EEA445F73D085
:10BE200023EA0E03DCF1200E21EA045143F48013CF
:10BE300032D322FA0CFE10EB0E0023FA0CFE41EB7B
:10BE40000E01CCF1200E03FA0EFE10EB0E0051F1A4
:10BE50000001B1F5801FCCF1200E32D201EB04516C
:10BE600012FA0EF2BDE8104058BF7047401C38BFB0
:10BE70005FEA420218BF7047002814BF20F001009B
:10BE800041F100014FEA410313F5001F38BF70472D
:10BE9000A1F1C04100F0E6BA012A43EB0302ACF184
:10BEA000200CDCF11F0E32BF4FF0000E23FA0CF312
:10BEB00010EB030041EB0451B4EB115FD0D0A1EBC8
:10BEC000045101F5801149085FEA300001EB04518B
:10BED0000ED350F1000038BF12FA0EFE08D1BDE8B3
:10BEE0001040C9E7401C38BF5FEA4202CAD1C3E72D
:10BEF000BDE810404FEA410313F5001F38BF7047FB
:10BF0000A1F1C04100F0AEBA9EEA445F08D011EA48
:10BF10005E0FBDE8104004BF01F0004100207047F3
:10BF2000BDE8104070B500F04FFA00BF64FBBE3EA4
:10BF30000000E0FF491058BFC1F140415B1058BFFD
:10BF4000C3F140438B42EFF3008070472DE9C041BD
:10BF500030B4DFF8A0C23CEA111418BF3CEA131455
:10BF600000F0EC8081EA03051CEA111444EAD57460
:10BF700018BF1CEA131500F0C780A4EB05044FF0AE
:10BF8000004545EAC12145EAC32341EA505143EA4D
:10BF9000525304F17F74994204F500344FEAC020F3
:10BFA0004FEAC22208BF904200F09C804FEA13651E
:10BFB0000FF24016765D4FEA134506FB05F7C7F111
:10BFC000807706FB07F74FEAD737A7FB036876426F
:10BFD000C8F58038A7FB06CE38BFA8F1010807FBDB
:10BFE00008E64FF0000EA6FB028CE6FB03CEDCF168
:10BFF000000CCEF1004E38BFAEF1010EA6FB0C587E
:10C000004FF000074FF00005E6FB0E87A1FB08C6C6
:10C01000A0FB07CE16EB0E0645F10005E1FB076518
:10C0200015F1E04E7EBFA4F580345FEA46066D410F
:10C0300016F1800745F100054FEA17274FEA06661B
:10C0400047EA0567A6F1DE46B6F1805F4FEA15259F
:10C050001FD9384624F0010C05EBC471BCF1FE6F0A
:10C0600001EB0C1102D8F0BCBDE8008124425CBF9A
:10C0700001F5801E9EEAC47F02D4F0BCBDE80081B9
:10C08000244238D4F0BCA1F1C041BDE8004100F029
:10C09000E9B94FEAD22242EA43524FEAD323A7FB3F
:10C0A00002864FEAD02040EA415007FB03661EEAB1
:10C0B0000E0F4FEAD12105FB026658BFA6EB0056D2
:10C0C000B6EB00564FEA520E4EEAC37E18EB0E0E48
:10C0D00056EB530EBDD518EB02085E417F1C55F19F
:10C0E0000005B6E74FF480154FF000074FF000064B
:10C0F0004FF00008ADE7F0BC4FF0000001F1C04187
:10C1000001F00041BDE8008111EA0C1F0CEA131593
:10C1100000D00CE013EA0C1F00F025804FF0000067
:10C12000F0BC81EA030101F00041BDE80081F0BCF0
:10C13000BDE8004181EA030100F094B9F0BCBDE81C
:10C14000004170B500F040F9097EFC3E00F007B8F0
:10C1500081EA03014FF0000001F00041704781EADD
:10C16000030100F07FB9F0BCBDE800414FF00000D2
:10C1700021497047FFFDFBF9F7F5F4F2F0EEEDEB26
:10C18000E9E8E6E4E3E1E0DEDDDBDAD8D7D5D4D3D5
:10C19000D1D0CFCDCCCBCAC8C7C6C5C4C2C1C0BF21
:10C1A000BEBDBCBBBAB9B8B7B6B5B4B3B2B1B0AF27
:10C1B000AEADACABAAA9A8A8A7A6A5A4A3A3A2A10B
:10C1C000A09F9F9E9D9C9C9B9A99999897979695C6
:10C1D00095949393929191908F8F8E8E8D8C8C8B62
:10C1E0008B8A8989888887878685858484838382EA
:10C1F000828181800000FF070000F87F51EA030C74
:10C2000017D41CF5801F58BFBCF5801F00F10680B5
:10C21000994218BF704708BF9042704707D711F581
:10C22000801F58BF13F5801F19D499427047894267
:10C2300070471CF5801F08D5BCF5801FF7D58B42D1
:10C2400018BF704708BF824270474FF4001C1CEBB8
:10C25000410F38BF1CEB430F01D28B42704770B5C2
:10C2600000F0B2F8922449004FF000514FF0805393
:10C27000FFF760BEDFF848C170B51CEA111E1EBF93
:10C280001CEA13159EEA0C0F95EA0C0F00F06F8064
:10C2900081EA030423EA4C134EEAD47E21EA4C11CE
:10C2A00041F4801143F48013AE44A1FB024CA0FB87
:10C2B0000365AEF17F7E361955EB0C05A1FB034CEF
:10C2C0004CF10003A0FB021C16EB0C06654153F178
:10C2D0000003094218BF46F0010613F4007F0BD19A
:10C2E0004FEA03314FEA0530340341EA155140EA81
:10C2F00016506FF003020AE04FEAC3214FEAC5204F
:10C30000F40241EA555140EA56506FF0020202EB46
:10C310002E4201EB025585EACE710AD05FEA440C49
:10C3200018BF24F0004450F1000041F1000120EA60
:10C33000D47040F2FE7C624500D270BDA84214BFAA
:10C340004FF080444FF04044002E08BF0024BEF15F
:10C35000806FA8BFA1F1C041BDE8704080F282802B
:10C360004FF0000001F1C04101F0004170479EEA2A
:10C370000C0F0CEA131518BF95EA0C0F06D04FF0FE
:10C38000000081EA030E0EF0004170BD00F01CF8C1
:10C390008900013E00F007B800F009B84FEA430CED
:10C3A0005FEA5C5C08D081EA030100F05BB84FEA09
:10C3B000410C5FEA5C5CF6D14FF000000149704728
:10C3C0000000FF070000F87F0EF1020E2EF0030EB2
:10C3D0005EF8046B364205D4012A43EB030515F5DC
:10C3E000001F12D8012841EB010C1CF5001F0CD8CE
:10C3F0000ED14FEAD17C15F5001F0CEB4C0C0CF163
:10C40000020C08BF4CEBD37C04E04FF0080C01E0B9
:10C410004FEAD37C0CEB4C0526FA05F606F007062E
:10C42000B6F1040C06D20EEB860CBDE870404CF061
:10C43000010C6047DFE80CF0090B02024FF00041ED
:10C440004FF00000A1F5002170BD194610460128EB
:10C4500051EB010418BFD4F5001484BF002001F093
:10C46000004170BD0808A0F500114FEA3101704786
:10C4700053EA010C17D41CF5801F58BFBCF5801F70
:10C4800000F106808B4218BF704708BF8242704798
:10C4900007D713F5801F58BF11F5801F19D48B42A1
:10C4A00070479B4270471CF5801F08D5BCF5801F64
:10C4B000F7D5994218BF704708BF904270474FF4B4
:10C4C000001C1CEB430F38BF1CEB410F01D29942FB
:10C4D00070470FB40CBC03BCFFF7C1BE91EA030F59
:10C4E00010B581F000413FF585AC83F0004300F0CA
:10C4F00009B8000010B591EA030F48BF83F000436C
:10C500003FF578AC841A71EB030C07D212198CF04A
:10C51000004C43EB0C03001B61EB0C01DFF8A4E1C2
:10C520004FEA1154A4EB135C1EEA430F18BF9EEAB6
:10C53000445F00F0B08023EA6E03524221EA0451C6
:10C54000C3EB6E0338BF5B1EDCF1200E25D322FA4D
:10C550000CFE10EB0E0043FA0CFE41EB0E01CCF189
:10C56000200E03FA0EFE10EB0E0051F10001CCF18B
:10C57000200E29D412FA0EF201EB0451BDE810404E
:10C5800058BF7047401C1CBFB2F1004F70470028D5
:10C590000CBF491C20F00100704712EB020E43EB68
:10C5A000030218BF4FF0010E4EEA4202ACF1200C1C
:10C5B000DCF11E0E54D943FA0CFE10EB0E0051F1C3
:10C5C000FF31CCF11E0ED5D50EF1010E12FA0EFE82
:10C5D000404141EB010101EB445C5FEA5C5C10D936
:10C5E00010EBDE7001EB045138BFBEF1004FBDE827
:10C5F000104018BF704700280CBF491C20F00100F4
:10C60000704730D24FEAD42C11F5001124F40064A5
:10C610001BD0B1FA81F20B3AA41AA41ED2F1200366
:10C62000914030FA03F31943904001EBCC71002C98
:10C6300001EB0451BDE81040A8BF704701F1C041B3
:10C640004FF0000001F000417047B0FA80F310FA9B
:10C6500003F100D110BDE41A173C4805C90AE4E70C
:10C6600001EB045110BD491001EB0451BDE810402D
:10C670004FEA300002E04FF0000170474A0008BF67
:10C680000042F8D0B2F5001F28BF704701F000410A
:10C690004FF0000070479EEA445F07D011EA5E0F3A
:10C6A000BDE8104004BF002100207047BDE81040E5
:10C6B00070B5FFF789FE00BF40DFF63E83F0004112
:10C6C000104670470000E0FF43004FEAD30C4FEAEA
:10C6D0003C0C43401FBF40070CF1605113F0FE4F6C
:10C6E00070471CF0006F03D100200CF00041704730
:10C6F0000CF0004343EA507010B540EACC0000F063
:10C700000EF800BF000000924FEA0001FFF7AABE3A
:10C710004FF000414FF00000A1F5002170470EF1ED
:10C72000020E2EF0030E5EF8044B244204D44FEAAE
:10C730004102B2F17F4F11D84FEA4003B3F17F4F6E
:10C740000CD80ED14FEAD07CB2F17F4F0CEB4C0CE1
:10C750000CF1020C08BF4CEBD17C04E04FF0080C4C
:10C7600001E04FEAD17C0CEB4C0324FA03F404F013
:10C770000704B4F1040C06D20EEB840CBDE81040A3
:10C780004CF0010C6047DFE80CF0070802024FF0A4
:10C790000040A0F5800010BD0846420018BFD2F14D
:10C7A000807288BF00F0004010BD4FF04070E1EE95
:10C7B000100A7047FF2141EAD050C0057047F4F7D6
:10C7C00054BAF4F709BD0100020004000600080095
:10C7D0000A000C0010002000400080000001000052
:10C7E0000000000000000102030406070809000021
:10C7F000000001020304000000000000ACC5473E39
:10C8000007EFC33ED6390E3FF704353F38DB543FC0
:10C8100066836C3FBA147B3F0000803FBA147B3FB5
:10C8200066836C3F38DB543FF704353FD6390E3F03
:10C8300007EFC33EACC5473E00000000ACC547BE95
:10C8400007EFC3BED6390EBFF70435BF38DB54BF80
:10C8500066836CBFBA147BBF000080BFBA147BBF75
:10C8600066836CBF38DB54BFF70435BFD6390EBFC3
:10C8700007EFC3BEACC547BE0000000007EFC33ED4
:10C88000F704353F66836C3F0000803F66836C3F52
:10C89000F704353F07EFC33E0000000007EFC3BEBB
:10C8A000F70435BF66836CBF000080BF66836CBF32
:10C8B000F70435BF07EFC3BE0000008007EFC33E9B
:10C8C000F704353F66836C3F0000803F66836C3F12
:10C8D000F704353F07EFC33E0000000007EFC3BE7B
:10C8E000F70435BF66836CBF000080BF66836CBFF2
:10C8F000F70435BF07EFC3BE0000803FBA147B3F8B
:10C9000066836C3F38DB543FF704353FD6390E3F22
:10C9100007EFC33EACC5473E00000000ACC547BEB4
:10C9200007EFC3BED6390EBFF70435BF38DB54BF9F
:10C9300066836CBFBA147BBF000080BFBA147BBF94
:10C9400066836CBF38DB54BFF70435BFD6390EBFE2
:10C9500007EFC3BEACC547BE00000080ACC5473E74
:10C9600007EFC33ED6390E3FF704353F38DB543F5F
:10C9700066836C3FBA147B3F0000803F66836C3F48
:10C98000F704353F07EFC33E0000000007EFC3BECA
:10C99000F70435BF66836CBF000080BF66836CBF41
:10C9A000F70435BF07EFC3BE0000008007EFC33EAA
:10C9B000F704353F66836C3F0000803F66836C3F21
:10C9C000F704353F07EFC33E0000000007EFC3BE8A
:10C9D000F70435BF66836CBF000080BF66836CBF01
:10C9E000F70435BF07EFC3BE0000008007EFC33E6A
:10C9F000F704353F66836C3F666F635F64657465FB
:10CA000063745F6170706C795F616C6C5F666F639B
:10CA100000636D645F7365745F63757272656E74D5
:10CA200000636D645F73746F705F6D6F746F72001D
:10CA3000636D645F73746172745F6D6F746F7200A5
:10CA4000636D645F7365745F6D6F746F725F727036
:10CA50006D00636D645F746573745F6D6F746F7286
:10CA60005F706172616D6574657200636D645F73A0
:10CA700065745F63757272656E740053544F502015
:10CA80004D4F544F5220494E5354414E5400636D04
:10CA9000645F73746F705F6D6F746F720053544F87
:10CAA00050204D4F544F5220494E5354414E540044
:10CAB000636D645F73746172745F6D6F746F720025
:10CAC0005354415254204D4F544F5220494E5354C9
:10CAD000414E5400636D645F7365745F6D6F746F76
:10CAE000725F72706D00534554204D4F544F522069
:10CAF00052504D20494E5354414E5400636D645F73
:10CB0000746573745F6D6F746F725F706172616D65
:10CB1000657465720054455354204D4F544F522054
:10CB2000504152414D455445520047342D464F43E4
:10CB3000000064656661756C7420757365720073BE
:10CB40006574566172007365742076617200757049
:10CB500000646F776E007269676874006C65667454
:10CB600000746162006261636B737061636500628F
:10CB700061636B73706163650064656C6574650007
:10CB8000656E74657200656E7465720068656C70C0
:10CB90000073686F7720636F6D6D616E6420696EDE
:10CBA000666F0D0A68656C70205B636D645D00756F
:10CBB00073657273006C69737420616C6C2075739B
:10CBC000657200636D6473006C69737420616C6CD2
:10CBD00020636D640076617273006C697374206108
:10CBE0006C6C20766172006B657973006C6973748C
:10CBF00020616C6C206B657900636C656172006309
:10CC00006C65617220636F6E736F6C65006C6F672B
:10CC10005365744C6576656C00736574206C6F6742
:10CC2000206C6576656C0068657864756D70006869
:10CC300065782064756D700D0A2068657864756D7F
:10CC400070205B6C6F675D205B626173655D205B6C
:10CC50006C656E5D006C6F675365744C6576656CD2
:10CC60000030313233343536373839414243444568
:10CC70004640305800303132333435363738396138
:10CC800062636465664030780004000008000000BC
:10CC90000000000002000100001000000000000081
:10CCA00000000000303132333435363738396162B4
:10CCB0006364656678700030313233343536373826
:10CCC00039414243444546585000000002400000AC
:10CCD000000000A00000000005400000000000C8A7
:10CCE000000000000C4000000000409C000000001C
:10CCF000194000000020BCBE0000000034400000CD
:10CD0000BFC91B8E00000004B5400000504BCFD0BF
:10CD10006607E2CF010000006C4100003E8251AA8C
:10CD2000DFEEA73401000000D9420000DCB5A0E22C
:10CD30003A301F97FFFFFFFFB4450000FD25A0C854
:10CD4000E9A3C14FFFFFFFFFFF3F0000000000808D
:10CD500000000000FF3F0000000000800000000015
:10CD60000D0A436F6D6D616E64204C6973743A0DEA
:10CD70000A0000000D0A566172204C6973743A0D66
:10CD80000A0000000D0A55736572204C6973743AED
:10CD90000D0A00000D0A4B6579204C6973743A0D39
:10CDA0000A000000436F6D6D616E64206E6F742029
:10CDB000466F756E640D0A000D0A5761726E696EDA
:10CDC000673A20436F6D6D616E6420697320746FE4
:10CDD0006F206C6F6E670D0A0000000020697320E1
:10CDE0006E6F742061207661720D0A0063616E2798
:10CDF00074207365742072656164206F6E6C792095
:10CE00007661720D0A00000063616E2774207365FD
:10CE10007420706F696E7465720D0A000D0A205FD0
:10CE20002020202020202020205F2020205F202084
:10CE300020202020202020202020202020202020F2
:10CE40005F202020202020202020205F205F200D38
:10CE50000A7C207C202020205F5F5F7C207C5F7C20
:10CE6000207C5F205F5F5F205F205F5F2020205F6E
:10CE70005F5F7C207C5F5F2020205F5F5F7C207C89
:10CE8000207C0D0A7C207C2020202F205F205C202D
:10CE90005F5F7C205F5F2F205F205C20275F5F7CCF
:10CEA000202F205F5F7C20275F205C202F205F20C9
:10CEB0005C207C207C0D0A7C207C5F5F7C20205FD6
:10CEC0005F2F207C5F7C207C7C20205F5F2F207C7C
:10CED000202020205C5F5F205C207C207C207C2048
:10CEE000205F5F2F207C207C0D0A7C5F5F5F5F5F8F
:10CEF0005C5F5F5F7C5C5F5F7C5C5F5F5C5F5F5F14
:10CF00007C5F7C202020207C5F5F5F2F5F7C207C0B
:10CF10005F7C5C5F5F5F7C5F7C5F7C0D0A0D0A421B
:10CF200075696C643A202020202020204D617920F2
:10CF3000313320323032312031383A30333A3537DC
:10CF40000D0A56657273696F6E3A202020202033D7
:10CF50002E302E360D0A436F707972696768743A05
:10CF60002020202863292032303230204C65747410
:10CF700065720D0A000000000D0A70617373776F0F
:10CF80007264206572726F720D0A00005661722021
:10CF90006E6F7420466F756E740D0A001B5B324B0A
:10CFA0000D000000434D4420000000005641522077
:10CFB000000000004B45592000000000636F6D6DBC
:10CFC000616E642068656C70206F66200000000050
:10CFD0000D0A506C6561736520696E707574207000
:10CFE000617373776F72643A000000004E4F4E45D4
:10CFF000000000001B5B324A1B5B31480000000050
:10D0000055534552000000001B5B33316D2020203A
:10D01000204F66667365743A2030302030312030FE
:10D020003220303320303420303520303620303735
:10D030002030382030392030412030422030432009
:10D0400030442030452030461B5B33396D0D0A00DB
:10D050002CD30008000000209800000014020008F3
:10D06000C4D3000898000020E86D000030020008DA
:10D070001C00000043000000F8FFFFFF0C00000050
:10D080000E0000000F0000002E0000001001000044
:10D0900043000000F8FFFFFF004040404040404098
:10D0A000404041414141414040404040404040407B
:10D0B000404040404040404040050202020202021F
:10D0C000020202020202020202202020202020206E
:10D0D0002020200202020202020290909090909082
:10D0E0001010101010101010101010101010101040
:10D0F00010101010020202020202888888888888B4
:10D10000080808080808080808080808080808089F
:10D1100008080808020202024000000000000000A7
:10D1200000000000000000000000000000000000FF
:10D1300000000000000000000000000000000000EF
:10D1400000000000000000000000000000000000DF
:10D1500000000000000000000000000000000000CF
:10D1600000000000000000000000000000000000BF
:10D1700000000000000000000000000000000000AF
:10D18000000000000000000000000000000000009F
:10D19000000000000000000000000000000100008E
:10D1A0006BCA0008C97600087BCA000800010000AD
:10D1B0008ECA0008A97800089DCA00080001000076
:10D1C000B0CA00082D780008C0CA0008000100009D
:10D1D000D4CA0008D1770008E6CA000800010000A0
:10D1E000FCCA00082979000815CB000800080000D7
:10D1F0002ACB000831CB000832CB00080021000008
:10D200003FCB000899AD000846CB0008000900009C
:10D2100000415B1B19B400084ECB00080009000058
:10D2200000425B1B2D9D000851CB00080019000037
:10D2300000435B1BADAB000856CB00080019000093
:10D2400000445B1B5DA900085CCB000800090000DE
:10D250000000000909B1000861CB000800190000B6
:10D2600000000008719B000865CB00080019000051
:10D270000000007F719B00086FCB000800190000C0
:10D280007E335B1BC19B000879CB000800190000AE
:10D290000000000A359D000880CB0008001900003E
:10D2A0000000000D359D000886CB0008002000001E
:10D2B0008CCB000849A4000891CB00080021000095
:10D2C000AFCB000821B40008B5CB00080021000056
:10D2D000C3CB0008AD9B0008C8CB000800210000AC
:10D2E000D5CB0008A9B40008DACB00080021000063
:10D2F000E7CB0008D9A80008ECCB0008002100000B
:10D30000F9CB0008799B0008FFCB00080001000062
:10D310000DCC00082D97000819CC00080021000052
:10D3200027CC00084D9500082FCC00080000000015
:10D330001000000001000000000000000024F400C4
:10D34000A8030020A8030020A00600200000000081
:10D35000000000000000B80B08000000A803002037
:10D360001CCE0008B8CD000860CD000874CD0008C0
:10D3700084CD000894CD0008A4CD000808CE000894
:10D38000ECCD0008DCCD00088CCF0008BCCF000835
:10D39000D0CF000878CF0008F4CF00089CCF000859
:10D3A000A4CF0008ACCF000800D00008B4CF00081C
:10D3B000ECCF00080000000079BB00080104000069
:04D3C0000000000069
:04000005080001D915
:00000001FF
